:020000022000DC
:1060000000000120756302005D6302005F6302000F
:106010006163020063630200656302000000000028
:1060200000000000000000000000000067630200A4
:1060300069630200000000006B6302006D630200F0
:10604000B9A902006F6302001DB7020025A2020079
:106050006F6302006F63020019B602006F630200F3
:106060006F6302006F6302006F6302006F630200E0
:106070006F6302006F6302006F6302006F630200D0
:106080006F6302000D7C02006F6302006F63020009
:106090006F6302006F6302008DC303006F63020031
:1060A0006F6302006F6302006F6302006F630200A0
:1060B0006F6302006F630200000000000000000038
:1060C0006F6302006F6302006F6302006F63020080
:1060D0006F6302006F6302006F6302000000000044
:1060E00000000000000000000000000000000000B0
:1060F00000000000000000000000000000000000A0
:10610000000000000000000000000000000000008F
:10611000000000000000000000000000000000007F
:10612000000000000000000000000000000000006F
:10613000000000000000000000000000000000005F
:10614000000000000000000000000000000000004F
:10615000000000000000000000000000000000003F
:10616000000000000000000000000000000000002F
:10617000000000000000000000000000000000001F
:10618000000000000000000000000000000000000F
:1061900000000000000000000000000000000000FF
:1061A00000000000000000000000000000000000EF
:1061B00000000000000000000000000000000000DF
:1061C00000000000000000000000000000000000CF
:1061D00000000000000000000000000000000000BF
:1061E00000000000000000000000000000000000AF
:1061F000000000000000000000000000000000009F
:10620000354936480A1A02D0072291438D4634494F
:1062100034480A1A06D00722914381F309880222E2
:1062200082F3148830483149314A00F044F831484B
:106230003149324A00F03FF831483249324A00F0E1
:106240003AF832483249334A00F035F83248334997
:10625000334A00F030F833483349344A00F02BF821
:1062600033483449344A00F026F83448344900228F
:1062700000F02CF833483449002200F027F8334866
:106280003349091A082902DB002202604160314AC1
:1062900090471F481F49884205D00268043003B464
:1062A000904703BCF7E700208646EC46002000211B
:1062B000294A9047FEE7884207D0521A05D0037852
:1062C00001300B700131013AF9D17047884202D098
:1062D00002700130FAE770470000012000E0002062
:1062E0000000012000000120A8190400D82A002085
:1062F000B42B0020D0630200D063020060D1030001
:10630000A8190400D82A0020D82A0020C0D10300F0
:10631000C0D10300C0D10300C0D10300C0D103002D
:10632000C0D10300C0D10300C0D10300A8190400EC
:10633000841A0400B42B0020B42B0020B42B0020BE
:10634000003D0020003D0020043D0020043D0020D1
:10635000045D00209D630200ADC50200FEE7FEE77C
:10636000FEE7FEE7FEE7FEE7FEE7FEE7FEE7FEE705
:1063700000F002B8FFF7FCBF0F484FF00701884359
:1063800085460E4880470E48016841F4700101605F
:10639000BFF34F8FBFF36F8FFFF732BF09480A4932
:1063A0000A4A884207D0521A05D0037801300B7090
:1063B0000131013AF9D170470000012089880200BB
:1063C00088ED00E0C0D10300D82A0020D82A0020A0
:1063D00000487047F83C0020FEE7000084B0034608
:1063E0008DF807309DF807305B08DBB21A460D4B7D
:1063F0009B5C8DF80F309DF8073003F00103002BF4
:1064000004D09DF80F301B09DBB204E09DF80F307B
:1064100003F00F03DBB28DF80E309DF80E301846F6
:1064200004B07047C82B002084B003460A468DF89C
:10643000073013468DF806309DF8073003F001034E
:10644000002B01D00F2300E0F0238DF80F309DF8D2
:10645000073003F00103002B04D09DF806301B0128
:10646000DBB201E09DF806308DF80E309DF8073064
:106470005B08DBB21A46114B9A5C9DF807305B084B
:10648000DBB219469DF80F301340DAB20B4B5A5469
:106490009DF807305B08DBB21A46084B9A5C9DF802
:1064A00007305B08DBB219469DF80E301343DAB2B1
:1064B000024B5A5400BF04B0704700BFC82B0020E5
:1064C00000B585B003468DF807300023039310E034
:1064D0000F4B1A68039BDB0013440293029B1B784B
:1064E0009DF807209A4201D1029B0DE0039B0133E6
:1064F0000393084B1B781A46039B9342E8DB06493B
:10650000882005F053FF0023184605B05DF804FB12
:10651000B42B0020B82B0020C4D1030000B585B0F7
:1065200003460A468DF8073013468DF806309DF86D
:1065300007301846FFF7C4FF0390039B002B0BD0D6
:10654000039B5B68002B07D0039B5B689DF80610DC
:106550009DF807201046984700BF05B05DF804FB82
:106560002DE9F04F87B003460A468DF80F301346E9
:106570008DF80E309DF80F301846FFF72FFF0346B9
:10658000042B00F2C28001A252F823F0A1650200A0
:10659000156602003166020061660200776602003D
:1065A0009DF80E30002B00F0AD809DF80F300121DA
:1065B0001846FFF739FF00238DF817300DF1170348
:1065C000184600F015FF9DF80F104FF001024FF034
:1065D0000003A1F12004C1F1200003FA01F702FA3F
:1065E00004F4274322FA00F0074302FA01F6494B6C
:1065F000D3E9002346EA020100913B430193454B56
:10660000DDE90012C3E900129DF81730184600F0CA
:1066100005FF77E09DF80E30002B01D0022200E04C
:1066200000229DF80F3011461846FFF7FDFE6CE082
:106630009DF80E30002B0CD09DF80F30032118462A
:10664000FFF7F2FE9DF80F3001211846FFF766FFB5
:106650005BE09DF80F3001211846FFF7E5FE54E09E
:106660009DF80E30002B4FD19DF80F3004211846B5
:10667000FFF7DAFE48E09DF80E30002B06D09DF8BB
:106680000F3003211846FFF7CFFE3EE09DF80F3094
:1066900000211846FFF7C8FE9DF80F30002118466C
:1066A000FFF73CFF00238DF816300DF11603184656
:1066B00000F09EFE9DF80F104FF001024FF0000316
:1066C000A1F12006C1F1200003FA01F502FA06F655
:1066D000354322FA00F0054302FA01F46FEA040898
:1066E0006FEA05090B4BD3E9002308EA020A09EA1D
:1066F000030B084BC3E900AB9DF81630184600F0B9
:106700008DFE02E000BF00E000BF00BF07B0BDE8A3
:10671000F08F00BFC02B002000B583B00648074BA8
:106720001B685B080022194600F03CFD019000BF89
:1067300003B05DF804FB00BFD82A0020BC2B00206A
:1067400000B587B001900023059328E01C4B1A6820
:10675000059BDB0013440493049B1B78184604F04C
:10676000ABFE03468DF80F30049B5B78012B0CBF0A
:1067700001230023DBB21A469DF80F309A420CBF6A
:10678000012300238DF80E30049B1B789DF80E200A
:1067900011461846FFF7E4FE059B01330593094BAC
:1067A0001B781A46059B9342D0DB074BD3E90023A5
:1067B000134301D0FFF7B0FF00BF07B05DF804FB43
:1067C000B42B0020B82B0020C02B002000B585B0D2
:1067D00001900B468DF80330019BDBB21846FFF7A2
:1067E0006FFE0390039B1B78184604F065FE03467A
:1067F0008DF80B30039B5B78012B0CBF012300232A
:10680000DBB21A469DF80B309A420CBF01230023DD
:106810008DF80A309DF80A30002B06D0054BD3E9DD
:106820000023134301D1FFF777FF00BF05B05DF8E8
:1068300004FB00BFC02B002000B58BB003900B46BB
:1068400001928DF80B30019B092B01D8072367E0DB
:1068500004F026FD034683F00103DBB2002B09D0D0
:1068600004F0BAFC0990099B0893089B002B01D007
:10687000089B55E02C4A039B13602C4A9DF80B3073
:1068800013702B4A019B136010220021294816F037
:1068900004FC29494FF000024FF00003C1E9002336
:1068A00031E09DF80B30DB00039A13440793032378
:1068B0008DF8143000238DF815309DF816306FF3E5
:1068C00000038DF816309DF816306FF341038DF8F4
:1068D00016309DF816306FF382038DF81630079B43
:1068E0009B788DF81530079B1B78184605AB134A2B
:1068F000194604F0E1FC0990099B0693069B002BC6
:1069000001D0069B0CE09DF80B305A1E8DF80B2031
:10691000002BC6D10A4A00210A4800F009FC0346B0
:1069200018460BB05DF804FBB42B0020B82B0020F8
:10693000BC2B0020C82B0020C02B0020CD670200FC
:1069400041670200C0D1030000B583B0114B1B6842
:10695000002B04D1104940F2351005F027FD00232B
:1069600001930CE00B4B1A68019BDB0013441B786E
:106970000121184604F01CFD019B01330193074BD4
:106980001B781A46019B9342ECD30023184603B0B0
:106990005DF804FBB42B0020C4D10300B82B002009
:1069A00086B003900291019201238DF817309DF873
:1069B0001730204A039B13601E4A029B53601D4AF6
:1069C000019B9360039B44F20102934212D0039B0C
:1069D00044F20202934220D1019B164AD360154B28
:1069E000DB681B68134A9361124BDB685B68114AD2
:1069F000D36112E0019B0F4A13610E4B1B699B6828
:106A00000C4A53610B4B1B691B680A4A9361094B83
:106A10001B695B68074AD36100BF72B600BF00BF45
:106A20009DF81730DBB2002BFAD162B600BF00BF71
:106A300006B07047D82B002000B583B002900091BB
:106A4000019244F2010071466A4600F003F803B077
:106A500000BD00BF00B587B003900291019272B6ED
:106A600000BF039B44F20202934217D0039B44F2FF
:106A70000202934218D8039B44F20102934210D0C1
:106A8000039B44F2010293420ED8039B012B0DD0CD
:106A9000039B41F2010293420AD005E0019B05935A
:106AA00007E0019B049304E000BF02E000BF00E0A8
:106AB00000BF084B1B6803F00103002B00D000BE91
:106AC000019A02990398FFF76BFF00BF07B05DF8CA
:106AD00004FB00BFF0ED00E0F0B583B0124801F018
:106AE0007AF8034618464FF00001104BD3E9002313
:106AF000861841EB0307CDE900670D4BD3E900236E
:106B0000DDE90001994208BF904207D2DDE9002388
:106B100012F1807443F10005CDE90045DDE9002361
:106B20001046194603B0F0BDF82A0020002C0020C2
:106B3000082C002088B001900091019B0793009BD6
:106B40000693079BD3E90223CDE90423069BD3E9EF
:106B50000223CDE90223DDE90423DDE902019942A4
:106B600008BF90422CBF01230023DBB2184608B0B7
:106B70007047000030B585B00190019B5B69002B28
:106B800003D14349A52005F011FC00238DF80F30F7
:106B9000404B1B78002B75D0019B002B72D0FFF768
:106BA0009BFF019BD3E90223994208BF904258D32F
:106BB00000238DF80D300DF10D03184600F018FC80
:106BC000019B1B69002B06D101994FF0FF324FF05A
:106BD000FF33C1E902239DF80D30184600F01EFC7A
:106BE000019B5B69019A92691046984700238DF8D2
:106BF0000C3003AB184600F0FBFB019B1B69002B1C
:106C00001AD0019BD3E90223B3F1FF3F08BFB2F1D1
:106C1000FF3F11D0019BD3E90201019B1B691A467A
:106C20004FF00003841841EB0305019BC3E90245C3
:106C300001238DF80E3002E000238DF80E309DF810
:106C40000C30184600F0EAFB9DF80E30002B19D0EE
:106C5000019B1946104801F05FFA01238DF80F30AF
:106C600010E0019BD3E90223B3F1FF3F08BFB2F16B
:106C7000FF3F07D0019B1946074801F04DFA012359
:106C80008DF80F309DF80F30184605B030BD00BFAD
:106C900018D20300FC2B00200CD2030030B58BB0BF
:106CA000019000910D230993009B00221A70019B13
:106CB000D3E90223CDE90623FFF70EFFDDE9062322
:106CC000141A63EB0105CDE90445DDE90423012A2B
:106CD00073F1000318DB049BB3F5350F05D300F007
:106CE00009FB0246144B134400E0069B03934FF448
:106CF0009603039A0021114800F060FE0990099B59
:106D0000002B05D1012314E000210C4800F02EFFD8
:106D1000099B0D2B07D10198FFF72CFF03461A465C
:106D2000009B1A7004E006494FF4867005F03EFBA4
:106D3000002318460BB030BDFFFFB400F82A002036
:106D400018D2030000B583B0044801F01FFA019087
:106D5000019B184603B05DF804FB00BF0CD2030092
:106D600000B583B0044801F033FA0190019B184646
:106D700003B05DF804FB00BF0CD2030000B583B084
:106D8000FFF7E0FF0190019B002B06D001994FF027
:106D9000FF324FF0FF33C1E90223019B002BEFD1FB
:106DA00000BF00BF03B05DF804FB0000054BD3E952
:106DB000002312F1807043F10001024BC3E900018E
:106DC00000BF7047002C002010B582B00190124B1C
:106DD0001B68002B1DD0019800F0FDFE0446002129
:106DE000019800F0E9FE03461946204600F076FAC5
:106DF0000346B3F5960F04D3084940F2411005F05D
:106E0000D5FA054B1B681846FFF7B4FE024B00226B
:106E10001A6000BF02B010BDF82B002018D203008A
:106E200000B583B00190FFF757FE02460B460349B9
:106E3000C1E9002300BF03B05DF804FB082C00206B
:106E400000B587B00190FFF78BFF049000238DF809
:106E50001730049B002B58D0049BD3E90223B3F1D5
:106E6000FF3F08BFB2F1FF3F02D1FFF76BFF54E0D5
:106E70002E4B1B68002B03D101238DF817301DE02A
:106E8000049BD3E90201294B1B68D3E902239942F1
:106E900008BF904212D201238DF81730234B1B6894
:106EA000D3E90223B3F1FF3F08BFB2F1FF3F05D0A2
:106EB0001E4B1B6819461E4801F02EF99DF817302D
:106EC000002B2BD0FFF73EFF04900DF10F03194666
:106ED0000498FFF7E3FE0346002B12D0134B1B6808
:106EE000002B02D1019800F075FC104A049B13603E
:106EF0009DF80F3083F00103DBB2002BA3D000BF5D
:106F00000FE00A4B00221A609DE7084B1B68002B1C
:106F100006D1019800F074FC02E094E700BF00E0A5
:106F200000BF00BF07B05DF804FB00BFF82B0020D6
:106F30000CD2030000B587B001902B4A03AB194671
:106F4000104600F046FF059045E0059B1B78022B9C
:106F50002BD0022B2FDC002B02D0012B11D02AE0EA
:106F6000059B5B68D3E90223B3F1FF3F08BFB2F191
:106F7000FF3F22D0059B5B6819461C4801F0CCF806
:106F80001BE0059B5A681A4B1B689A4203D1184BA9
:106F900000221A6012E0059B5B681946134801F055
:106FA0002BF903468DF8133008E0FFF7E7FE114B8D
:106FB00001221A7002E000BF00E000BF0A4A03ABE2
:106FC0001946104600F01EFF074A03AB194610464B
:106FD00000F0FFFE0590059B002BB6D100BF00BF5F
:106FE00007B05DF804FB00BF682C00200CD2030042
:106FF000F82B0020FC2B002000B583B001900198F5
:1070000000F0A7FD0346002B01D0FFF7CFFE0021C3
:10701000019800F0BCFD0346002B02D00198FFF759
:10702000D3FE0121019800F0B2FD0346002B02D0EF
:107030000198FFF7F5FE0198FFF77CFF0198FFF735
:10704000FFFE00BF03B05DF804FB000008B5024876
:1070500000F0CEFD00BF08BDF82A002000B585B0C5
:10706000034600918DF80730114A02AB19461046CD
:1070700000F082FE0390039B002B13D0039B9DF82E
:1070800007201A70039B009A5A60094A02AB1946FE
:10709000104600F08AFE0346002B01D0FFF7D6FF12
:1070A000002300E00423184605B05DF804FB00BF90
:1070B000682C002000B583B0164B1B68009316485F
:1070C00008235822154900F024FE0190019B002B53
:1070D00001D0019B19E06B46114A1946114800F096
:1070E00019FB0190019B002B01D0019B0DE00121B8
:1070F0000C4800F01DFD01230B4A0121094800F056
:1071000095FB0A4B01221A70019B184603B05DF8EB
:1071100004FB00BF60D20300682C0020102C00206C
:10712000F96F0200F82A0020FFFF7F00FC2B0020EF
:1071300000B587B003900B4601928DF80B30039B8E
:10714000002B04D1164940F25A2005F02FF9019B7B
:10715000002B04D1124940F25B2005F027F9019B76
:10716000002B01D1072317E0039B1B6805930599AA
:107170004FF0FF324FF0FF33C1E90223059B019A24
:107180005A619DF80B30012B0CBF01230023DBB2A9
:107190001A46059B1A610023184607B05DF804FBE8
:1071A00018D2030030B589B0039002910192039B7D
:1071B000002B04D1254940F26B2005F0F7F8039B22
:1071C000069300238DF817300DF11703184600F0D1
:1071D0000FF9069BD3E90223B3F1FF3F08BFB2F1D9
:1071E000FF3F0FD1FFF778FC029B1A464FF00003D8
:1071F000841841EB0305069BC3E9024501238DF882
:107200001F3002E000238DF81F309DF8173018461C
:1072100000F004F99DF81F3083F00103DBB2002B6E
:1072200001D000230EE0069B019A9A61069B1B6920
:10723000002B02D0069B029A1A6106990020FFF7E4
:107240000DFF0346184609B030BD00BF18D2030039
:1072500000B587B00190019B002B04D11E4940F27C
:10726000932005F0A3F8019B049300238DF80F30C1
:107270000DF10F03184600F0BBF8049BD3E902237D
:10728000B3F1FF3F08BFB2F1FF3F03D100238DF8F8
:10729000173009E004994FF0FF324FF0FF33C1E996
:1072A000022301238DF817309DF80F30184600F0A7
:1072B000B5F89DF8173083F00103DBB2002B01D045
:1072C000002304E004990120FFF7C8FE0346184696
:1072D00007B05DF804FB00BF18D2030082B0019034
:1072E0000091019A009BD31A23F07F43184602B005
:1072F0007047000008B5034800F06DFC03461846CF
:1073000008BD00BFF82A002082B0EFF3108300937D
:10731000009B019372B600BF019B184602B07047F4
:1073200062B600BF00BF704700B585B00190FFF79F
:10733000EBFF0390164B9B68002B1BD1144B0122D3
:107340009A60144BD3F88020134B1340104A1360FB
:10735000104B114AC3F880200E4BD3F884300C4AEE
:1073600053600C4B4FF0FF32C3F88420019B002286
:107370001A7002E0019B01221A70039B002B01D1BD
:10738000FFF7CEFF0023184605B05DF804FB00BFF1
:107390007C2C002000E100E0FC06FFBD00B585B0BC
:1073A00003468DF80730104B9B68002B16D09DF8D4
:1073B0000730002B12D1FFF7A7FF03900B4A0A4BAF
:1073C0001B681360094A084B5B685360064B002238
:1073D0009A60039B002B01D1FFF7A2FF0023184600
:1073E00005B05DF804FB00BF7C2C002000E100E04C
:1073F00000B583B0019000F02BF80346012B03D0B9
:107400000549432004F0D2FF0198FFF78DFF00BF2C
:1074100003B05DF804FB00BF64D2030000B583B085
:1074200003468DF8073000F013F80346012B03D014
:107430000649512004F0BAFF9DF807301846FFF7BF
:10744000ADFF00BF03B05DF804FB00BF64D20300D2
:1074500084B0EFF305830193019BC3F30803039307
:10746000039B002B0DD1EFF314830093009B029339
:10747000029B03F00103002B0CBF01230023DBB2AE
:1074800000E00123184604B07047000082B00346B4
:107490008DF807309DF90730002B0CDB9DF8073085
:1074A00003F01F0205499DF907305B09012000FA2E
:1074B00002F241F8232000BF02B0704700E100E073
:1074C00082B003468DF807309DF90730002B0DDBA5
:1074D0009DF8073003F01F0206499DF907305B094C
:1074E000012000FA02F2403341F8232000BF02B02D
:1074F000704700BF00E100E082B0034600918DF8C4
:1075000007309DF90730002B0ADB009BDAB20C49EB
:107510009DF907305201D2B20B4483F800230BE0EF
:10752000009BDAB207499DF8073003F00F03043BD4
:107530005201D2B20B441A7600BF02B0704700BFAE
:1075400000E100E000ED00E000B583B003460A462C
:107550008DF8073013468DF806309DF80630012B64
:1075600003D99DF80630032B0BD99DF80630042B68
:1075700003D99DF80630072B03D908496B2004F086
:1075800015FF9DF806209DF9073011461846FFF7B4
:10759000B3FF00BF03B05DF804FB00BFB0D203002F
:1075A00000B583B003468DF807309DF907301846C3
:1075B000FFF76CFF00BF03B05DF804FB00B585B0BA
:1075C0000190019B002B0AD0074B43F0010303936A
:1075D000019B9B010293039B0298984700E000BF28
:1075E00005B05DF804FB00BF60D3030084B00390D6
:1075F00002910192039B029A02F5A872019943F845
:10760000221000BF04B0704782B001900091019B2E
:10761000009A02F5A87253F82230184602B070475B
:1076200082B001900091019B009AC3F8042300BF2F
:1076300002B0704782B001900091019B009AC3F89C
:10764000082300BF02B0704782B001900B46ADF82E
:107650000230BDF80230019A13441B68184602B08C
:10766000704784B001900B46ADF80230BDF802308F
:10767000019A134400221A60BDF80230019A1344A3
:107680001B680393039B00BF04B0704782B0019056
:10769000019BD3F80435184602B0704700B583B09B
:1076A00001900091009BB3F5805F04D306494FF42D
:1076B000BE7004F07BFE019B009AC3F8082500BF52
:1076C00003B05DF804FB00BFE0D2030082B001907C
:1076D0000B468DF803309DF80320019B13441A4696
:1076E0000123136000BF02B0704782B00190009187
:1076F000019B009AC3F8442300BF02B0704782B0D8
:1077000001900091019B009AC3F8482300BF02B08A
:107710007047000000B587B0039002910192039B6F
:10772000002B03D12849552004F040FE029B002B7A
:1077300003D12549562004F039FE019B002B03D1CB
:107740002149572004F032FE039B5B7919461F4AFA
:10775000019B42F82130039B5B791D4ADB001344F7
:107760001B79002B03D008230593059B27E0039B7F
:107770001A68029B1B8819461046FFF78FFF039B70
:1077800093F90420029B9B7819461046FFF7DCFE14
:10779000039B93F904301846FFF702FF039B5B79C4
:1077A0000B4ADB00134401221A71039B5B791946D3
:1077B000074A039B42F8313000230593059B184686
:1077C00007B05DF804FB00BF10D30300882C002035
:1077D0008C2C002000B583B00190019B002B03D1BD
:1077E0000649872004F0E2FD019B1B680021184632
:1077F000FFF76CFF00BF03B05DF804FB10D303007C
:1078000000B583B00190019B002B03D106498D2068
:1078100004F0CCFD019B1B6804211846FFF756FFBE
:1078200000BF03B05DF804FB10D3030000B587B0C0
:107830000390029101928DF80330039B002B03D13A
:107840002149962004F0B2FD4FF48032029B02FAE7
:1078500003F30593029B50339BB29B00ADF81230AB
:10786000019B23F07F430193039B1B6805991846F6
:10787000FFF7E0FE039B1B6805991846FFF73FFFE3
:10788000039B1B68BDF8122011461846FFF7E9FE5E
:10789000039B1B68019A02991846FFF7A7FE039BFA
:1078A0001B6805991846FFF720FF9DF80330002B51
:1078B00005D0039B1B6805991846FFF7B1FE00BF72
:1078C00007B05DF804FB00BF10D3030000B585B01E
:1078D0000390029113468DF80730039B002B03D1D0
:1078E0000B49A92004F062FD039B1B68029918460E
:1078F000FFF7FBFE9DF80730002B05D0039B1B68AC
:1079000002991846FFF78CFE00BF05B05DF804FB36
:1079100010D3030000B583B001900091019B002BB0
:1079200003D10A49B32004F041FD019B1B68009973
:107930001846FFF7E4FE019B1B6800991846FFF705
:1079400079FE00BF03B05DF804FB00BF10D3030055
:1079500000B583B001900B46ADF80230019B002BBF
:1079600003D10F49BA2004F021FD019B1B68BDF82B
:10797000022011461846FFF767FE0346002B09D088
:10798000019B1B68BDF8022011461846FFF769FEEF
:10799000012300E00023184603B05DF804FB00BF9C
:1079A00010D3030082B001900091019A009BD31A7A
:1079B00023F07F43184602B07047000000B58BB03B
:1079C0000390029101920093039B002B03D157492E
:1079D000CD2004F0EBFC4FF48032029B02FA03F35B
:1079E0000993029B50339BB29B00ADF82230019B60
:1079F00023F07F43019309990398FFF78BFF039BC3
:107A00001B681846FFF742FE0790039B1B6802990C
:107A10001846FFF7F9FD0690039B1B68079A029929
:107A20001846FFF7E3FD039B1B68BDF822201146B3
:107A30001846FFF716FE07990698FFF7B3FF0346AF
:107A4000012B0AD11020FFF7B9FD039B1B68BDF87D
:107A5000222011461846FFF704FE039B1B681846B8
:107A6000FFF714FE079007990198FFF79BFF059019
:107A7000039B1B6809991846FFF737FE059B012BEE
:107A800015D1039B1868019B01331A460299FFF731
:107A9000ADFD1020FFF792FD039B1B681846FFF712
:107AA000F5FD0246079B934235D00D2339E0039B39
:107AB0001B68019A02991846FFF798FD039B1B6803
:107AC0001846FFF7E3FD0790019B013B0799184615
:107AD000FFF768FF0590009BC3F1FF1303F57F4399
:107AE000059A9A4201D90D231BE0059B002B12D168
:107AF000039B1868019B01331A460299FFF776FD34
:107B0000039B1B681846FFF7C1FD0246079B934283
:107B100001D00D2305E0012209990398FFF7D6FE55
:107B2000002318460BB05DF804FB00BF10D3030020
:107B300000B583B001900B468DF803309DF80330FB
:107B40001A4602210198FFF7C1FE00BF03B05DF89D
:107B500004FB00B583B001904FF482710198FFF7E8
:107B6000F7FE0346184603B05DF804FB00B583B08A
:107B7000019000914FF48032009B02FA03F3194602
:107B80000198FFF7C7FE00BF03B05DF804FB00B526
:107B900085B001900091009B50339BB29B00ADF8E3
:107BA0000E30BDF80E3019460198FFF7D1FE03469E
:107BB000184605B05DF804FB00B583B00190009154
:107BC000019B1B6800991846FFF71EFD03461846E7
:107BD00003B05DF804FB00B583B00190019B1B6806
:107BE0001846FFF753FD0346184603B05DF804FB43
:107BF00000B583B00190019B93F904301846FFF75C
:107C00005FFC00BF03B05DF804FB000008B5044B47
:107C10001B68044A12681046984700BF08BD00BFA1
:107C2000882C00208C2C002086B001900091019BB4
:107C300053E8011F8AB2D88902449889824228BF3A
:107C4000121A1889824202BFBFF32F8F002307E068
:107C5000C2EA010243E801200028E9D14FF0010304
:107C60008DF80F30059002910492029A009B1A60E1
:107C70009DF80F30DBB2184606B0704784B0019013
:107C8000019951E8013FC3EA034341E80132002A68
:107C9000F7D10392029300BF04B0704786B0019001
:107CA0000091019B53E8021F1FFAA1F2D88882427B
:107CB00002BFBFF32F8F00230DE0D88902449889BB
:107CC000824228BF121AC1EA024243E80220002879
:107CD000E8D14FF001038DF80F3005900291049226
:107CE000029A009B1A609DF80F30DBB2184606B06E
:107CF000704784B00190019951E8023FC3EA2343E1
:107D000041E80232002AF7D10392029300BF04B087
:107D1000704784B00390029111461A460B46ADF8A5
:107D200006301346ADF80430029B002B01D10E2320
:107D30001FE0BDF80630BDF80420B3FBF2F102FBF2
:107D400001F29B1A9BB2002B01D0092311E0039B87
:107D5000029A1A60039B00225A60039B00229A60D9
:107D6000039BBDF806209A81039BBDF80420DA81AD
:107D70000023184604B0704700B585B0019000910B
:107D8000009B19460198FFF74FFF0346002B07D0D1
:107D9000019B1B68009A128813440393039B00E025
:107DA0000023184605B05DF804FB00B583B00190D0
:107DB0000091009B1A88009B5B889A4204D101982D
:107DC000FFF75CFF012300E00023184603B05DF8D5
:107DD00004FB00B585B001900091009B1946019805
:107DE000FFF75CFF0346002B07D0019B1B68009A3E
:107DF000528813440393039B00E00023184605B008
:107E00005DF804FB00B583B001900091009B1A88D7
:107E1000009B5B889A4204D10198FFF76AFF012317
:107E200000E00023184603B05DF804FB00B585B000
:107E300001900091009B5B099B00019A1A44009BF2
:107E400003F01F03012101FA03F31946104600F065
:107E500036F8039000BF05B05DF804FB00B585B0AF
:107E600001900091009B5B099B00019A1A44009BC2
:107E700003F01F03012101FA03F3DB431946104607
:107E800000F035F8039000BF05B05DF804FB82B048
:107E900001900091009B5B099B00019A13441A68B2
:107EA000009B03F01F0322FA03F303F00103002BEE
:107EB00014BF01230023DBB2184602B0704710B490
:107EC00087B001900091019B009A53E8004F44EA6B
:107ED000020043E8000191F0000FF6D105940490F0
:107EE0000391049B184607B05DF8044B704710B42B
:107EF00087B001900091019B009A53E8004F04EA7B
:107F0000020043E8000191F0000FF6D105940490BF
:107F10000391049B184607B05DF8044B70470000BE
:107F200082B003468DF807309DF90730002B0DDB3A
:107F30009DF8073003F01F0206499DF907305B09E1
:107F4000012000FA02F2603341F8232000BF02B0A2
:107F5000704700BF00E100E000B583B00190019BD5
:107F6000002B03D10649722004F020FA019B002265
:107F70001A60BFF35F8F00BF00BF03B05DF804FB62
:107F8000BCD3030041DF704700BF184600B585B081
:107F900000238DF803300DF103031846FFF728FA8C
:107FA000F1EE103A0193019B0393039B23F09F038F
:107FB0000293029BE1EE103A00BFBFF35F8F00BF58
:107FC0002620FFF7ADFF9DF803301846FFF726FA8D
:107FD000039B03F00703002B03D004497D2004F02A
:107FE000E5F900BF05B05DF804FB00BFF4D3030062
:107FF00008B5064B00221A700548FFF7ADFF05498A
:10800000054800F02DF80023184608BD982C0020E4
:10801000942C002040D403009C2C002000B583B099
:10802000FFF7B4FF14F084F90346002B0ED0FFF7DE
:10803000A9FF0190019B002B0BD0019B022B08D0C4
:1080400006494FF4B07004F0B1F902E020BF40BF20
:1080500020BF00BF03B05DF804FB00BFF4D30300F2
:1080600000B583B001900091019B002B03D1104912
:10807000502004F09BF9009B002B03D10C495120A8
:1080800004F094F9019B009A1A60019B1B681A681E
:10809000019B5A60019B5A68019B1B685B689A426E
:1080A00002D1019B00225A6000BF03B05DF804FBBF
:1080B0004CD4030000B583B00190019B002B03D189
:1080C0001449632004F072F9019B1B68002B03D153
:1080D0001049642004F06AF9019B5B68002B14D0FE
:1080E000019B5B681A46019B1B689B6813441A46F8
:1080F000019B5A60019B5A68019B1B685B689A420E
:1081000004D1019B00225A6000E000BF03B05DF87B
:1081100004FB00BF4CD4030000B585B00190009172
:10812000019B002B03D118493A2004F03FF9009B32
:10813000002B03D114493B2004F038F9019B5B6804
:1081400003930FE0019B9B68039A12680099104605
:108150009847034683F00103DBB2002B07D1039B52
:108160001B680393039B1B68002BEBD100E000BF4F
:10817000039B1A68009B1A60039B009A1A6000BF59
:1081800005B05DF804FB00BFACD4030000B585B0BA
:108190000190019B002B03D10C49512004F006F9FA
:1081A000019B5B681B680393019B5B681B68002B4A
:1081B00006D0019B5B681A68019B5B6812681A60B5
:1081C000039B184605B05DF804FB00BFACD4030068
:1081D00000B583B00190019B002B03D105495D20C0
:1081E00004F0E4F8019B5B681B68184603B05DF877
:1081F00004FB00BFACD4030000B585B00190009132
:10820000019B002B03D11649692004F0CFF8009B95
:10821000002B03D112496A2004F0C8F800238DF81E
:108220000F30019B5B6802930FE0029B1B68009A72
:108230009A4207D1009B1A68029B1A6001238DF8AD
:108240000F3006E0029B1B680293029B1B68002B09
:10825000EBD19DF80F30184605B05DF804FB00BF68
:10826000ACD40300BFF34F8F00BF064BDB6803F4B1
:10827000E0620449044B1343CB60BFF34F8F00BF50
:1082800000BFFDE700ED00E00400FA0582B01D4BE1
:108290001B68B3F1FF3F0AD11B4B1B68DBB2019394
:1082A0001A4B1B681B0903F00F03009305E0154BE5
:1082B0001B680193164B1B680093019B062B1DD175
:1082C000009B033B042B17D801A252F823F000BFF8
:1082D000E5820200E9820200ED820200F1820200E2
:1082E000F582020001230AE0012308E0012306E0F1
:1082F000012304E0012302E0012300E000231846EB
:1083000002B0704730010010E00F00F0E80F00F0FD
:108310003401001082B0174B1B68DBB20193164B7F
:108320001B681B0903F00F030093019B062B1DD153
:10833000009B033B042B17D801A252F823F000BF87
:1083400055830200598302005D83020061830200AD
:108350006583020001230AE0002308E0002306E011
:10836000002304E0002302E0002300E0002318467D
:1083700002B07047E00F00F0E80F00F082B01D4B34
:108380001B68B3F1FF3F0AD11B4B1B68DBB20193A3
:108390001A4B1B681B0903F00F03009305E0154BF4
:1083A0001B680193164B1B680093019B062B1DD184
:1083B000009B033B042B17D801A252F823F000BF07
:1083C000D5830200D9830200DD830200E18302002D
:1083D000E583020001230AE0012308E0012306E00F
:1083E000012304E0012302E0012300E000231846FA
:1083F00002B0704730010010E00F00F0E80F00F00D
:108400003401001082B0174B1B68DBB20193164B8E
:108410001B681B0903F00F030093019B062B1DD162
:10842000009B033B042B17D801A252F823F000BF96
:1084300045840200498402004D84020051840200F8
:108440005584020001230AE0002308E0002306E02F
:10845000002304E0002302E0002300E0002318468C
:1084600002B07047E00F00F0E80F00F082B01D4B43
:108470001B68B3F1FF3F0AD11B4B1B68DBB20193B2
:108480001A4B1B681B0903F00F03009305E0154B03
:108490001B680193164B1B680093019B062B1DD193
:1084A000009B033B042B17D801A252F823F000BF16
:1084B000C5840200C9840200CD840200D184020078
:1084C000D584020001230AE0012308E0012306E02D
:1084D000012304E0012302E0012300E00023184609
:1084E00002B0704730010010E00F00F0E80F00F01C
:1084F0003401001082B0174B1B68DBB20193164B9E
:108500001B681B0903F00F030093019B062B1DD171
:10851000009B033B042B17D801A252F823F000BFA5
:1085200035850200398502003D8502004185020043
:108530004585020001230AE0002308E0002306E04D
:10854000002304E0002302E0002300E0002318469B
:1085500002B07047E00F00F0E80F00F082B0174B58
:108560001B68DBB20193164B1B681B0903F00F035A
:108570000093019B062B1DD1009B033B042B17D8B6
:1085800001A252F823F000BF9D850200A1850200E0
:10859000A5850200A9850200AD85020001230AE03D
:1085A000002308E0002306E0002304E0002302E0AB
:1085B000002300E00023184602B07047E00F00F0EF
:1085C000E80F00F082B01D4B1B68B3F1FF3F0AD1EA
:1085D0001B4B1B68DBB201931A4B1B681B0903F092
:1085E0000F03009305E0154B1B680193164B1B68A6
:1085F0000093019B062B1DD1009B033B042B17D836
:1086000001A252F823F000BF1D860200218602005D
:1086100025860200298602002D86020000230AE03A
:10862000002308E0012306E0012304E0012302E027
:10863000012300E00023184602B07047300100100B
:10864000E00F00F0E80F00F03401001082B01D4B85
:108650001B68B3F1FF3F0AD11B4B1B68DBB20193D0
:108660001A4B1B681B0903F00F03009305E0154B21
:108670001B680193164B1B680093019B062B1DD1B1
:10868000009B033B042B17D801A252F823F000BF34
:10869000A5860200A9860200AD860200B18602000E
:1086A000B586020001230AE0012308E0012306E069
:1086B000012304E0012302E0012300E00023184627
:1086C00002B0704730010010E00F00F0E80F00F03A
:1086D0003401001082B01D4B1B68B3F1FF3F0AD17B
:1086E0001B4B1B68DBB201931A4B1B681B0903F081
:1086F0000F03009305E0154B1B680193164B1B6895
:108700000093019B062B1DD1009B033B042B17D824
:1087100001A252F823F000BF2D870200318702002A
:1087200035870200398702003D87020001230AE0F5
:10873000012308E0012306E0012304E0012302E015
:10874000012300E00023184602B0704730010010FA
:10875000E00F00F0E80F00F03401001082B0154B7C
:108760001B680193144B1B680093019B062B1DD1C2
:10877000009B033B042B17D801A252F823F000BF43
:1087800095870200998702009D870200A187020059
:10879000A587020000230AE0002308E0002306E08A
:1087A000012304E0012302E0012300E00023184636
:1087B00002B07047300100103401001082B0154B38
:1087C0001B680193144B1B680093019B062B1DD162
:1087D000009B033B042B17D801A252F823F000BFE3
:1087E000F5870200F9870200FD8702000188020078
:1087F0000588020000230AE0002308E0002306E0C9
:10880000002304E0012302E0012300E000231846D6
:1088100002B07047300100103401001008B5FFF7B6
:10882000CDFF0346002B07D04FF010234FF08042BE
:10883000D3F80832C2F8583500BF08BD00BF044B5A
:10884000D3F80034002BFAD000BF00BF704700BF40
:1088500000E0014000B583B00190054A019BC2F8D9
:108860000435FFF7EBFF00BF03B05DF804FB00BF6A
:1088700000E00140024B034A1A6000BF704700BF8E
:10888000002B00200090D00308B5FFF7FFFC034643
:10889000002B06D0964B1B681B0A964A03F01F0359
:1088A0001360FFF737FD0346002B02D0924B934A2B
:1088B0001A60FFF763FD0346002B06D0904B1B6840
:1088C0005B0B904A03F007031360FFF79BFD034621
:1088D000002B05D08C4BDB688B4A23F08073D36070
:1088E000FFF7C4FD0346002B0ED04FF0804300225B
:1088F000C3F80C214FF080430022C3F810214FF041
:1089000080430022C3F83825FFF7F4FD0346002B0F
:1089100002D07E4B03221A60FFF720FE0346002B95
:108920000BD07B4B05221A607A4B01221A607A4BDE
:1089300000221A60794B3F221A60FFF743FE03467C
:10894000002B76D04FF08053754AD3F80434C2F828
:1089500020354FF08053724AD3F80834C2F82435DA
:108960004FF080536E4AD3F80C34C2F828354FF0DC
:1089700080536B4AD3F81034C2F82C354FF0805333
:10898000674AD3F81434C2F830354FF08053644A44
:10899000D3F81834C2F834354FF08053604AD3F816
:1089A0001C34C2F840354FF080535D4AD3F8203470
:1089B000C2F844354FF08053594AD3F82434C2F8F2
:1089C00048354FF08053564AD3F82834C2F84C3516
:1089D0004FF08053524AD3F82C34C2F850354FF040
:1089E00080534F4AD3F83034C2F854354FF0805397
:1089F0004B4AD3F83434C2F860354FF08053484ABC
:108A0000D3F83834C2F864354FF08053444AD3F871
:108A10003C34C2F868354FF08053414AD3F84034B3
:108A2000C2F86C354FF080533D4AD3F84434C2F855
:108A30007035FFF70BFE0346002B05D0394B1B6842
:108A4000394A03F04F031360FFF744FE0346002B3F
:108A50000DD04FF08043D3F8003403F00103002B16
:108A600005D04FF080436FF00102C3F80024FFF7F8
:108A700075FE0346002B05D02C4B1B682B4A43F494
:108A8000806313602A4BD3F88830294A43F470037B
:108A9000C2F88830BFF34F8F00BFBFF36F8F00BFA6
:108AA000FFF7BCFE4FF01023D3F80032002B05DB9C
:108AB0004FF01023D3F80432002B15DA0120FFF712
:108AC000C9FE4FF010231522C3F80022FFF7B6FEAF
:108AD0004FF010231522C3F80422FFF7AFFE002049
:108AE000FFF7B8FEFFF7BEFBFFF7C4FE00BF08BDEF
:108AF000240300104035014074C007400DF0ADBAAA
:108B0000440200103C050040F0ED00E0A0050040EC
:108B10001056004088560040185600401456004039
:108B200000C0004058020010E40E00403C17004016
:108B300000ED00E000B583B00190019B1B68184672
:108B400000F011F90346002B04D105494FF4F670EB
:108B500003F02CFC4FF0A043184603B05DF804FB73
:108B6000F8D4030000B585B00190084611461A46B6
:108B700003468DF803300B468DF8023013468DF80E
:108B8000013001AB1846FFF7D5FF03909DF8032095
:108B90009DF802305B001A439DF801309B001A4398
:108BA0009DF818301B0242EA03019DF81C301B049B
:108BB000019A1943039B02F5E07243F8221000BFAB
:108BC00005B05DF804FB00B585B003900023019368
:108BD000002300930023012201210398FFF7C2FF25
:108BE00000BF05B05DF804FB00B585B003900B46EF
:108BF0008DF80B309DF80B3000220192002200927C
:108C0000002200210398FFF7ADFF00BF05B05DF81B
:108C100004FB00B585B0019001AB1846FFF78AFF51
:108C20000390019B012202FA03F31946039800F016
:108C300086F800BF05B05DF804FB00B585B0019073
:108C400001AB1846FFF776FF0390019B012202FA61
:108C500003F31946039800F07CF800BF05B05DF8F7
:108C600004FB00B585B0019001AB1846FFF762FF29
:108C70000390039BD3F804350293029BDA43019BD4
:108C8000012101FA03F31A40039BC3F80825019B55
:108C900001229A40029B1A40039BC3F80C2500BF97
:108CA00005B05DF804FB00B583B001900091009B16
:108CB000002B03D10198FFF7C0FF02E00198FFF7F6
:108CC000A8FF00BF03B05DF804FB00B585B00190BC
:108CD00001AB1846FFF72EFF0390039800F01FF832
:108CE0000246019B22FA03F303F00103184605B084
:108CF0005DF804FB00B585B0019001AB1846FFF7A5
:108D000019FF0390039800F012F80246019B22FA23
:108D100003F303F00103184605B05DF804FB82B0CD
:108D20000190019BD3F81035184602B0704782B00D
:108D30000190019BD3F80435184602B0704782B009
:108D400001900091019B009AC3F8082500BF02B072
:108D5000704782B001900091019B009AC3F80C25E6
:108D600000BF02B0704784B00190019B5B09029381
:108D700000230393029B002B03D14FF0FF33039397
:108D800000BF019B03F01F030193039A019B22FA8A
:108D900003F303F00103002B14BF01230023DBB214
:108DA000184604B07047000000B585B00190019BE3
:108DB000002B03D00F493A2003F0F8FA0423184699
:108DC000FFF798FF0346002B14BF012300238DF803
:108DD0000F309DF80F30002B14BF01230023DBB2AE
:108DE00083F00103DBB203F00103DBB2184605B0E8
:108DF0005DF804FB28D5030000B583B00190019B0A
:108E0000002B03D00649412003F0D0FA04230021AF
:108E10001846FFF748FF00BF03B05DF804FB00BF32
:108E200028D5030000B583B00190019B002B03D02F
:108E30000649472003F0BAFA042301211846FFF738
:108E400032FF00BF03B05DF804FB00BF28D503006C
:108E500000B583B00023019305E00198FFF7E2FF1E
:108E6000019B01330193019B002BF6D000BF00BF93
:108E700003B05DF804FB00B583B00023019305E067
:108E80000198FFF7B9FF019B01330193019B002B70
:108E9000F6D000BF00BF03B05DF804FB00B583B09F
:108EA0000190019B002B03D005495F2003F07EFA5F
:108EB00004231846FFF7D5FE00BF03B05DF804FB9E
:108EC00028D5030000B583B00023019306E00423F6
:108ED0001846FFF778FE019B01330193019B002B9D
:108EE000F5D0FFF7B5FF00BF03B05DF804FB00004D
:108EF00000B585B00190019B002B03D00F49AC2039
:108F000003F054FA05231846FFF7DFFE0346002B53
:108F100014BF012300238DF80F309DF80F30002B74
:108F200014BF01230023DBB283F00103DBB203F0A3
:108F30000103DBB2184605B05DF804FB28D5030039
:108F400000B583B00023019307E0052303211846F1
:108F5000FFF74AFE019B01330193019B002BF4D0E4
:108F600000BF00BF03B05DF804FB84B001904FF078
:108F7000FF330293002303930AE005231A46019B63
:108F8000934202D1039B029305E0039B01330393B9
:108F9000039B002BF1D0029B184604B0704700B52C
:108FA00083B00190019B03F00103002B01D0FFF778
:108FB00089FF019B03F00203002B01D0FFF7C0FFE4
:108FC00000BF03B05DF804FB00B585B00190019BC4
:108FD000002B0AD0074B43F001030393019B9B0135
:108FE0000293039B0298984700E000BF05B05DF82C
:108FF00004FB00BFA0D5030000B583B00190019B26
:109000001B68184600F069F80346002B04D1054997
:109010004FF4F67003F0CAF94FF0A043184603B0BE
:109020005DF804FB64D5030000B585B0019001AB89
:109030001846FFF7E1FF0390019B012202FA03F3B8
:109040001946039800F035F800BF05B05DF804FB41
:1090500000B585B0019001AB1846FFF7CDFF039036
:10906000019B012202FA03F31946039800F02BF842
:1090700000BF05B05DF804FB00B585B0019001AB01
:109080001846FFF7B9FF0390039800F00AF802466C
:10909000019B22FA03F303F00103184605B05DF8C3
:1090A00004FB82B00190019BD3F81035184602B042
:1090B000704782B001900091019B009AC3F8082587
:1090C00000BF02B0704782B001900091019B009AEE
:1090D000C3F80C2500BF02B0704784B00190019B1B
:1090E0005B09029300230393029B002B03D14FF0F3
:1090F000FF33039300BF019B03F01F030193039A07
:10910000019B22FA03F303F00103002B14BF012398
:109110000023DBB2184604B0704700B585B001905B
:109120004FF0A042019B1B6803F5E07340F20C6115
:1091300042F823104FF0A042019B5B6803F5E073F7
:1091400040F20C6142F82310019B1B681846FFF7A0
:109150006BFF019B5B681846FFF766FF4FF0A0426C
:10916000019B1B6803F5E07340F20D6142F8231088
:109170004FF0A042019B5B6803F5E07340F20D6184
:1091800042F823100420FFF71FFF002303931EE083
:10919000019B5B681846FFF76FFF0346002B03D067
:1091A000039B002B17D124E0019B1B681846FFF797
:1091B0004FFF0420FFF708FF019B1B681846FFF7CD
:1091C00033FF0420FFF700FF039B01330393039B4E
:1091D000082BDDDD00E000BF019B5B681846FFF750
:1091E00037FF0420FFF7F0FE019B5B681846FFF78E
:1091F0001BFF05B05DF804FB00B589B0019000913C
:10920000009B0793019B1B788DF80C30019B1B7909
:109210008DF81030019B5B798DF81130019B9B68B4
:10922000DBB28DF81230019BDB68DBB28DF81330B6
:10923000019B1B690593019B5B690693074A079B8A
:1092400052F823300649079A51F8221003AA104613
:10925000984700BF09B05DF804FB00BFA42C0020B4
:10926000AC2C002000B587B00390029101920093CE
:10927000039B1B7805931249059B019A41F8232013
:109280001049059B009A41F82320029B5B7B002B31
:1092900002D00298FFF741FF00230493039B181D9F
:1092A000019B002B01D0084A00E00022059B029997
:1092B00000F0C4FA0490049B184607B05DF804FB64
:1092C000A42C0020AC2C0020F991020082B00346AF
:1092D0008DF807309DF90730002B0CDB9DF8073027
:1092E00003F01F0205499DF907305B09012000FAD0
:1092F00002F241F8232000BF02B0704700E100E015
:1093000082B003468DF807309DF90730002B0DDB46
:109310009DF8073003F01F0206499DF907305B09ED
:10932000012000FA02F2603341F8232000BF02B0AE
:10933000704700BF00E100E082B0034600918DF865
:1093400007309DF90730002B0ADB009BDAB20C498D
:109350009DF907305201D2B20B4483F800230BE091
:10936000009BDAB207499DF8073003F00F03043B76
:109370005201D2B20B441A7600BF02B0704700BF50
:1093800000E100E000ED00E082B00190019B03F0FD
:109390006043B3F1005F0CBF01230023DBB218462A
:1093A00002B0704782B00190019B1B0B5BB2184664
:1093B00002B0704700B583B003460A468DF8073007
:1093C00013468DF806309DF80630012B03D99DF821
:1093D0000630032B0BD99DF80630042B03D99DF8DA
:1093E0000630072B03D908496B2002F0DFFF9DF8F8
:1093F00006209DF9073011461846FFF79DFF00BF74
:1094000003B05DF804FB00BFA8D5030000B583B02E
:1094100003468DF807309DF907301846FFF756FFD1
:1094200000BF03B05DF804FB00B583B003468DF8C0
:1094300007309DF907301846FFF762FF00BF03B001
:109440005DF804FB82B001900B468DF803309DF867
:109450000330019A134401221A6000BF02B0704722
:1094600084B001900B46ADF80230BDF80230019A8D
:10947000134400221A60BDF80230019A13441B689D
:109480000393039B00BF04B0704782B001900B466A
:10949000ADF80230BDF80230019A13441B68002B6E
:1094A00014BF01230023DBB2184602B0704782B01C
:1094B00001900091019B009AC3F8042300BF02B001
:1094C000704782B001900091019B009AC3F8082375
:1094D00000BF02B0704782B00190019B0622C3F822
:1094E000002500BF02B0704782B00190019B0022AE
:1094F000C3F8002500BF02B0704784B0039002910A
:109500000192039B029AC3F80825039B019AC3F8B2
:109510000C2500BF04B0704782B001900091019B00
:10952000009AC3F8242500BF02B0704784B00190B0
:10953000019BD3F8C4340393019B039AC3F8C4245A
:10954000039B184604B0704782B001900B468DF81B
:1095500003309DF80320019BC3F8882500BF02B0AB
:10956000704784B0039002910192029A039BC3F862
:109570004425039B019AC3F8482500BF04B07047F7
:1095800084B0039002910192029A039BC3F83425A0
:10959000039B019AC3F8382500BF04B0704782B01E
:1095A00001900091019B009AC3F8002200BF02B015
:1095B000704782B00190019BD3F84C35184602B039
:1095C000704782B00190019BD3F80032184602B078
:1095D000704782B00190019BD3F83C35184602B029
:1095E000704782B00190019B0122C3F8502500BF53
:1095F00002B0704782B00190019B0022C3F8502551
:1096000000BF02B0704782B00190019B0122C3F8F5
:10961000402500BF02B0704782B00190019B00223C
:10962000C3F8402500BF02B07047000000B583B00A
:109630000190019B1B68184600F041F80346002B7F
:1096400004D105494FF4F67002F0B0FE4FF0A0438C
:10965000184603B05DF804FBD8D5030000B585B00B
:109660000190084611461A4603468DF803300B4612
:109670008DF8023013468DF8013001AB1846FFF724
:10968000D5FF03909DF803209DF802305B001A433C
:109690009DF801309B001A439DF818301B0242EAE6
:1096A00003019DF81C301B04019A1943039B02F52A
:1096B000E07243F8221000BF05B05DF804FB84B0EF
:1096C0000190019B5B09029300230393029B002BF3
:1096D00003D14FF0FF33039300BF019B03F01F033F
:1096E0000193039A019B22FA03F303F00103002B79
:1096F00014BF01230023DBB2184604B0704784B0C6
:10970000019003230393019B03F00103002B02D07C
:109710004FF402430393019B03F00203002B02D09A
:1097200048F201230393019B03F00403002B02D0B2
:1097300048F202230393039B184604B070470000CD
:1097400000B585B00190009101238DF80F30009B8A
:109750001B7B032B56D801A252F823F0D5970200A9
:10976000ED970200AD9702006D970200009B9B6889
:1097700003F48023002B07D00198FFF71AFF02465D
:10978000009B1B699A420DD1009B9B6803F48023C8
:10979000002B39D10198FFF70CFF0246009B5B6953
:1097A0009A4231D000238DF80F302DE00198FFF759
:1097B00000FF0246009B1B699A4207D10198FFF700
:1097C00008FF0246009B5B699A421FD000238DF878
:1097D0000F301BE00198FFF7ECFE0246009B1B696F
:1097E0009A4215D000238DF80F3011E00198FFF751
:1097F000F0FE0246009B1B699A420BD000238DF8B5
:109800000F3007E000BF06E000BF04E000BF02E049
:1098100000BF00E000BF9DF80F3083F00103DBB212
:10982000002B05D00198FFF75FFE0198FFF753FE6C
:109830009DF80F30184605B05DF804FB00B58BB0FD
:109840000590049103920293049B002B03D14A4993
:10985000E72002F0ABFD049B1A68049B5B689A4208
:1098600003D14549E82002F0A1FD059B1B791A466A
:10987000342303FB02F3414A13440993099B93F8F1
:109880002D30002B03D008230793079B70E0059B26
:109890001A68059B1B791946394B53F82130194634
:1098A000104601F05DFF0346002B03D01123079300
:1098B000079B5DE0099B039A1A60099B029A5A6014
:1098C000099B00229A60099B002283F83020099BA3
:1098D000002283F82F20049B5A7B099B83F83220B7
:1098E000049B18680023019306230093032300229E
:1098F0000021FFF7B3FE049B586800230193062361
:109900000093032300220021FFF7A8FE059B1B689C
:109910000893049B1968049B5B681A460898FFF734
:10992000ECFD049B9B6819460898FFF7F5FD099B21
:109930001B68002B15D0059B1B681846FFF732FDEE
:1099400003461A46049B1B7B19461046FFF732FD5F
:10995000059B1B681846FFF725FD03461846FFF7D1
:1099600055FD099B012283F82D2000230793079BB7
:1099700018460BB05DF804FB08D60300B42C002099
:109980004CD6030000B585B00190019B1B791A46A7
:10999000342303FB02F30D4A13440393039B93F810
:1099A0002D30012B04D00A4940F24F1002F0FEFC8A
:1099B000019B1B681846FFF78EFD039B022283F86C
:1099C0002D2000BF05B05DF804FB00BFB42C0020C3
:1099D00008D6030000B583B001900091009B03F00E
:1099E0000103002B03D00198FFF7FBFD02E0019873
:1099F000FFF700FE009B03F00203002B03D0019849
:109A0000FFF701FE02E00198FFF706FE00BF03B07A
:109A10005DF804FB30B589B0039002910192009388
:109A20000023079308238DF81B30039B002283F843
:109A30002E20019BDB681846FFF7A6FC034683F047
:109A40000103DBB2002B03D010230793079BFDE13A
:109A50009D490298FFF735FD039B93F82F30DBB249
:109A6000002B09D0039B9B6819460298FFF71FFD46
:109A700011230793079BE9E1009B03F00403002BEC
:109A800006D1009B03F01003002B01D1012300E05D
:109A9000002303F00103DAB2039B83F82F20039B1A
:109AA000019A03F10C0415460FCD0FC42B682360F7
:109AB000009B1B0903F00103002B14BF01230023AB
:109AC000DAB2039B83F83020039B009A1A62019B51
:109AD0005B7819460298FFF737FD4FF482710298C0
:109AE000FFF7BEFC4FF492710298FFF7B9FC4FF4F8
:109AF000B0710298FFF7B4FC4FF4A4710298FFF71D
:109B0000AFFC00990298FFF765FF019B1B78032BC0
:109B100000F2DE8001A252F823F000BF4F9C020049
:109B2000979C0200F79B02002D9B0200009B03F014
:109B30001003002B04D065494FF4D97002F036FCB5
:109B4000009B03F00803002B04D0604940F2B310DF
:109B500002F02CFC009B03F00403002B04D05B49B3
:109B60004FF4DA7002F022FC019B1B691846FFF7E4
:109B70000BFC034683F00103DBB2002B03D0102360
:109B80000793079B62E14FF480710298FFF707FD8E
:109B9000019BD968019B5B681A460298FFF7E1FCBC
:109BA0004FF4A8710298FFF75BFC20210298FFF7A1
:109BB00049FC08210298FFF745FC00BF4FF4A8714B
:109BC0000298FFF762FC034683F00103DBB2002B2F
:109BD000F4D14FF4A8710298FFF742FC019B196978
:109BE000019B9B681A460298FFF7BBFC039B4FF44E
:109BF00080229A606FE0019BD968019B5B681A46DE
:109C00000298FFF7AEFC019B1B691846FFF7BCFBEF
:109C1000034683F00103DBB2002B03D0102307932C
:109C2000079B13E1019B1969019B9B681A460298E7
:109C3000FFF7A6FC4FF484510298FFF7B0FC039B9A
:109C400002229A6020210298FFF7FCFB43E0019B6F
:109C5000D968019B5B681A460298FFF782FC009B5B
:109C600003F02003002B09D04FF480710298FFF716
:109C700096FC039B4FF480229A6007E04FF400713A
:109C80000298FFF78CFC039B02229A602021029825
:109C9000FFF7D8FB1FE0019BD968019B5B681A4660
:109CA0000298FFF76DFC4FF480510298FFF777FCA4
:109CB000039B02229A6000238DF81B30202102981A
:109CC000FFF7C0FB07E000BF02029C0108D60300BB
:109CD0000723079300BF009B03F00803002B09D163
:109CE000019B1B78032B05D09DF81B301946029869
:109CF000FFF7A8FB039B1B68002B1FD0009B03F002
:109D00000403002B02D0039B00229A60009B03F007
:109D10004003002B05D1039B9B6843F00202039B89
:109D20009A60039B9B6843F40072039B9A60039BB9
:109D30009B6819460298FFF7BAFB86E000238DF86E
:109D40001A304FF4A4710298FFF79FFB0346002BD3
:109D500002D001238DF81A304FF482710298FFF778
:109D600094FB0346002B07D04FF482710298FFF753
:109D700077FB01238DF81A304FF492710298FFF7A8
:109D800084FB0346002B38D04FF492710298FFF702
:109D900067FB4FF4B0710298FFF777FB03468DF82D
:109DA00019300298FFF70DFC05909DF8193083F0EB
:109DB0000103DBB2002B04D1059B03F40073002BDD
:109DC0000AD120210298FFF73DFB14210298FFF7EA
:109DD00039FB00238DF81A309DF81930002B0CD078
:109DE000059B03F48073002B07D04FF4A4710298F5
:109DF000FFF736FB00238DF81A309DF81A3083F0F8
:109E00000103DBB2002B9CD10298FFF78FFB04907B
:109E1000039B002283F82F20049B002B04D004987E
:109E2000FFF76DFC079010E0009B03F04003002B50
:109E30000BD103990298FFF783FC034683F00103DB
:109E4000DBB2002B01D003230793079B184609B010
:109E500030BD00BF00B587B0039002910192039B13
:109E60001B79002B07D1029B5B68FF2B03D8029B59
:109E70009B68FF2B04D91B4940F26A2002F096FA36
:109E800000230593039B1B791A46342303FB02F33B
:109E9000154A13440493049B1B68002B08D1029BB2
:109EA0001B78022B04D10F4940F2722002F07EFA97
:109EB000049B1B68002B08D1029B1B78032B04D149
:109EC000084940F2732002F071FA039B1968019B64
:109ED000029A0498FFF79EFD0590059B184607B06F
:109EE0005DF804FB08D60300B42C002000B58BB04D
:109EF0000390019200930B468DF80B3000238DF8F0
:109F000014309DF80B308DF81530009B069300231C
:109F10000793019B0893002309939DF83030002B91
:109F200001D0202200E0002205AB19460398FFF77C
:109F300091FF034618460BB05DF804FB00B58BB0EB
:109F40000390019200930B468DF80B3001238DF89E
:109F500014309DF80B308DF81530009B06930023CC
:109F60000793019B08930023099305AB0022194630
:109F70000398FFF76FFF034618460BB05DF804FB2C
:109F800030B58BB001900091009B1B68002B04D171
:109F9000A24940F2C12002F009FA4FF492710198EF
:109FA000FFF773FA0346002B3ED04FF492710198ED
:109FB000FFF756FA4FF482710198FFF766FA0346ED
:109FC00083F00103DBB2002B2ED0009B9B68194667
:109FD0000198FFF776FA009B02229A60009B9B682B
:109FE00019460198FFF763FA4FF4B0710198FFF733
:109FF0004CFA034683F00103DBB2002B07D1019832
:10A00000FFF7DFFA034603F40073002B07D120218A
:10A010000198FFF717FA14210198FFF713FA009B34
:10A02000012283F82E20F6E04FF482710198FFF7A9
:10A030002CFA0346002B5DD04FF482710198FFF794
:10A040000FFA009B1B6A03F04003002B1AD1009B00
:10A0500093F82E3083F00103DBB2002B12D000996D
:10A060000198FFF76DFB0346002B14BF012300236B
:10A07000DBB283F00103DBB203F00103DAB2009B31
:10A0800083F82E20009B1B6A03F00403002B79D178
:10A09000009B04AC03F10C050FCD0FC42B682360AB
:10A0A0004FF4B0710198FFF7DBF94FF4AE710198EE
:10A0B000FFF7D6F9009B93F8303083F00103DBB251
:10A0C000002B04D1009B93F82E30002B5AD0002196
:10A0D0000198FFF764FA009B00229A6050490198AA
:10A0E000FFF7EFF90198FFF75DF903461846FFF710
:10A0F0009BF947E04FF4A4710198FFF7B1F9009B79
:10A100001B7B002B22D1009B04AC03F10C050FCD6F
:10A110000FC42B682360009B93F8303083F0010359
:10A12000DBB2002B2ED000210198FFF738FA009BFC
:10A1300000229A603A490198FFF7C3F90198FFF7A6
:10A1400031F903461846FFF76FF91BE04FF4007131
:10A150000198FFF724FA009B40F202229A603049EE
:10A160000198FFF7AEF9009B9B6819460198FFF72D
:10A170009EF908210198FFF765F920210198FFF762
:10A1800061F948E00198FFF7D1F90990099B03F0C4
:10A190000203002B03D001238DF80C301DE0099B36
:10A1A00003F00403002B03D002238DF80C3014E0DD
:10A1B000099B03F00103002B03D003238DF80C301F
:10A1C0000BE0009B93F82E30002B03D004238DF876
:10A1D0000C3002E000238DF80C30009B93F83030F7
:10A1E00083F00103DBB2002B03D0009B002283F835
:10A1F0002F20009B1B6A03F00403002B04D0009B5C
:10A2000093F82E30002B06D0009B1B68009A5168F3
:10A2100003AA104698470BB030BD00BF08D6030014
:10A2200002029C0108B503490348FFF7A9FE00BFDD
:10A2300008BD00BFB42C00200030004082B00346AF
:10A240008DF807309DF90730002B13DB9DF80730A0
:10A2500003F01F0209499DF907305B09012000FA4C
:10A2600002F2203341F82320BFF34F8F00BFBFF32A
:10A270006F8F00BF00BF02B0704700BF00E100E079
:10A28000044BD3F80034002B14BF01230023DBB2AE
:10A29000184670470000014008B512F049F803461F
:10A2A00083F00103DBB2002B03D109497B2002F0CC
:10A2B0007DF8FFF7E5FF034683F00103DBB2002BD7
:10A2C00004D000F059FB034B00229A7000BF08BD78
:10A2D00050D60300E82C002000B583B00023019382
:10A2E000184B1B78002B02D0852301931CE0154BE3
:10A2F00000229A60134B00225A60124B00221A610E
:10A30000104B0022DA60104800F0E0FA019012F0E1
:10A310000FF8034683F00103DBB2002B01D000F0FD
:10A32000FBFA084B01221A70FFF7AAFF0346002B25
:10A3300002D0044B01229A70019B184603B05DF8CD
:10A3400004FB00BFE82C002011A5020084B001909E
:10A350000091019B1B68039306E0039A009B9A42BD
:10A360000DD0039B1B680393039B002BF5D1019B2E
:10A370001A68009B1A60019B009A1A6000E000BFF7
:10A3800004B0704784B00190019B1B680393039B4A
:10A39000002B03D0039B1A68019B1A60039B18468D
:10A3A00004B0704700B585B00190294B1B78002B95
:10A3B00003D12849F62001F0F9FF254B9B78DBB249
:10A3C000002B19D0019B002B03D0019B5B6801205F
:10A3D000984700238DF80F300DF10F031846FDF755
:10A3E00007F81B4BDB680133194AD3609DF80F3027
:10A3F0001846FDF713F81EE000238DF80E300DF11E
:10A400000E031846FCF7F4FF019B002B03D00199C3
:10A410001148FFF79BFF0E4BDB68002B01D100F0CA
:10A420008FFA0B4BDB680133094AD3609DF80E307D
:10A430001846FCF7F3FF064BDB68002B04D10549F7
:10A440004FF4897001F0B2FF00BF05B05DF804FB66
:10A45000E82C002050D60300F82C002000B583B073
:10A46000164B1B78002B04D1154940F2171001F050
:10A470009DFF124BDB68002B04D111494FF48C7007
:10A4800001F094FF00238DF807300DF10703184603
:10A49000FCF7AEFF094BDB68013B084AD360074B72
:10A4A000DB68002B01D1FFF7F7FE9DF80730184657
:10A4B000FCF7B4FF00BF03B05DF804FBE82C0020FC
:10A4C00050D6030000B585B003468DF807309DF8DF
:10A4D0000730002B02D10C4B039301E00B4B03938D
:10A4E0000398FFF74FFF0290029B002B06D0029BC0
:10A4F0005B689DF8072010469847F1E700BF00BF52
:10A5000005B05DF804FB00BFF02C0020F82C002003
:10A5100000B583B003468DF807309DF80730002B57
:10A5200005D10A4B01225A700020FFF7CBFF9DF89E
:10A530000730012B05D1054B01229A700120FFF74E
:10A54000C1FF00BF03B05DF804FB00BFE82C002092
:10A5500000B583B001900091019B002B05D1054B04
:10A5600001225A700020FFF7ADFF00BF03B05DF875
:10A5700004FB00BFE82C002000B585B00346009125
:10A580008DF807309DF80730032B29D0032B35DCDD
:10A59000002B02D0012B04D030E00020FFF74EFE4C
:10A5A0002DE000238DF80F300DF10F031846FCF756
:10A5B0001FFF154B1B7883F00103DBB2002B01D08A
:10A5C000FFF78AFE104BDB6801330F4AD3600E4B56
:10A5D00001229A709DF80F301846FCF71FFF0EE01D
:10A5E000094B1B78002B04D1084940F2522001F09E
:10A5F000DDFE00F091F9FFF731FF00E000BF00BF82
:10A6000005B05DF804FB00BFE82C002050D6030025
:10A6100082B003468DF807309DF90730002B0CDB24
:10A620009DF8073003F01F0205499DF907305B09CB
:10A63000012000FA02F241F8232000BF02B0704767
:10A6400000E100E082B0034600918DF807309DF9EB
:10A650000730002B0ADB009BDAB20C499DF907306A
:10A660005201D2B20B4483F800230BE0009BDAB214
:10A6700007499DF8073003F00F03043B5201D2B2A3
:10A680000B441A7600BF02B0704700BF00E100E043
:10A6900000ED00E082B00190019B1B0B5BB21846FD
:10A6A00002B0704700B583B003460A468DF8073004
:10A6B00013468DF806309DF80630012B03D99DF81E
:10A6C0000630032B0BD99DF80630042B03D99DF8D7
:10A6D0000630072B03D908496B2001F067FE9DF86F
:10A6E00006209DF9073011461846FFF7ABFF00BF63
:10A6F00003B05DF804FB00BF98D6030000B583B03B
:10A7000003468DF807309DF907301846FFF780FFA4
:10A7100000BF03B05DF804FB82B003468DF807303C
:10A720000F4A9DF90730002B00DA1F335B115BB233
:10A7300052F823209DF90730594203F01F0301F01E
:10A740001F0158BF4B425BB222FA03F303F001032F
:10A75000002B14BF01230023DBB2184602B0704760
:10A7600000E100E082B001904FF08042019BC2F80E
:10A77000043300BF02B0704782B001904FF08042B6
:10A78000019BC2F8083300BF02B0704782B0034695
:10A790008DF807309DF8073003F1804301221A60DD
:10A7A00000BF02B0704784B00346ADF80630BDF874
:10A7B000063003F1804300221A60BDF8063003F131
:10A7C00080431B680393039B00BF04B0704782B0B3
:10A7D0000346ADF80630BDF8063003F180431B6830
:10A7E000002B14BF01230023DBB2184602B07047D0
:10A7F00082B001904FF08042019BC2F8183500BF33
:10A8000002B070474FF08043D3F818341B0C03F0AC
:10A810000103002B14BF01230023DBB2184670474D
:10A8200000B583B006238DF807304FF08040FFF766
:10A8300031FF03461846FFF76FFF034683F001031D
:10A84000DBB2002B13D04FF08040FFF723FF03460D
:10A850001A469DF8073019461046FFF723FF4FF0C0
:10A860008040FFF717FF03461846FFF747FF00BF7A
:10A8700003B05DF804FB000084B0124BDB68039367
:10A88000104A039B43F08073D3600F4B1B68029305
:10A890000D4A029B43F0010313600B4B5B6801936D
:10A8A00000BF094B5A68019BD31AB3F50A5FF8D36E
:10A8B000054A029B1360034A039BD36000BF04B0A8
:10A8C000704700BFF0ED00E0001000E000B585B07B
:10A8D0000190019B002B03D10D49A42001F066FDDE
:10A8E000002303930B4B1B79002B02D0852303938A
:10A8F00008E0084A019B1360064B01221A71054BC0
:10A9000000225A71039B184605B05DF804FB00BF96
:10A91000C8D60300FC2C002008B5074B1B79002B80
:10A9200003D10649BD2001F041FDFFF779FF012069
:10A93000FFF75EFF00BF08BDFC2C0020C8D6030057
:10A9400008B50B4B1B79002B03D10A49EA2001F013
:10A950002DFD4FF48270FFF726FF0220FFF702FF64
:10A96000FFF78AFF0820FFF711FF00BF08BD00BFF7
:10A97000FC2C0020C8D6030008B50D4B1B79002B1A
:10A9800003D10C49F72001F011FD0220FFF7F4FE7E
:10A990004FF48270FFF707FF0C20FFF7F7FE00BFB0
:10A9A000FFF730FF0346002BFAD100BF00BF08BD00
:10A9B000FC2C0020C8D6030008B54FF48070FFF7C8
:10A9C00006FF0346002B14D04FF48070FFF7EBFE18
:10A9D0000120FFF7D1FE114B5B7983F00103DBB25D
:10A9E000002B06D00D4B01225A710C4B1B68002026
:10A9F00098474FF48270FFF7EAFE0346002B0AD017
:10AA00004FF48270FFF7CFFE0220FFF7B5FE034B35
:10AA10001B680120984700BF08BD00BFFC2C002028
:10AA200082B003468DF807309DF90730002B0CDB10
:10AA30009DF8073003F01F0205499DF907305B09B7
:10AA4000012000FA02F241F8232000BF02B0704753
:10AA500000E100E082B0034600918DF807309DF9D7
:10AA60000730002B0ADB009BDAB20C499DF9073056
:10AA70005201D2B20B4483F800230BE0009BDAB200
:10AA800007499DF8073003F00F03043B5201D2B28F
:10AA90000B441A7600BF02B0704700BF00E100E02F
:10AAA00000ED00E082B00190019B1B0B5BB21846E9
:10AAB00002B0704700B583B003460A468DF80730F0
:10AAC00013468DF806309DF80630012B03D99DF80A
:10AAD0000630032B0BD99DF80630042B03D99DF8C3
:10AAE0000630072B03D908496B2001F05FFC9DF865
:10AAF00006209DF9073011461846FFF7ABFF00BF4F
:10AB000003B05DF804FB00BF0CD7030000B583B0B1
:10AB100003468DF807309DF907301846FFF780FF90
:10AB200000BF03B05DF804FB00B583B00346ADF889
:10AB30000630BDF80630184600F026F803461B68BC
:10AB4000012B0CBF01230023DBB2184603B05DF8D4
:10AB500004FB00B585B00346ADF80630BDF80630FD
:10AB6000184600F011F803461A4600231360BDF89A
:10AB70000630184600F008F803461B680393039B51
:10AB800000BF05B05DF804FB82B00346ADF80630A7
:10AB9000BDF8063003F1804303F5C043184602B008
:10ABA0007047000082B00190034A019BC2F8043351
:10ABB00000BF02B0704700BF0060004082B001904B
:10ABC000034BD3F80423019B1340184602B070478F
:10ABD0000060004082B00190084A019B03F5A27317
:10ABE00052F82330054943F00102019B03F5A2739B
:10ABF00041F8232000BF02B0704700BF0060004052
:10AC000084B00390029113468DF80730144A039BD9
:10AC100003F5A27352F82330114923F4473323F488
:10AC20004073039A02F5A27241F822300C4A039B4A
:10AC300003F5A27352F82320029B1B0203F4F85180
:10AC40009DF807301B0403F440330B4304491A43B7
:10AC5000039B03F5A27341F8232000BF04B07047A3
:10AC60000060004082B00190054A019B03F5A27389
:10AC700052F823301B0A03F01F03184602B0704736
:10AC80000060004082B00190064A019B03F5A27368
:10AC900052F823301B0C03F00303DBB2184602B05A
:10ACA000704700BF0060004000B583B00190019B79
:10ACB0001B68184600F015F90346002B04D105491E
:10ACC0004FF4F67001F072FB4FF0A043184603B04A
:10ACD0005DF804FB3CD7030000B585B00190084641
:10ACE00011461A4603468DF803300B468DF80230A4
:10ACF00013468DF8013001AB1846FFF7D5FF0390DE
:10AD00009DF803209DF802305B001A439DF8013046
:10AD10009B001A439DF818301B0242EA03019DF87C
:10AD20001C301B04019A1943039B02F5E07243F89F
:10AD3000221000BF05B05DF804FB00B585B003909C
:10AD40000B468DF80B309DF80B300022019200224B
:10AD50000092002200210398FFF7BEFF00BF05B05C
:10AD60005DF804FB00B585B0019001AB1846FFF714
:10AD70009BFF0390019A039B02F5E07253F8223087
:10AD800023F002030293019A039B02F5E0720299F9
:10AD900043F8221000BF05B05DF804FB00B585B094
:10ADA00001900B468DF8033001AB1846FFF77CFF8E
:10ADB0000390019A039B02F5E07253F82230019A46
:10ADC00023F44031039B02F5E07243F82210019A0C
:10ADD000039B02F5E07253F822309DF80320120421
:10ADE0001146019A1943039B02F5E07243F82210C1
:10ADF00000BF05B05DF804FB00B585B0019001AB64
:10AE00001846FFF751FF0390039800F020F8024620
:10AE1000019B22FA03F303F00103184605B05DF825
:10AE200004FB00B585B0019001AB1846FFF73CFF6D
:10AE30000390019A039B02F5E07253F822301B0C39
:10AE400003F00303DBB2184605B05DF804FB82B0E3
:10AE50000190019BD3F81035184602B0704786B0B8
:10AE60000390029101924FF0A0430493039B05933A
:10AE700019E0059B9B0006AA134453F8083CD3F83D
:10AE80002025019B1A60059B9B0006AA134453F8DA
:10AE9000083C019A1268C3F82025019B04330193F2
:10AEA000059B01330593039A029B1344059A9A422A
:10AEB000DFD300BF00BF06B0704700B585B001907A
:10AEC00001AB1846FFF7F0FE0390019B012202FA46
:10AED00003F31A46039BC3F8202500BF05B05DF8B5
:10AEE00004FB84B00190019B5B0902930023039350
:10AEF000029B002B03D14FF0FF33039300BF019B54
:10AF000003F01F030193039A019B22FA03F303F05A
:10AF10000103002B14BF01230023DBB2184604B049
:10AF2000704784B001900091009B0393019BDB0864
:10AF30000293019B03F0070301930122019B02FA94
:10AF400003F30399029A0A4412781340184604B096
:10AF5000704784B001900091009B0393019BDB0834
:10AF60000293019B03F007030193039A029B13448E
:10AF70001B785AB20121019B01FA03F35BB2134320
:10AF800059B2039A029B1344CAB21A7000BF04B0AC
:10AF90007047000082B001900C4A019B134430338B
:10AFA00093F90030002B09DB084A019B134430332E
:10AFB00093F90030072B01DC012300E0002303F0AC
:10AFC0000103DBB2184602B0704700BF042D002019
:10AFD00082B00190064A019B1344303393F900304C
:10AFE000072BCCBF01230023DBB2184602B0704709
:10AFF000042D002082B00190064A019B1344303397
:10B0000093F90030DB43DBB2DB09DBB2184602B058
:10B01000704700BF042D002084B00390029101927C
:10B020008DF80330029B59B20E4A039B1344303310
:10B030000A461A700B49029B019A41F823209DF899
:10B04000033083F00103DBB2002B08D0029B083BE6
:10B05000039A51B2034A13440A4683F8502000BFB2
:10B0600004B07047042D002082B00190044A019B77
:10B0700013443033FF221A7000BF02B0704700BF84
:10B08000042D002000B583B0019004490198FFF71A
:10B0900060FF00BF03B05DF804FB00BF582D002027
:10B0A00082B00190044A019B1344303393F900307D
:10B0B000184602B0704700BF042D002082B00190F6
:10B0C000034A019B52F82330184602B0704700BF74
:10B0D000042D002084B00190074A019B1344503393
:10B0E00093F900308DF80F309DF80F3023F0C00336
:10B0F000184604B0704700BF042D002084B00190B2
:10B10000074A019B1344503393F900308DF80F30F8
:10B110009DF80F309B09DBB2184604B0704700BFA2
:10B12000042D002000B589B00390029113468DF8DC
:10B130000730FF238DF81F309DF80730002B01D01A
:10B14000002300E0082305939DF80730002B01D071
:10B15000082300E00C230493059B069314E00F4A98
:10B16000069B52F82330B3F1FF3F0AD19DF8073018
:10B17000029A06990398FFF74FFF069B8DF81F3040
:10B1800006E0069B01330693069A049B9A42E6D397
:10B190009DF91F30184609B05DF804FB042D00200E
:10B1A00082B003468DF807309DF80730094A4FF00A
:10B1B000FF3142F823109DF80730072B07D99DF87F
:10B1C0000730083B034A1344FF2283F8502000BF96
:10B1D00002B07047042D002000B583B02D4B93F8CA
:10B1E0005830002B03D008230093009B4EE000232F
:10B1F0008DF8073011E09DF807301846FFF771FE13
:10B200000346002B04D09DF807301846FFF72CFFAB
:10B210009DF8073001338DF807309DF807301F2B5C
:10B22000E9D900238DF8073009E09DF8073018466A
:10B23000FFF7B6FF9DF8073001338DF807309DF812
:10B2400007300B2BF1D904220021134811F025FF00
:10B250001248FFF727FC034606211846FFF72AFC91
:10B260000E48FFF71FFC03461846FFF74FFC4FF44C
:10B27000BE70FFF76EFC4FF00040FFF793FC054BEC
:10B28000012283F8582000230093009B184603B046
:10B290005DF804FB042D0020582D002000600040C4
:10B2A000044B93F85830002B14BF01230023DBB26A
:10B2B00018467047042D002000B587B00390029116
:10B2C00001920398FFF70DFE0346002B04D1364987
:10B2D0004FF40C7001F06AF8002305930398FFF710
:10B2E00089FE0346002B02D00823059357E0029BFA
:10B2F0009B78C3F34003DBB21A4601990398FFF72A
:10B3000011FF03468DF813309DF91330B3F1FF3F61
:10B3100043D0029B9B78C3F38003DBB283F001032D
:10B32000DBB2002B13D0029B9B7803F00103DBB24E
:10B33000002B03D00398FFF715FD05E0029B5B7817
:10B3400019460398FFF7F9FC0398FFF79BFE029B51
:10B350009B7803F00203DBB2002B08D09DF91300A9
:10B36000029B1B781A460399FFF74AFC17E09DF9E8
:10B370001330083B0D4A134493F95010029B1B787D
:10B380009B015AB29DF91330083B0A4351B2074A58
:10B3900013440A4683F8502001E004230593059BDB
:10B3A000184607B05DF804FB6CD70300042D00209D
:10B3B00000B589B001900B468DF803300198FFF776
:10B3C00090FD0346002B04D13A494FF4187000F069
:10B3D000EDFF0198FFF70EFE0346002B04D135491F
:10B3E00040F2612000F0E2FF0198FFF7F1FD034613
:10B3F000002B2AD00198FFF753FE0346083B18465E
:10B40000FFF77CFE03468DF80F309DF80F30032BBD
:10B410000BD10198FFF7F0FC0346002B01D003236A
:10B4200000E002238DF81F3008E09DF80F30012B5B
:10B4300001D1022300E003238DF81F309DF81F3057
:10B4400019460198FFF7AAFC30E00198FFF7A2FD2A
:10B450000346002B2AD00198FFF722FE03460693ED
:10B46000069B9BB240339BB29B00ADF81630069B07
:10B470001846FFF7AFFBBDF816301846FFF769FB1B
:10B480009DF80330002B11D00198FFF709FE034609
:10B490001846FFF713FE0490049B002B06D00122F0
:10B4A000069B02FA03F31846FFF77CFB00BF09B0C6
:10B4B0005DF804FB6CD7030000B583B001900198E0
:10B4C000FFF70FFD0346002B04D1094940F2B220DB
:10B4D00000F06CFF0198FFF78FFC0346002B14BFB0
:10B4E00001230023DBB2184603B05DF804FB00BF64
:10B4F0006CD7030000B585B00190019A01210020AE
:10B50000FFF7ADFC002303930BE0039B9B00019A24
:10B5100013441B68002B01D0012306E0039B013379
:10B520000393039B002BF0D00023184605B05DF871
:10B5300004FB000000B587B00190002305935BE099
:10B54000344A059B1344503393F90030B3F1FF3F65
:10B550004ED00598FFF7BEFD049001990498FFF7BF
:10B56000E0FC0346002B44D00598FFF7C7FD0346D7
:10B570008DF80F300498FFF754FC03468DF80E3019
:10B580009DF80E30022B01D1032300E002238DF839
:10B590000D309DF80D3019460498FFF7FFFB049815
:10B5A000FFF78BFC0498FFF77BFD03461846FFF777
:10B5B00085FD0290029B002B1BD09DF80F30032BC2
:10B5C0000FD09DF80E30022B03D19DF80F30012BC8
:10B5D00007D09DF80E30032B0BD19DF80F30022BB6
:10B5E00007D19DF80F20029B11460498984700E070
:10B5F00000BF059B01330593059B032BA0D9019840
:10B60000FFF778FF0346002B97D100BF00BF07B0BC
:10B610005DF804FB042D002000B589B000230793DA
:10B62000002300934FF48073ADF816300123049388
:10B630000023069321E0BDF816301846FFF774FA90
:10B640000346002B0ED00498FFF7B8FA0346002BF0
:10B6500008D0BDF816301846FFF77BFA079A049B0E
:10B6600013430793049B5B000493BDF81630043327
:10B67000ADF81630069B01330693069B072BDAD9EB
:10B680004FF4BE70FFF750FA0346002B0DD04FF475
:10B69000BE70FFF75EFA079B43F0004307936B46CB
:10B6A0001A4601210020FFF7DAFB079BDBB2002BD3
:10B6B00029D0012304930023069321E0049A079BD9
:10B6C0001340002B16D00698FFF7CCFA039006988B
:10B6D000FFF7D8FA03468DF80B300698FFF7EEFC1B
:10B6E0000190019B002B05D09DF80B20019B11467A
:10B6F00003989847049B5B000493069B01330693D1
:10B70000069B072BDAD9079B002B03DA6B461846FA
:10B71000FFF710FF00BF09B05DF804FB08B5064B4A
:10B720001B68002B03D10549512000F03FFE024B5E
:10B730001B68984700BF08BD602D0020B4D70300E8
:10B7400082B00190019B044A934201D1034B00E077
:10B750000023184602B0704700200040602D0020F2
:10B7600000B587B001900091019B002B03D11C49CB
:10B77000772000F01BFE0198FFF7E2FF0490049B86
:10B78000002B25D000238DF8173000238DF80B30C7
:10B790000DF10B031846FBF72BFE049B1B79002BC6
:10B7A00003D001238DF8173005E0049B009A1A603E
:10B7B000049B01221A719DF80B301846FBF72EFEF0
:10B7C0009DF81730002B03D011230393039B02E055
:10B7D00000230393039B184607B05DF804FB00BFEA
:10B7E000B4D7030000B583B00190019B002B04D1B6
:10B7F0000198FDF77DFB034600E00023184603B0E7
:10B800005DF804FB00B587B003460A468DF80730A3
:10B8100013468DF8063000238DF81730002304936B
:10B820009DF807301846FDF7A0FB0490049B002B01
:10B8300061D19DF80630022B52D0022B5EDC002B2A
:10B8400031D0012B5AD13649049A13465B00134478
:10B850000B441B788DF817303149049A13465B006E
:10B8600013440B4401331B78002B0ED02D4B2E4A72
:10B870004FF480411846FBF795FC0390039B002B87
:10B8800003D1294A9DF8073013702549049A1346BD
:10B890005B0013440B4402331978244A049B13447D
:10B8A0000A461A702AE01F4B1846FBF7D1FC1F4AC4
:10B8B000049B134419781A48049A13465B001344F6
:10B8C000034402331B78994217D11549049A134651
:10B8D0005B0013440B4402331B788DF817300CE0E7
:10B8E0000F49049A13465B0013440B4401331B7841
:10B8F0008DF8173002E000BF00E000BF9DF8173060
:10B90000002B09D00A4B1B68002B05D0084B1B6885
:10B910009DF817201046984700BF07B05DF804FB5C
:10B92000782D0020482B00207B2D00207C2D00202E
:10B93000742D002000B583B00190019B1B7802217B
:10B940001846FFF75FFF00BF03B05DF804FB00007F
:10B9500000B583B00C4B1B78002B0FD00023019354
:10B9600008E0019B022B02D00198FDF75BFA019BD6
:10B9700001330193019B002BF3D001E0FDF768FA3E
:10B9800000BF03B05DF804FB702D00202DE9F04FDF
:10B9900087B003468DF80F300023059300230493EE
:10B9A000D14B1B78002B04D0CF4B00221A70FFF72D
:10B9B000CFFF9DF80F30172B00F2298201A252F819
:10B9C00023F000BF25BA02003DBA02003DBA0200D2
:10B9D000CFBA02005DBB0200D1BB02005DBC020019
:10B9E0007DBC02008DBC0200ABBC0200C9BC0200E1
:10B9F000F5BC020013BD020021BD020021BD020002
:10BA000021BD020021BD020021BD0200B1BD020026
:10BA1000BFBD0200D3BD0200E7BD020001BE0200AF
:10BA200001BE0200FFF794FFB04B1846FBF710FC75
:10BA30000590AF4A9DF80F301370E9E10020FDF743
:10BA4000B3F90346002B0DD00020FDF7EBF99DF86C
:10BA50000F30022B02D14FF4E16301E04FF47A631F
:10BA600004930BE00020FDF7C7F99DF80F30022B7F
:10BA700001D1C82301E04FF4C87304939C4A9DF898
:10BA80000F301370994C049B18464FF000014FF093
:10BA900000024FF00003CB0343EA5043C20312F508
:10BAA0007A71009143F1000301934FF4FA624FF071
:10BAB0000003DDE9000111F006FA02460B461346C9
:10BAC000002219462046FBF76DFB0590A0E10020FF
:10BAD000FDF76AF90346002B0DD00020FDF7A2F90F
