:1000000000000120750300005D0300005F03000095
:1000100061030000630300006503000000000000AE
:100020000000000000000000000000006703000066
:1000300069030000000000006B0300006D03000076
:100040006F0300006F030000111600006F03000033
:100050006F0300006F0300006F030000ED1B000042
:10006000C91E0000D91E00006F0300006F030000CE
:100070006F0300006F0300006F0300006F030000B8
:100080006F0300006F0300006F0300006F030000A8
:100090006F0300006F0300006F0300006F03000098
:1000A0006F0300006F0300006F0300006F03000088
:1000B0006F0300006F03000000000000000000005C
:1000C0006F0300006F0300006F0300006F03000068
:1000D0006F0300006F0300006F03000000000000CA
:1000E0000000000000000000000000000000000010
:1000F0000000000000000000000000000000000000
:1001000000000000000000000000000000000000EF
:1001100000000000000000000000000000000000DF
:1001200000000000000000000000000000000000CF
:1001300000000000000000000000000000000000BF
:1001400000000000000000000000000000000000AF
:10015000000000000000000000000000000000009F
:10016000000000000000000000000000000000008F
:10017000000000000000000000000000000000007F
:10018000000000000000000000000000000000006F
:10019000000000000000000000000000000000005F
:1001A000000000000000000000000000000000004F
:1001B000000000000000000000000000000000003F
:1001C000000000000000000000000000000000002F
:1001D000000000000000000000000000000000001F
:1001E000000000000000000000000000000000000F
:1001F00000000000000000000000000000000000FF
:10020000354936480A1A02D0072291438D463449AF
:1002100034480A1A06D00722914381F30988022242
:1002200082F3148830483149314A00F044F83148AB
:100230003149324A00F03FF831483249324A00F041
:100240003AF832483249334A00F035F832483349F7
:10025000334A00F030F833483349344A00F02BF881
:1002600033483449344A00F026F8344834490022EF
:1002700000F02CF833483449002200F027F83348C6
:100280003349091A082902DB002202604160314A21
:1002900090471F481F49884205D00268043003B4C4
:1002A000904703BCF7E700208646EC46002000217B
:1002B000294A9047FEE7884207D0521A05D00378B2
:1002C00001300B700131013AF9D17047884202D0F8
:1002D00002700130FAE770470000012000E00020C2
:1002E0000000012000000120B034000000000020C8
:1002F00040000020D0030000D0030000C02F000009
:10030000B034000000000020000000203430000065
:10031000343000003430000034300000343000004D
:10032000343000003430000034300000AE340000BF
:10033000F034000040000020400000204000002079
:1003400098090020980900209809002098090020A9
:10035000982900209D03000065280000FEE7FEE7C5
:10036000FEE7FEE7FEE7FEE7FEE7FEE7FEE7FEE765
:1003700000F002B8FFF7FCBF0F484FF007018843B9
:1003800085460E4880470E48016841F470010160BF
:10039000BFF34F8FBFF36F8FFFF732BF09480A4992
:1003A0000A4A884207D0521A05D0037801300B70F0
:1003B0000131013AF9D17047000001209D2B000066
:1003C00088ED00E034300000000000200000002034
:1003D0007047000007B5044B0093044A402300F027
:1003E00032F803B05DF804FBF10300004100002087
:1003F0002DE9F84388461446B2B10F4B0F4E032542
:10040000002743F00109224608EB0701002002F013
:100410006BFB0744241A48B933782BB14FF47A4068
:10042000C847013D02D13570BDE8F8830123337020
:10043000002CE8D1F8E700BF403000004000002069
:10044000704702F085BBF0B595B01D4616460846CC
:100450000C4600F0D7FF1A9B0D93CDE908650025E7
:100460002B46082205A920460A958DF82C500C959C
:1004700000F0E5FF079B0293069B03939DF8143061
:100480008DF8115003F00302012A1DD1BDF814208C
:10049000059DC3F3C203C2F383168DF81030B2007A
:1004A00008230EA9204600F0CAFFC5F3952508AB26
:1004B0000093324602AB0EA9284600F09FFB20466F
:1004C00000F0A4FF15B0F0BD022AF8D1BDF8165017
:1004D000C3F3C203C5F389158DF810300827082D22
:1004E0002E4628BF08263B4632460EA9204600F07D
:1004F000A6FFAD1B08AB02AA31460EA8374400F098
:10050000E1FB002DEBD1DAE7014B01221A707047B5
:10051000C20000207047000070B5124D06460FCD96
:1005200088B06C460FC495E80F00002E84E80F00D9
:100530004FF0FF334FF01D02CDE90023CDE9023328
:10054000094A0A484FF0EB7308BF00226946069338
:1005500000F0BCFF08B100F011FC054B1E7008B0A4
:1005600070BD00BF543000000905000000000020ED
:100570008100002007B5044B0093044A4023FFF795
:1005800062FF03B05DF804FB9105000082000020CB
:1005900038B50D4B0D4D002018700D4804782D5DB9
:1005A000D2B21C4665B1043002F0D8F808B100F0B0
:1005B000E5FB084B1A7812B12378002BFBD038BD2D
:1005C0000C3001F08DFEF1E7C2000020580600203B
:1005D000000000208100002008B50848084A037880
:1005E000D35C3BB1043002F029F8BDE8084000209C
:1005F000FFF792BF0C3001F009FEF6E70000002083
:10060000580600200120FFF787BF000038B50A4DCB
:10061000FFF717FF0421284600F05AFA074B012480
:100620005C71FFF7EFFF042105F1100000F050FAB4
:10063000034B5C7138BD00BF003000001400002087
:100640001C000020037813F0040216D003F003030B
:10065000012B03D0022B09D0012070470A680088C3
:100660000232C0F3831002440A60F5E70B68428847
:10067000023303EB92130B60EEE710467047000065
:100680002DE9F04F044685B0861C00200F46154624
:1006900000F0CCFB3F4A51683960936803F58073E2
:1006A0005B1A924602F21C4702F5836902F2144873
:1006B000B34219D30020002D68D004F00F039B0132
:1006C00043F0050363F30F00DAF80430DAB20332C3
:1006D0001E444AF822000020CAF8046000F0A8FB7B
:1006E000012005B0BDE8F08F0121384600F0C5FBC0
:1006F000484600F0DAFB404600F0D7FBDAF8080085
:100700000090C0B203300AEB80006946FFF79AFF01
:10071000009B30BBDAB20AEB8202D16801919A1CCD
:100720000133DBB20AEB83030092D3F80CB001F083
:100730000303012B22D0022B15D08346404600F044
:10074000B7FB10B1009BCAF808305946384600F094
:1007500094FBDAF80830DAF8042003F580739B1A6A
:10076000A6E7D8B2CEE7BDF80630C3F3891303334A
:100770004FEA1B4B02EB93030093DFE7BDF8043015
:10078000C3F383134FEA1B4B1344F5E7A40544F06E
:10079000060099E794010020064B074810B5002297
:1007A0001A7000F0E8FD044610B9044800F051FE4C
:1007B000204610BD9401002020300000B830000019
:1007C00030B50A4C71B10A4A0A49121BD2080023FB
:1007D0009A4201D1002030BD31F82350854202D029
:1007E0000133F5E7034654F83300F4E7C02F000067
:1007F0000030000000000020094B013903EBC0006D
:10080000032909D8DFE801F00A0204060420704732
:100810000079704740797047002070470220704788
:10082000C02F0000034BD3E90130C31A584258418E
:10083000704700BF940100202DE9FF41FFF7F2FF50
:100840000546002840F0E280714CC4F81804BFF35C
:100850004F8FA3680093DBB2033304EB8300694638
:10086000FFF7F0FE009B18B1D4F81824002A55D0E9
:10087000DAB2991C013304EB8202DBB204EB83038E
:10088000D268DB68029302F00303022B019200910D
:100890004FD1BDF806305F48C3F38917502F3E464D
:1008A00028BF502666F38F1306F10801ADF8063015
:1008B00000F079FD0546002800F0938000F0A2FDCD
:1008C000002301A90822284600F0AFFD0099CB4380
:1008D000DBB20133C9B20331B6EB830F4FEA8308B1
:1008E00004EB810122D908234246A6EB08062846DC
:1008F00000F09BFDF6B2484908F10803324628464D
:1009000000F093FD009B033703EB97070097D4F8A3
:100910001834002B41D1D4F8106451E062689A4237
:1009200099D8A260284604B0BDE8F0810823324679
:10093000E5E7012B55D1BDF804303648C3F38311E8
:10094000062928BF062161F3891302318900ADF819
:10095000043000F028FD0546002842D000F052FD8A
:100960000023082201A9284600F05FFD0026BDF8FB
:100970000420C2F38312B300964203F10803C6D2E7
:1009800000994A1CC9B20331009204EB8101042290
:10099000284600F04AFD0136E9E7284600F036FD1A
:1009A000FFF740FF80F00100C5B2BBE7F3685B7959
:1009B00023B1336829461B6830469847F3681E68A0
:1009C000002EF3D1284600F021FD304600F02EFA2B
:1009D000D4F818340BB9009BA360002000F028FA6B
:1009E000DEE7D4F8104454B90C4B0D480D49C01A39
:1009F000C008000440F0020000F05CF8D0E7236873
:100A000020469B689847E3681C68ECE7002589E767
:100A10009401002020300000A0010020C02F000021
:100A2000F02F0000A13000002DE9F34704460E46E8
:100A3000924601A9012218469946FFF721FE1B4F55
:100A400010B3019D4FF00008AA1CC84508EB020135
:100A500023D11748002100F0EDF980F310000004C5
:100A600040EA1440E4006B1C04F03804DBB2EDB241
:100A700044F0010407EB8303033544EA881444EA95
:100A80008624D86047F825403B781BB1FFF7D4FE99
:100A90000028FBD102B0BDE8F087C9B207EB8101A5
:100AA0005AF82830CB6008F10108CEE79401002005
:100AB000B005002000231A46FFF7B6BF07B5012393
:100AC000019201AAFFF7B0FF03B05DF804FB00003C
:100AD00030B50F49D1F8102403460020144634B92C
:100AE000DC6820714AB9C1F81034226030BDE46876
:100AF0002579854206D02468F1E7D2681168216023
:100B00001360F3E701300A28E8D14FF0FF30EDE73A
:100B100094010020084A38B50123D2F8104413701C
:100B20001D4604B938BDE3685D71236820465B68E3
:100B30009847E3681C68F4E79401002007B5034672
:100B40000846197A052911D05B7A2BB1094A0A495E
:100B5000019000F007FA01980849019000F002FAAC
:100B6000019803B05DF804EB00F0F1B9002AF8D069
:100B7000F2E700BFC4300000C9300000E9300000D7
:100B800030B5C38885B004460D4633B1144A00928F
:100B90001449154A284600F0E5F9217A05291DD0A7
:100BA000637A4BB1A088FFF727FE104B104953F82A
:100BB0002020284600F0D6F9227A0E4BA08853F860
:100BC000222003920021FFF7FBFD039A0A49034606
:100BD000284605B0BDE8304000F0C4B905B030BDCE
:100BE000C4300000D4300000CC3000005031000090
:100BF000C930000074310000EC3000002DE9F043F2
:100C000085B01F460C9D002395F80C902B7306466B
:100C10000C46904629463846FFF7B2FFB8F1060F5A
:100C200009D8DFE808F00412181F283340003146C5
:100C3000284600F097F9002229463846FFF77EFF44
:100C400085F80C9005B0BDE8F0832268314628464F
:100C500000F088F9EFE7D4E900233146284600F098
:100C600081F9E8E7A36800933146D4E900232846D8
:100C700000F078F9DFE7E3680193A3680093314659
:100C8000D4E90023284600F06DF9D4E723690293E4
:100C9000E3680193A36800933146D4E90023284612
:100CA00000F060F9C7E76369039323690293E3687F
:100CB0000193A36800933146D4E90023284600F04D
:100CC00051F9B8E708292DE9F74F80460E46174637
:100CD0001C463CD8002593F80C901D73194610460D
:100CE000FFF74EFFDFF888A0DFF888B0AE4231D9B9
:100CF00018F805205946204600F034F90135082D32
:100D0000F4D11949194DDFF870A0204600F02AF9F6
:100D10004FF0000B5E4522D918F80B207E2A05D82B
:100D20001046019202F0CCF8019A00B92E225146E9
:100D3000204600F017F90BF1010BBBF1080FE9D1C8
:100D4000012221463846FFF7F9FE84F80C9003B0E3
:100D5000BDE8F08F5146204600F004F9CEE7294661
:100D6000204600F0FFF8E6E700310000FE3000000A
:100D7000FC300000F6300000023100001FB50021F9
:100D8000039001AA44F20100CDE9011100F004F83A
:100D900005B05DF804FB000010B572B6FFF7BAFEAF
:100DA000FFF74AFD0028FBD1104B114C1149E41A02
:100DB000E408240444F00100FFF77CFE0E4B1B689E
:100DC000DB0700D500BE0D4944F00200FFF772FEBC
:100DD000BFF34F8F0A490B4BCA6802F4E06213431A
:100DE000CB60BFF34F8F00BFFDE700BFC02F0000F7
:100DF000F02F000088310000F0ED00E09431000099
:100E000000ED00E00400FA0572B6024A13680133EF
:100E1000136070474C060020034A1368013B1360BF
:100E200003B962B6704700BF4C060020FFF7ECBF65
:100E3000FFF7F2BF10B5034653E8000F0A4643E838
:100E4000002494F0000FF7D110BD10B5034653E80D
:100E5000002F42EA010043E8000494F0000FF6D1AD
:100E600010BD10B5034653E8000F00EA010243E845
:100E7000002494F0000FF6D110BD10B5034653E8DE
:100E8000002F02EB010043E8000494F0000FF6D1BC
:100E900010BD10B5034653E8002FA2EB010043E854
:100EA000000494F0000FF6D110BD0121FFF7CDBF73
:100EB0000021FFF7D6BF10B590B1D0E9012301683A
:100EC0009B1ADBB20A60013BDBB2FF2B026802D146
:100ED0000020107110BD11684C1C14600B70F2E7FB
:100EE0000E20F7E738B504460020FFF79FFF226881
:100EF00063681168994213D9481E106011F8015CAB
:100F0000E368218A01FB0535A36811791B1ADBB25E
:100F1000994200D213710020FFF78AFF284638BD9E
:100F20000025F8E738B5054600200C46FFF77EFFA0
:100F30002A681368591C1160E968641A298AB4FB8D
:100F4000F1F41C70BDE838400020FFF771BF8268E3
:100F500010B504462AB14369016800699847002327
:100F6000A36010BD0EB403B5039921B104AB01AA6F
:100F7000019300F06FF802B05DF804EB03B0704726
:100F8000826830B40468551C8560A154D0E90132F0
:100F90009A4202D330BCFFF7DABF30BC7047000082
:100FA0002DE9F84F9846DDE90A43154682460F467B
:100FB0000A464FF00109AA420FD2C14538BFC146C7
:100FC00013F0010B01D16CB900240126B8F1010F17
:100FD0001BD908F1FF386E43F8E709F10109B2FBAC
:100FE000F5F2E8E79B070ED5B8F1000F0CBF3026ED
:100FF0002026A145E9D2013C31465046FFF7C0FF0B
:10100000002CF6D1E0E72026F3E7B7FBF6F39D428C
:10101000E1D9DFF83C80B7FBF6F3504618F803102F
:1010200006FB1377FFF7ACFF3346AB42B6FBF5F692
:10103000F1D2BBF1000F02D00CB1A14501D3BDE844
:10104000F88F20215046013CFFF79AFFF4E700BFDC
:10105000A13100002DE9F74F0546174688460029C3
:1010600000F0428118F8011B49B92B7B002B00F0DE
:101070003B81284603B0BDE8F04FFFF768BF252944
:1010800040F0B780002698F800302D2B424608F13A
:10109000010823D0302B24D02B2B25D000242A2B41
:1010A00002F1010123D13B681A1D1B683A601C4400
:1010B0000A4613782E2B26D101324FF0000A104633
:1010C00010F8011BA1F1300CBCF1090F1DD80A2347
:1010D00003FB0A13A3F1300A0246F0E746F00106CB
:1010E000D1E746F00206CEE746F00406CBE711F85A
:1010F000013CA3F130000928DBD80A2202FB0434AA
:10110000303C0A46CBE74FF0000A12F8011B01F011
:10111000FB0068289046F8D0782909D86F290CD8A8
:10112000632962D022D8252963D0582900F088800D
:1011300098F80030002B95D197E770390829F7D837
:1011400001A353F821F000BFC312000031110000C9
:101150003111000051120000311100002F12000067
:10116000311100003111000041120000642901D04A
:101170006929DDD13A68D2F80090111D89EAE97237
:101180003960A2EBE9724FF0010B092A35DCD34537
:1011900038BFD3462CB1B9F1000F01DB720700D57F
:1011A000013CB30702D5BAF1000F03D0F00701D418
:1011B0004CBB0024B9F1000F2DDAC9F100092D2133
:1011C0002846FFF7DDFE06F00302022A04D1BAF139
:1011D000000F01D11CBB0024CDE9004653460A2272
:1011E00049462846FFF7DCFEA2E73B681A1D19783E
:1011F0003A602846FFF7C4FE9AE70A230BF1010B79
:10120000B2FBF3F2C1E7A345D4D220212846013C2A
:10121000FFF7B6FECCE77107D5D52B21D0E7A34564
:10122000DAD230212846013CFFF7AAFED2E739681E
:10123000CDE900460A1D3A6053460A220968D0E704
:1012400039680A1D3A60CDE9004653461022F5E799
:101250003B681A1D3A6016F00106D3F8009028D1B9
:10126000B9F1000F03D0484601F07AFE0646B442B9
:1012700000D904BB09F1FF3919F8011F00293FF417
:1012800057AF2846FFF77CFEF6E728460136FFF702
:1012900077FE19F806100029F7D1A642BFF448AF2F
:1012A000002C3FF445AF20212846013CFFF768FEA3
:1012B000F3E70026EDE720212846013CFFF760FE1A
:1012C000D5E73B681A1D3A60302128461C68FFF7B5
:1012D00057FE78212846FFF753FE00220823CDE968
:1012E0000032214610227CE703B0BDE8F08F00BF3A
:1012F0002DE9F84FB0F806A04579D2F800B09DF876
:1013000028900AFB05F5043D88460BEB0301A94232
:1013100003F1040488BFA5EB030BB4FBFAF6074600
:101320000AFB1644C2F800B04EB9AAEB04055D45AD
:1013300028BF5D46BBF1000F04D1BDE8F88F3F68C0
:10134000013EF1E7043408EB06003C442A46B9F1BB
:10135000000F0DD02146ABEB050B01F0B6FDDA45D1
:101360002E443F6855464FF0000428BF5D46E1E734
:1013700001462046EFE7FFF79EBDF8B546790146E6
:10138000721E0546002393422D6803D30024A64213
:1013900002D8F8BD0133F6E70F682846FFF7C2FD13
:1013A00001343946F3E72DE9F843068ACD1C074698
:1013B000FFF798FD043E35440446B5FBF6F5F0B161
:1013C0004FF48073EDB28380C680013D0760814693
:1013D0004FF00008A84512D23846FFF783FD0646B5
:1013E00048B163790133637108F10108C9F800005D
:1013F00007608146EEE72046FFF7BFFF34462046F0
:10140000BDE8F88301210430FFF737BD10B5012195
:1014100004460430FFF73DFD10F0FF0F04D12046D5
:10142000BDE81040FFF7A9BF10BD1FB50392002211
:10143000009203AAFFF75CFF05B05DF804FB1FB53F
:1014400003920122009203AAFFF752FF05B05DF854
:1014500004FB836800225A60C3E904229A60DA60C0
:101460001A6070471FB503788DF800304368019308
:1014700083688DF80830C368054A0393054B6846B6
:1014800053F8213052F82110984705B05DF804FB5D
:1014900050060020540600201FB503788DF8003058
:1014A0004368019383688DF80830C368054A039345
:1014B000054B684653F8213052F82110984705B083
:1014C0005DF804FB5006002054060020F0B5194BCF
:1014D00090F800C091F81DE043F82C20164B1646FA
:1014E0000A6943F82C20154B03F80CE00C4607461C
:1014F0000FCC89B06D460FC594E80F0085E80F004A
:10150000CDF810C0BEF1000F09D0002E0C4A69467C
:1015100008BF3246381D00F0CDFF09B0F0BD002EE7
:10152000084A694608BF324607F10C0000F0B8FDD2
:10153000F3E700BF540600205006002058060020A4
:1015400065140000991400002DE9F84F134DDFF8E1
:10155000508007464FF0000A04264FF001095FFA59
:101560008AFB002009FA0BF4FFF760FC2C420AD03A
:10157000D8F8003014EA030201BF2343C8F8003052
:1015800087F800B016460020FFF752FC1EB1A543B5
:101590000AF1010AE3D13046BDE8F88FFFFF0F00E2
:1015A0005C06002010B5A1B19AB101238340C3F3BA
:1015B000130484B10A4C246823420ED0C00000F109
:1015C000804000F5F830C0F81015C0F81425002050
:1015D00010BD0E20FCE70720FAE70820F8E700BF5F
:1015E0005C060020012303FA00F0C0F313031BB1D3
:1015F000054B1B68184204D0044BC3F804050020B7
:1016000070470820704700BF5C06002000F00140D2
:10161000014B1B68184700BF6006002038B50B4B14
:1016200098420C4601D0002038BD0020FFF7FEFB99
:10163000074B1D7915B901221C601A710020FFF7B4
:10164000F7FB002DEFD01120EEE700BF0020004097
:1016500060060020034B984201BF034B00221A6032
:101660001A717047002000406006002000F18040A1
:1016700000F5E040002382B0036003680193019B02
:1016800002B0704730B50A4B044693F82350082047
:1016900001220023144203D0154207D00133DBB2EC
:1016A00001384FEA4202F5D10B7030BD0720FCE74C
:1016B00068060020054B93F82200431E012B03D936
:1016C000043818BF012070470020704768060020CA
:1016D0002DE9F04F95B091460DF1100C0CAF3E4A3C
:1016E0008A46984639466546002302EB03140133C7
:1016F000D4F8186545F8046B082BD4F81C4541F85C
:10170000044BF2D1354D364CD2F8F06535492B6893
:1017100001932368344A02930B6803934FF0010E40
:1017200000231360C2F800E0A2F6FC7202EB031E75
:101730005CF804BBCEF818B5013357F804BBCEF8FB
:101740001CB5082BF2D1019B2B60029B2360039BED
:101750000B60264B1E9C0021F6B2C2F8F065C3E96F
:101760000111D9841C6083F8240019821E9BC2F8E1
:10177000F0A5C2F8F49563B323231C4D164FC2F8AD
:101780000033002207EB021C20FA02F3DCF81845B4
:10179000110113F0010301F1804114BFC6469E46BA
:1017A00001F5E04124F0807402F101021ABFAE7C21
:1017B000AB7E1E4644EA0E64082ACCF8184505F1B3
:1017C0000105C1F81435C1F81065DBD115B0BDE8CD
:1017D000F08F1E9BD1E700BF0070004040760040B4
:1017E0004476004048760040FC7F004068060020B8
:1017F000F0B5154F85B004460D4601260CB905B06D
:10180000F0BD94FAA4F2B2FA82F206FA02F3012DC4
:1018100024EA030493B20BBF2333DB00D80003F5A3
:101820008E7000F1804303F5E0431B68002BE5D088
:10183000FFF71CFF3B688DF804608DF808208DF8D9
:10184000095001A89847D9E76806002008B5114B50
:1018500093F822100246D1B9012083F822004FF4F8
:101860008070FFF703FF4FF48A70FFF7FFFE4FF41D
:101870008270FFF7FBFE084BC3F80013074B802074
:1018800018605201D2B283F80723084608BD082029
:10189000FCE700BF680600200070004000E100E0A7
:1018A0002DE9F0470746FFF705FF00286BD1374EBB
:1018B000082286F8230006F11203044603F8014BC0
:1018C000013A12F0FF02DC71F8D1DFF8C4809446CF
:1018D0004FF00C0E4FF001095FFA8CF38B4204D3EA
:1018E00008B186F8232000200EE00EFB03FA07EB78
:1018F0000A040CF1010CE57A22FA05F3DB0705D5A1
:1019000008B186F823200720BDE8F0876378A07827
:101910001B01000200F4E06003F03003034317F8FA
:101920000A0000F003000343E078000300F4805055
:1019300003432079000400F4E020034360790005AC
:1019400000F480100343A079000600F08070034388
:1019500008EB0510C0F818352B0103F1804303F59F
:10196000E043E07994F808A0C3F814A5C3F8100583
:101970007319607A987409FA05F5A07A98762A4363
:10198000D2B20120A8E71120BEE700BF6806002000
:10199000007000402DE9F04385B0074689461546A2
:1019A0009846FFF787FE0646B0BB0DF10F0138469B
:1019B000FFF768FE044658BB6B8833B19DF80F30C3
:1019C000012B2BD8B8F1000F28D02A786B782AB1D8
:1019D00023B99DF80F10012920D80126CDF80080E9
:1019E00049463846FFF774FE6B880D4A0BB143F445
:1019F0008053C2F8F8350B4B9DF80F2083F8252053
:101A00002A7983F82820042283F8296083F8222089
:101A1000204605B0BDE8F0831124F9E70624F7E776
:101A200000700040680600201A4A30B594681346DA
:101A300054BB00F06044B4F1005F27D192F8254018
:101A4000B1FBF4F504FB151515BB0DB2002D1FDD20
:101A500092F82220052A05D8032A0AD8022A0DD096
:101A6000082030BD062AFBD10B4AC2F82C06C2F86A
:101A700030165A6822B1D981986003E08C4207D1B0
:101A8000998158600020ECE78520EAE71020E8E71C
:101A90000920E6E768060020007000402DE9F843C1
:101AA0004C4B5C681A46002C00F0918093F8221091
:101AB000022904D004292CD00820BDE8F883464A26
:101AC00098890121C2F80015C2F82C46C2F83006E8
:101AD000186828B1032083F8220011600020ECE789
:101AE00011603E4A1368002BFCD04FF48070FFF762
:101AF000BDFD3B4B01221A603A4A1368002BFCD013
:101B00004FF48270FFF7B2FD334B0020C3F800059D
:101B1000D3E7314819689D890126C0F8006541B1B5
:101B2000052283F82220C0F82C46C0F83056066003
:101B3000D4E7198A93F8257004EB4104C0F82C46C9
:101B4000C0F83076066025480368002BFCD04FF4BF
:101B50008070FFF78BFD92F82900012360B31E48C7
:101B6000DFF87C80D0F8F445DFF87C90E4B203FA2B
:101B700004F40026A64212D11A480368002BFCD0B8
:101B80004FF48270FFF772FD394489B2A94216D230
:101B900011821120104B0022C3F800258DE74FF46D
:101BA0008470FFF763FD0123C8F80030D9F80030D6
:101BB000002BFBD00136DDE709480360DCE79368C2
:101BC00053600020D389108293819060E2E7042063
:101BD00073E700BF680600200070004000710040FD
:101BE00004700040047100400871004030B54F4B54
:101BF0004F4C1B6885B0002B30D04FF48070FFF73E
:101C000035FD94F82230052B07D0062B1ED0032B70
:101C100024D1484B01221A6020E004238DF80430BF
:101C200001A823689847444BD3F8F835DB0442BF3A
:101C3000404B01221A60A268062384F822302AB1A0
:101C40003D4BE189C3F82C26C3F83016A3682BB9A5
:101C500003238DF8043001A823689847374B1B688D
:101C60004BB14FF48A70FFF701FD334BD3F8343694
:101C7000A3810023A360324B1B68A3B14FF4827091
:101C8000FFF7F4FC636802930025A389ADF80C30DC
:101C90008DF80450236801A8984794F82230032B4C
:101CA00021D0062B26D094F826000021FFF7A0FDB6
:101CB00094F827000121FFF79BFD224B1B6883B19D
:101CC0004FF48870FFF7D2FC1B4B0022C3F80025AD
:101CD000012384F8223002238DF8043001A8236800
:101CE000984705B030BD144BC3F80055022384F863
:101CF0002230D8E7A368E2896360A281A5603BB186
:101D000094F82830002BCED00B4B01221A60CAE782
:101D1000094AC2F80035042384F8223005238DF8DF
:101D2000043001A823689847BDE700BF0071004058
:101D300068060020047000400070004014710040EC
:101D400004710040107100402DE9F743002406465D
:101D50000F4600F5A0754FF48038A1462B688BB173
:101D6000D6F8043308FA04F21A420BD0C5F80090F2
:101D70002B680193019BA30003F5A07398B2D7E9E8
:101D8000003198470134042C05F10405E6D103B075
:101D9000BDE8F083F7B506792F4D0C237343EF1898
:101DA0003C7A002C55D1EA504B687B604779036838
:101DB0002246A446D4B2A7423CD8CA7843F307349B
:101DC0005201002CC3F30733D2B23DDB234F07EBA4
:101DD000040C8CF800230122640903F01F0302FAAB
:101DE00003F347F8243003684A78D3F8040502F077
:101DF000030220F003000243C3F80425D3F80805CA
:101E00008A7820F0030002F003020243C3F8082599
:101E1000D3F810050A7820F00F0102F00F020A43F0
:101E2000C3F810250C2303FB065501232B72002059
:101E300003B0F0BD940004F5A074013243F804C06F
:101E40001C590194019CB5E7054C03F00F03E254C3
:101E5000C9E70820ECE700BF9406002000E100E09D
:101E600014ED00E0036801221A60704737B54FF4A3
:101E7000803400688C407BB18B0003F5A073002593
:101E8000C550C3580193019BC0F8044301F5A871E4
:101E900040F8212003B030BDC0F80843F6E770B425
:101EA000046840F20116D4F800528E4025EA060577
:101EB000C4F80052D4F800522B43C4F800329DF805
:101EC0000C3070BCFFF7D2BF01490248FFF73CBF9E
:101ED000940600200080004001490248FFF734BF0B
:101EE000A0060020009000400023435082B04358D9
:101EF0000193019B02B070470A4610B54FF48E71F2
:101F0000FFF7F2FF136A9168C95C136A0133136229
:101F1000C0F81C1510BD8B690A4610B54FF48471CA
:101F200023B9FFF7E1FFD0F8183510BDFFF7DCFF4C
:101F3000536AD168D0F81805C854536A0133536204
:101F4000F3E700001FB501238DF80030044BCDE905
:101F50000110D3E900126846904705B05DF804FB14
:101F6000AC06002030B54C48D0F8043313F4007FA1
:101F700085B005464DD0D0F82431002B49D04FF420
:101F80009271FFF7B1FF4FF40173C0F80833434B70
:101F900093F829200AB9012242603F4902228DF8B4
:101FA0000020D1F88024C1F8802403929A6902921B
:101FB000DA6801920022C3E906226846D3E90012DA
:101FC00090473548D0F81C315BB134494A690B6AF7
:101FD0009A420A464AD991F82830002B46D1FFF799
:101FE0008BFF2D48D0F844318BB14FF4A271FFF72D
:101FF0007BFF2A4B93F829200AB1012202609A69DB
:102000002AB10022586AD9689A61FFF79BFF05B090
:1020100030BDD5F804335B07D3D5D5F80831002B94
:10202000CFD01E4C1C482146FFF775FF636AA2699A
:102030009A422346C5D1E269E1684AB12369E36067
:102040000023606AA261E3616362FFF77BFFB8E788
:1020500094F829200AB901226A600F4A4FF40170EE
:10206000C2F808030022586A9A61EEE70A484FF462
:102070008E71FFF739FF5369002BB2D0516902917D
:10208000002391688DF80030019153616846D2E9D0
:1020900000139847A5E700BF00200040AC060020D1
:1020A0002DE9F843544B057991462C2202FB053269
:1020B000064692F82A200C469846002A40F098805E
:1020C0004E490068FFF7AAFA0746002840F09280C0
:1020D00021683368481C0BD04FF0A04001228A4091
:1020E000C0F8082501F5E0724FF0030C40F822C05B
:1020F0006068421C1FBF00F5E0724FF0A04C4FF02B
:10210000000E4CF822E0A269C3F8242594F814C00C
:10211000627DBCF1010F4CEA0202C3F86C25C3F8E2
:102120001405C3F80C151DD1A1684A1C1FBF01F589
:10213000E0724FF0A0404FF0000C40F822C0E2687F
:10214000501C0BD04FF0A04C01209040CCF808055B
:1021500002F5E0704FF0030E4CF820E0C3F80825BC
:10216000C3F810152C236B4308EB0302C2F804904C
:10217000226948F80320B9F1000F21D03068247F8C
:102180004FF48E71FFF7B0FE4FF4A2713068FFF785
:10219000ABFE32681A4BC2F80433110B42F307321C
:1021A0006301002ADBB21EDB1648841884F8003372
:1021B0000123520901F01F0103FA01F140F8221036
:1021C00033680422C3F800252C2303FB0583002277
:1021D000C3E9062283F829205A61012283F82A20C4
:1021E0003846BDE8F883084A01F00F015354E7E789
:1021F0000827F5E71127F3E7AC060020651F00006C
:102200008000020000E100E014ED00E0F8B5036892
:102210000479304D0022C3F800252C2202FB045221
:102220005268A2B12C4AC3F808231A0B43F30733B0
:10223000002B0CDB02F01F015B0901228A402033D6
:10224000264941F82320BFF34F8FBFF36F8F0068FB
:10225000D0F80C65D0F81415D0F80835D0F8102552
:102260004FF0FF37BE42C0F8147518BF06F5E07690
:10227000C0F80C75C0F80875C0F810751EBF4FF097
:10228000A0474FF0020C47F826C04E1C1FBF4FF06E
:10229000A04601F5E071022746F82170511C1FBFCE
:1022A0004FF0A04102F5E072022641F822605A1C6C
:1022B0001FBF03F5E0734FF0A042022142F8231044
:1022C000FFF7C8F92C2303FB0454002384F82A30B9
:1022D0006360F8BDAC0600208402020000E100E06B
:1022E0002DE9F047204F90F804904FF02C0808FBA0
:1022F000097405466669002E34D162610068A160E8
:1023000026624FF48E7184F82860FFF7EDFD28688F
:10231000012383602146FFF7EFFD6368A0468BB978
:102320002868D4F814A0236A9A4511D82A68D2F8EC
:102330001C31002BFBD00123D3602C2303FB09733A
:1023400000225A613046BDE8F08794F828303BB946
:10235000D0F81C31002BF8D04146FFF7CDFDE2E765
:102360000F26EAE71126EDE7AC06002000234350D4
:1023700082B043580193019B02B070471FB50123FF
:102380008DF80030044BCDE90110D3E90012684606
:10239000904705B05DF804FBD80600207FB5434A9E
:1023A000D2F82461002E60D010464FF49271FFF7EE
:1023B000DDFF02238DF80030D2F88034C2F880347B
:1023C0000393D2F83C350293394BDA68019200222C
:1023D000C3E906226846D3E9001290473348D0F893
:1023E000443173B14FF4A271FFF7C0FF304B9A69CB
:1023F0003AB10022C3E90622D968D0F83C05FFF7BC
:10240000BDFF2A48D0F82031ABB14FF49071FFF7EF
:10241000ADFF0123C360264B5A6962B1D0F84C1559
:102420000291002299688DF8002001915A61684656
:10243000D3E9001290471D48D0F858319BB14FF4B2
:10244000AC71FFF793FF1A4B5A6962B1D0F84C1583
:102450000291002299688DF8002001915A61684626
:10246000D3E90012904704B070BDD2F81031002BB0
:10247000B4D04FF488711046FFF778FF0C4BD2F8B8
:102480003C0599698842A9D1DC69D96864B1D2F860
:10249000005225F02005C2F800521A699C61DA60EA
:1024A000DE61FFF76BFF99E79C61FAE700200040CF
:1024B000D80600202DE9F8435B4B0679914624228B
:1024C00002FB0632044692F820200D469846002A68
:1024D00040F0A58055490068FFF7A0F8074600289E
:1024E00040F09F8029682368481C0BD04FF0A04023
:1024F00001228A40C0F8082501F5E0724FF0030C74
:1025000040F822C06868421C1FBF00F5E0724FF01F
:10251000A04C4FF0000E4CF822E0AA69C3F8242525
:1025200095F814C06A7DBCF1010F4CEA0202C3F8B1
:102530006C25C3F80C15C3F814051DD1A9684A1CF5
:102540001FBF01F5E0724FF0A0404FF0000C40F8C3
:1025500022C0EA68501C0BD04FF0A04C01209040E4
:10256000CCF8080502F5E0704FF0030E4CF820E0BF
:10257000C3F80825C3F810152423734308EB03029E
:10258000C2F804902A6948F80320B9F1000F30D04E
:1025900020682A7F4FF48871FFF7E8FE20684FF427
:1025A0009071FFF7E3FE20684FF49271FFF7DEFEB3
:1025B00020684FF4A271FFF7D9FE4FF4AC71206888
:1025C000FFF7D4FE23681A49C3F80413190B43F329
:1025D00007335201002BD2B21CDB1648C51885F810
:1025E000002301225B0901F01F0102FA01F140F80A
:1025F000231023680822C3F80025242303FB068345
:102600000022C3E906225A61012283F820203846BD
:10261000BDE8F883084B01F00F015A54E9E7082799
:10262000F5E71127F3E700BFD80600209D2300003F
:102630001003420000E100E014ED00E0F8B5444D65
:102640000479242303FB045302465B680068ABB1A2
:10265000404BC0F8083340F30733002B4FEA1031EA
:102660000CDB01F01F065B090121B14020333A4E1B
:1026700046F82310BFF34F8FBFF36F8FD0F80032AF
:1026800023F02003C0F80032242303FB04539B698A
:102690002BB14FF4A271FFF769FE012343604FF4A1
:1026A000AC71FFF763FE0123C360242303FB0453D3
:1026B000D0F858110029FBD0996919B1D0F844110C
:1026C0000029F5D00023C0F800351368D3F80C7545
:1026D000D3F81465D3F80825D3F810154FF0FF3C54
:1026E0006745C3F80CC518BF07F5E077C3F814C5F4
:1026F000C3F808C5C3F810C51EBF4FF0A0434FF084
:10270000020C43F827C0771C1FBF4FF0A04306F50B
:10271000E076022743F826704E1C1FBF01F5E071DA
:102720004FF0A043022643F82160531C1FBF4FF017
:10273000A04302F5E072022143F82210FEF78AFF5F
:10274000242303FB0454002384F820306360F8BD85
:10275000D80600201003420000E100E001F06043D1
:10276000B3F1005F2DE9F041064638D11E4B0779E1
:10277000242505FB073598466C69002C31D16A6128
:102780000068A9604FF49071FFF7F0FD4FF4AC7151
:102790003068FFF7EBFD33686A69A968C3F8441530
:1027A000C3F8482501229A606A68AAB9D3F82021A3
:1027B000D3F858411AB9002CF8D00F2407E0002CA8
:1027C000FBD10122DA60D3F85821002AFBD0242360
:1027D00003FB078700237B612046BDE8F0811024BE
:1027E000FAE71124F8E700BFD80600207047000080
:1027F00008B5027842B1032A15D01448144B154984
:10280000C01AC008000408E04368114A0F48124982
:10281000801AC008B3F900200004BDE8084040F069
:102820000300FEF74BB90D4A0D481368013303F05E
:102830000103012100EB43001360FFF7F5F818B125
:10284000BDE80840FEF79ABA08BD00BFF02F0000AF
:10285000C02F0000EA310000D93100002400002020
:102860000A07002030B5002189B00846FDF794FF23
:1028700008B1FEF783FAFDF7C9FE4B4B4B484C49B4
:10288000C01AC008000440F00300FEF713F900244A
:10289000012306200394ADF81040ADF80E408DF8EA
:1028A0001030FEF7D3FF08B1FEF768FA4FF48173DA
:1028B000CDE905440125ADF8163005A902233D48B0
:1028C000CDF81B400C228DF81D508DF81F408DF85F
:1028D000183000F0FAFA37482946FEF7E1FF08B150
:1028E000FEF74CFA344B03AA02210120FFF752F8FD
:1028F00008B1FEF743FA314C314D2068013000F049
:1029000001002060012105EB4000FFF78DF808B1C0
:10291000FEF734FA2068013000F001002060012148
:1029200005EB4000FFF780F808B1FEF727FAFFF744
:10293000B5F808B1FEF722FA2248FEF705FE08B105
:10294000FEF71CFA1F4C204A20492078FEF72AFE89
:1029500008B1FEF713FA2078FEF744FE08B1FEF73F
:102960000DFA1B4A1B480023CDE9052305A91A4A85
:10297000FFF710FA08B1FEF701FA184BD3F810254B
:1029800000214FF47A40D2B220FA02F200911148AD
:102990000123FFF784FA0F48FFF764FAFDF74CFFB5
:1029A0000028FBD120BFF9E7C02F0000F02F000066
:1029B000F7310000FC060020F12700002400002071
:1029C0000A070020080700200470004040910040E2
:1029D0000900000648320000ED270000009000408A
:1029E0000369C1688B429DBF8268D21802F1FF3231
:1029F00003F1FF3394BF501A581A70472DE9F8437A
:102A0000D0E902940546A9EB0408406890452044AB
:102A10000F46144404D900F058FAEC60BDE8F8837E
:102A20004246A4EB090400F050FA6868224607EB1E
:102A30000801F0E72DE9F843C568064689461746C0
:102A40004FF000083469B3687068A54228BFE418E5
:102A5000013C621B5C1BBC4228BF3C46944228BF21
:102A6000144649462844224600F02FFAB36825440C
:102A7000AB4208BF00253F1BA044A144F560E1D153
:102A80004046BDE8F883000010B5114C114AA26120
:102A90000223C4E90433104BE361A2644FF40073D2
:102AA0000E4A0F492362E26400231022E01DA36254
:102AB0006362E362A3656365E365226500F02EFA55
:102AC0000849204600F02AFA2023A37110BD00BF58
:102AD00010070020503200009807002088070020CF
:102AE000593200005D320000F8B5184C182300FB85
:102AF000033503FB00402544C46A012C0F461646EB
:102B00000FD0022C1AD0F4B92846FFF769FF86428D
:102B100005D8324639462846FFF770FF344620462E
:102B2000F8BD2846FFF75CFF8642344628BF0446BE
:102B3000224639462846FFF761FFF0E72846BDE800
:102B4000F840FFF777BF0024E9E700BF1007002037
:102B5000FFF79ABF044B1868421C04BF034B187858
:102B6000831F58425841704730010010E00F00F0B9
:102B7000074B1B78062B09D1064B1B68C3F30313C5
:102B8000033B032B02D8044AD05C704700207047F7
:102B9000E00F00F0E80F00F06C32000008B5FFF71E
:102BA000D9FF28B1834B844A1B68C3F30423136005
:102BB000FFF7DEFF10B1814B814A1A60FFF7CAFFB1
:102BC00028B1804B804A1B68C3F342331360FFF780
:102BD000CFFF20B17D4AD36823F08073D360FFF725
:102BE000B9FF40B14FF080430022C3F80C21C3F875
:102BF0001021C3F83825FFF7BBFF10B1744B032237
:102C00001A60FFF7B5FF40B1724B05221A6001222E
:102C10009A6700229A603F225A606F4B1A68511CD3
:102C20000BBF6E4B6E4B1A781B6802BF08331B68D4
:102C3000C3F30313062A4DD1033B032B03D8694A80
:102C4000D35C002B46D04FF08052674BD2F804146F
:102C5000C3F82015D2F80814C3F82415D2F80C14C0
:102C6000C3F82815D2F81014C3F82C15D2F8141490
:102C7000C3F83015D2F81814C3F83415D2F81C1460
:102C8000C3F84015D2F82014C3F84415D2F8241420
:102C9000C3F84815D2F82814C3F84C15D2F82C14F0
:102CA000C3F85015D2F83014C3F85415D2F83414C0
:102CB000C3F86015D2F83814C3F86415D2F83C1480
:102CC000C3F86815D2F84014C3F86C15D2F8442440
:102CD000C3F87025FFF73EFF28B1444B444A1B68F8
:102CE00003F04F031360FFF735FF48B14FF0804307
:102CF000D3F80024D20744BF6FF00102C3F80024C8
:102D0000354B1B68062B0CD1354B1B68033B032B43
:102D100002D8384AD35C23B1374A136843F480633E
:102D20001360364AD2F8883043F47003C2F8883012
:102D3000BFF34F8FBFF36F8F4FF01023D3F80022F4
:102D4000002A03DBD3F80432002B2FDA2C4B0122AC
:102D5000C3F80425D3F80024002AFBD04FF010223A
:102D60001521C2F80012D3F80024002AFBD04FF03E
:102D700010231522C3F80422214B1A46D3F800145D
:102D80000029FBD00021C3F80415D2F80034002B31
:102D9000FBD0BFF34F8F19491A4BCA6802F4E062A7
:102DA0001343CB60BFF34F8F00BFFDE7164B174AAD
:102DB0001A6008BD240300104035014074C007406C
:102DC0000DF0ADBA440200103C050040F0ED00E00B
:102DD000A00500401056004030010010E00F00F048
:102DE000340100106432000000C00040580200109E
:102DF000E40E0040683200003C17004000ED00E0A7
:102E000000E001400400FA05280000200090D003F3
:102E10007F2805D8034B185C034B5B5C1840704758
:102E2000002070477C320000FC320000A0F16103FA
:102E3000192B98BF20387047A0F14103192B98BF78
:102E4000203070477F2805D8034B185C034B5B5C30
:102E500018407047002070477C320000FC320000B0
:102E6000A0F16103192B98BF20387047A0F14103EE
:102E7000192B98BF203070477F299ABF017001201D
:102E80006FF02E0070475AB10A787F2A0AD800B135
:102E90000260002119605960501A18BF0120704764
:102EA000002070476FF02E007047000008B5034BFC
:102EB0005B689B681B68984708BD00BF2C0000201A
:102EC00008B50921FFF7F2FF08BD844640EA010377
:102ED00013F0030F18D18446202A0BD32DE9F007F5
:102EE000B1E8F807A0E8F807A2F12002202AF7D2FB
:102EF000BDE8F007042A07D351F8043B40F8043B2F
:102F0000A2F10402042AF7D2002A05D011F8013BED
:102F100000F8013B013AF9D160467047024610F0D3
:102F2000030F16D111F0030F13D12DE9F0004FF06C
:102F300001374FF0803351F8044BA4EB070525EA25
:102F400004051D4002D142F8044BF4E7A1F104014D
:102F5000F0BC11F8013B02F8013B002BF9D170479E
:102F600000F1010110F0030F11D010F8012B002A1D
:102F700023D010F0030F0AD010F8012B002A1CD028
:102F800010F0030F03D010F8012B002A15D02DE903
:102F900070004FF001324FF0803350F8044BA4EB37
:102FA000020525EA04051D4000D1F6E7A0F1040062
:102FB00070BC10F8012B002AFBD1A0EB0100704778
:102FC000BA31000000000000BE3100000000000027
:102FD000C231000000000000C83100000000000005
:102FE000CE31000000000000D331000000000000DE
:102FF000B230000000000303B13100000000000007
:103000004830000000000000913000001400002053
:103010007430000000000000803000001C00002020
:10302000C40000208C01002094010020CC0000206E
:043030001800000084
:103034000000000000000000000000000338FDD87C
:1030440070470000D503000041040000D1030000D4
:10305400FFFFFFFFFFFFFFFFFFFFFFFFFFFFFFFF7C
:1030640000000000000000000000D601060100007E
:1030740075050000D905000015050000756172741E
:103084005F6C6F675F6261636B656E64007274741A
:103094005F6C6F675F6261636B656E64004261635E
:1030A4006B656E647320666C75736865640061702B
:1030B40070000000B40500207F00000034060020EA
:1030C4001B5B306D002573001B5B313B33316D009E
:1030D40025734C6F67732064726F70706564202869
:1030E40025642925730D0A003C25733E2025733A77
:1030F4002000202530327800202020007C00256329
:10310400001B5B313B33306D001B5B313B33326D55
:10311400001B5B313B33336D001B5B313B33346D40
:10312400001B5B313B33356D001B5B313B33366D2C
:10313400001B5B313B33376D007761726E696E67DC
:1031440000696E666F00646562756700C4300000D4
:1031540005310000CC3000000D31000015310000B5
:103164001D310000253100002D31000035310000F3
:10317400000000008E3100003D31000045310000A8
:103184004A310000466174616C206572726F72008E
:1031940053797374656D20726573657400303132D0
:1031A40033343536373839414243444546707772B3
:1031B4005F6D676D74005050490050525300534185
:1031C4004144430054494D45520055415254005521
:1031D40041525445004144432056616C7565733A2D
:1031E40020253664200053414144432065767420F1
:1031F4002564006E7266785F73616164635F6170F9
:1032040069322073696D706C6520534141444320D9
:10321400436F6E74696E756F75732053616D706C56
:10322400696E67204578616D706C65207573696E91
:10323400672074696D657220616E64205050492E58
:103244000000000000900040010400005465726D0D
:10325400696E616C0052545400534547474552000F
:103264000000010100000001010000004300000013
:10327400504F5349580000002020202020202020B7
:1032840020682828282820202020202020202020D2
:103294002020202020202020481010101010101072
:1032A400101010101010101084848484848484847A
:1032B400848410101010101010818181818181018B
:1032C40001010101010101010101010101010101EA
:1032D4000101011010101010108282828282820279
:1032E40002020202020202020202020202020202BA
:1032F400020202101010102000070320041702011C
:103304000857104080000000703200007433000041
:103314008834000053756E004D6F6E00547565005F
:1033240057656400546875004672690053617400FF
:10333400000000004A616E00466562004D61720043
:10334400417072004D6179004A756E004A756C00D7
:1033540041756700536570004F6374004E6F7600CB
:103364004465630000000000414D00504D00000022
:10337400AC340000A8340000A8340000A8340000D5
:10338400A8340000A8340000A8340000A8340000C9
:10339400A8340000A8340000FFFFFFFFFFFFFFFF79
:1033A400FFFFFFFFFFFF0000E833000018330000B9
:1033B40024340000383300006C330000CC330000A8
:1033C4007C340000D8330000256D2F25642F257927
:1033D4000000000025612025622025652025542059
:1033E4002559000053756E646179004D6F6E6461F8
:1033F400790054756573646179005765646E65730B
:103404006461790054687572736461790046726905
:10341400646179005361747572646179000000001D
:103424004A616E756172790046656272756172797E
:10343400004D6172636800417072696C004D61797E
:10344400004A756E65004A756C790041756775733D
:10345400740053657074656D626572004F63746FB8
:10346400626572004E6F76656D62657200446563D5
:10347400656D62657200000025483A254D3A255372
:1034840000000000112E00002D2E0000392E000037
:10349400452E0000612E00006D2E0000792E0000E4
:0A34A400872E0000000000002E003B
:1034B000000000000020004000000000002000404C
:1034C0000000000000000000FF00000000000000FD
:1034D000FF000000FFFFFFFF0090D0030C3300004F
:1034E0000C3300000C3300000C3300000C330000E0
:040000030000037581
:00000001FF
