:1000000078400020612D0100D90D0200912D0100E2
:10001000912D0100912D0100912D010000000000A3
:10002000000000000000000000000000BD2C0100E6
:10003000912D010000000000752C0100290A02002A
:10004000212D01005B2F0200212D0100212D010037
:10005000212D0100212D0100212D0100212D010064
:10006000232F0200212D0100212D0100412F02002C
:10007000212D0100212D0100212D0100212D010044
:10008000212D0100212D0100212D0100212D010034
:10009000212D0100212D0100212D0100212D010024
:1000A000212D0100212D0100212D0100212D010014
:1000B000212D0100212D0100212D0100212D010004
:1000C000212D0100212D0100212D0100212D0100F4
:0C00D000212D0100212D0100212D010037
:0400DC00FFFFFFFF24
:1000E00081F0004102E000BF83F0004330B54FEAE9
:1000F00041044FEA430594EA050F08BF90EA020F56
:100100001FBF54EA000C55EA020C7FEA645C7FEAE8
:10011000655C00F0E2804FEA5454D4EB5555B8BF0B
:100120006D420CDD2C4480EA020281EA030382EA7C
:10013000000083EA010180EA020281EA0303362D0E
:1001400088BF30BD11F0004F4FEA01314FF4801CE1
:100150004CEA113102D0404261EB410113F0004FF3
:100160004FEA03334CEA133302D0524263EB4303AA
:1001700094EA050F00F0A780A4F10104D5F1200E48
:100180000DDB02FA0EFC22FA05F2801841F10001A3
:1001900003FA0EF2801843FA05F359410EE0A5F177
:1001A00020050EF1200E012A03FA0EFC28BF4CF0A8
:1001B000020C43FA05F3C01851EBE37101F000455E
:1001C00007D54FF0000EDCF1000C7EEB00006EEB6B
:1001D0000101B1F5801F1BD3B1F5001F0CD34908F5
:1001E0005FEA30004FEA3C0C04F101044FEA44524C
:1001F00012F5800F80F09A80BCF1004F08BF5FEAD3
:10020000500C50F1000041EB045141EA050130BDB2
:100210005FEA4C0C404141EB010111F4801FA4F155
:100220000104E9D191F0000F04BF01460020B1FAAA
:1002300081F308BF2033A3F10B03B3F120020CDAE2
:100240000C3208DD02F1140CC2F10C0201FA0CF0C0
:1002500021FA02F10CE002F11402D8BFC2F1200C25
:1002600001FA02F120FA0CFCDCBF41EA0C019040DB
:10027000E41AA2BF01EB0451294330BD6FEA040424
:100280001F3C1CDA0C340EDC04F11404C4F120020F
:1002900020FA04F001FA02F340EA030021FA04F321
:1002A00045EA030130BDC4F10C04C4F1200220FA78
:1002B00002F001FA04F340EA0300294630BD21FAB6
:1002C00004F0294630BD94F0000F83F4801306BF7C
:1002D00081F480110134013D4EE77FEA645C18BF70
:1002E0007FEA655C29D094EA050F08BF90EA020F07
:1002F00005D054EA000C04BF1946104630BD91EAFF
:10030000030F1EBF0021002030BD5FEA545C05D101
:100310004000494128BF41F0004130BD14F5800440
:100320003CBF01F5801130BD01F0004545F0FE41B4
:1003300041F470014FF0000030BD7FEA645C1ABFE9
:10034000194610467FEA655C1CBF0B46024650EA20
:10035000013406BF52EA033591EA030F41F400214C
:1003600030BD00BF90F0000F04BF0021704730B5D2
:100370004FF4806404F132044FF000054FF00001A7
:1003800050E700BF90F0000F04BF0021704730B568
:100390004FF4806404F1320410F0004548BF40423D
:1003A0004FF000013EE700BF42004FEAE2014FEA92
:1003B00031014FEA02701FBF12F07F4393F07F4F6D
:1003C00081F06051704732F07F4208BF704793F070
:1003D0007F4F04BF41F40021704730B54FF4607483
:1003E00001F0004521F000411CE700BF50EA010286
:1003F00008BF704730B54FF000050AE050EA01022F
:1004000008BF704730B511F0004502D5404261EB9E
:1004100041014FF4806404F132045FEA915C3FF4DF
:10042000D8AE4FF003025FEADC0C18BF03325FEA7C
:10043000DC0C18BF033202EBDC02C2F1200300FA2D
:1004400003FC20FA02F001FA03FE40EA0E0021FA52
:1004500002F11444BDE600BF70B54FF0FF0C4CF440
:10046000E06C1CEA11541DBF1CEA135594EA0C0FF2
:1004700095EA0C0F00F0DEF82C4481EA030621EA2D
:100480004C5123EA4C5350EA013518BF52EA033568
:1004900041F4801143F4801338D0A0FB02CE4FF01A
:1004A0000005E1FB02E506F00042E0FB03E54FF04A
:1004B0000006E1FB03569CF0000F18BF4EF0010E42
:1004C000A4F1FF04B6F5007F64F5407404D25FEA3E
:1004D0004E0E6D4146EB060642EAC62141EA5551F1
:1004E0004FEAC52040EA5E504FEACE2EB4F1FD0C33
:1004F00088BFBCF5E06F1ED8BEF1004F08BF5FEAB1
:10050000500E50F1000041EB045170BD06F0004662
:1005100046EA010140EA020081EA0301B4EB5C040F
:10052000C2BFD4EB0C0541EA045170BD41F4801107
:100530004FF0000E013C00F3AB8014F1360FDEBF2C
:10054000002001F0004170BDC4F10004203C35DA08
:100550000C341BDC04F11404C4F1200500FA05F38B
:1005600020FA04F001FA05F240EA020001F000422C
:1005700021F0004110EBD37021FA04F642EB0601A2
:100580005EEA430E08BF20EAD37070BDC4F10C04CC
:10059000C4F1200500FA04F320FA05F001FA04F290
:1005A00040EA020001F0004110EBD37041F100017C
:1005B0005EEA430E08BF20EAD37070BDC4F1200587
:1005C00000FA05F24EEA020E20FA04F301FA05F2EF
:1005D00043EA020321FA04F001F0004121FA04F297
:1005E00020EA020000EBD3705EEA430E08BF20EA67
:1005F000D37070BD94F0000F0FD101F000464000A1
:1006000041EB010111F4801F08BF013CF7D041EA22
:10061000060195F0000F18BF704703F00046520026
:1006200043EB030313F4801F08BF013DF7D043EAF7
:100630000603704794EA0C0F0CEA135518BF95EAAD
:100640000C0F0CD050EA410618BF52EA4306D1D134
:1006500081EA030101F000414FF0000070BD50EA53
:10066000410606BF1046194652EA430619D094EADD
:100670000C0F02D150EA013613D195EA0C0F05D1C7
:1006800052EA03361CBF104619460AD181EA03011B
:1006900001F0004141F0FE4141F470014FF00000D3
:1006A00070BD41F0FE4141F4780170BD70B54FF06E
:1006B000FF0C4CF4E06C1CEA11541DBF1CEA1355EE
:1006C00094EA0C0F95EA0C0F00F0A7F8A4EB0504D0
:1006D00081EA030E52EA03354FEA013100F08880C7
:1006E0004FEA03334FF0805545EA131343EA126390
:1006F0004FEA022245EA111545EA10654FEA002645
:100700000EF000419D4208BF964244F1FD0404F5FD
:10071000407402D25B084FEA3202B61A65EB030559
:100720005B084FEA32024FF480104FF4002CB6EB16
:10073000020E75EB030E22BFB61A754640EA0C0096
:100740005B084FEA3202B6EB020E75EB030E22BFD6
:10075000B61A754640EA5C005B084FEA3202B6EB17
:10076000020E75EB030E22BFB61A754640EA9C00D6
:100770005B084FEA3202B6EB020E75EB030E22BFA6
:10078000B61A754640EADC0055EA060E18D04FEA64
:10079000051545EA16754FEA06164FEAC30343EA04
:1007A00052734FEAC2025FEA1C1CC0D111F4801FD1
:1007B0000BD141EA00014FF000004FF0004CB6E7CA
:1007C00011F4801F04BF01430020B4F1FD0C88BF69
:1007D000BCF5E06F3FF6AFAEB5EB030C04BFB6EB74
:1007E000020C5FEA500C50F1000041EB045170BD67
:1007F0000EF0004E4EEA113114EB5C04C2BFD4EB94
:100800000C0541EA045170BD41F480114FF0000E17
:10081000013C90E645EA060E8DE60CEA135594EA93
:100820000C0F08BF95EA0C0F3FF43BAF94EA0C0F96
:100830000AD150EA01347FF434AF95EA0C0F7FF40B
:1008400025AF104619462CE795EA0C0F06D152EA5F
:1008500003353FF4FDAE1046194622E750EA410643
:1008600018BF52EA43067FF4C5AE50EA41047FF454
:100870000DAF52EA43057FF4EBAE12E753B94AB924
:10088000002908BF00281CBF4FF0FF314FF0FF3098
:1008900000F072B9ADF1080C6DE904CE00F006F875
:1008A000DDF804E0DDE9022304B070472DE9F047EC
:1008B000089E04468846002B4BD18A42154667D9CC
:1008C000B2FA82F24AB1C2F1200701FA02F320FA29
:1008D00007F7954047EA030894404FEA154E230C6A
:1008E000B8FBFEF71FFA85FC0EFB178843EA0843A6
:1008F00007FB0CF1994209D9EB1807F1FF3080F0A2
:100900001B81994240F21881023F2B445B1AA4B22A
:10091000B3FBFEF00EFB103344EA034400FB0CFC77
:10092000A44509D92C1900F1FF3380F00781A445B3
:1009300040F2048102382C4440EA0740A4EB0C0446
:1009400000271EB1D4400023C6E900433946BDE864
:10095000F0878B4209D9002E00F0EB800027C6E912
:10096000000138463946BDE8F087B3FA83F7002F17
:1009700047D18B4202D3824200F2FA80841A61EBA3
:10098000030301209846002EE0D0C6E90048DDE7C9
:1009900002B9FFDEB2FA82F2002A40F08F80491BD2
:1009A0004FEA154E1FFA85F80127B1FBFEFC230C18
:1009B0000EFB1C1143EA014308FB0CF1994207D9D5
:1009C000EB180CF1FF3002D2994200F2CD80844640
:1009D000591AA3B2B1FBFEF00EFB101443EA044413
:1009E00008FB00F8A04507D92C1900F1FF3302D20B
:1009F000A04500F2B6801846A4EB080440EA0C407B
:100A00009FE7C7F1200CBB4022FA0CFE4EEA030E12
:100A100001FA07F420FA0CF521FA0CF34FEA1E480C
:100A20002543B3FBF8F92C0C08FB19331FFA8EFA97
:100A300044EA034309FB0AF49C4202FA07F200FA73
:100A400007F10BD91EEB030309F1FF3080F087801B
:100A50009C4240F28480A9F1020973441B1BADB291
:100A6000B3FBF8F008FB103345EA034400FB0AFA35
:100A7000A24508D91EEB040400F1FF336BD2A24556
:100A800069D90238744440EA0940A0FB0289A4EB0A
:100A90000A044C45C2464B4654D351D0002E69D06F
:100AA000B1EB0A0564EB030404FA0CFCFD40FC40C6
:100AB0004CEA0505C6E90054002747E7C2F12003C8
:100AC00020FA03F7954001FA02F021FA03F34FEA06
:100AD000154E3843010CB3FBFEF71FFA85F80EFBE9
:100AE000173341EA034107FB08F38B4204FA02F48F
:100AF00007D9691807F1FF3C2FD28B422DD9023F4D
:100B00002944CB1A81B2B3FBFEF00EFB103341EA4D
:100B1000034100FB08F38B4207D9691800F1FF3C41
:100B200017D28B4215D902382944C91A40EA07471F
:100B30003BE73746304609E70746E7E61846FBE657
:100B40004145ABD2B8EB020A69EB0E0201381346FD
:100B5000A4E76046E9E7184695E76746D1E781468E
:100B60007CE702382C4447E7ACF1020C2B442FE71A
:100B7000384608E73746E9E6704700BF4FF0FF3CCC
:100B800006E000BF4FF0010C02E000BF4FF0010C87
:100B90004DF804CD4FEA410C7FEA6C5C4FEA430C00
:100BA00018BF7FEA6C5C1BD001B050EA410C0CBF4F
:100BB00052EA430C91EA030F02BF90EA020F0020B1
:100BC000704710F1000F91EA030F58BF994208BF18
:100BD00090422CBFD8176FEAE37040F001007047D5
:100BE0004FEA410C7FEA6C5C02D150EA013C07D12C
:100BF0004FEA430C7FEA6C5CD6D152EA033CD3D077
:100C00005DF8040B704700BF8446104662468C4670
:100C10001946634600E000BF01B5FFF7B7FF0028A3
:100C200048BF10F1000F01BD4DF808EDFFF7F4FFCC
:100C30000CBF012000205DF808FB00BF4DF808ED57
:100C4000FFF7EAFF34BF012000205DF808FB00BF7A
:100C50004DF808EDFFF7E0FF94BF012000205DF89C
:100C600008FB00BF4DF808EDFFF7CEFF94BF012051
:100C700000205DF808FB00BF4DF808EDFFF7C4FF4A
:100C800034BF012000205DF808FB00BF4FEA410C93
:100C90007FEA6C5C02D150EA013C0AD14FEA430C76
:100CA0007FEA6C5C02D152EA033C02D14FF00000B3
:100CB00070474FF0010070474FEA410212F50012F1
:100CC00015D211D56FF47873B3EB625212D94FEA93
:100CD000C12343F0004343EA505311F0004F23FA7D
:100CE00002F018BF404270474FF00000704750EAD2
:100CF000013005D111F0004008BF6FF0004070478F
:100D00004FF00000704700BF0148007870470000B6
:100D10000000002004490A78904201D30020704767
:100D2000496801EB40107047000000202DE9F843AE
:100D30001546044600F10802C81C4142DFF89CC079
:100D40001F46281A0023089EBCEB050C9B4104D2C9
:100D500040F2E451702003F0E5F8214B994204DDA4
:100D600040F2E551702003F0DDF81E4B994204DAA1
:100D700040F2E651702003F0D5F81B498842A8BF25
:100D80001A4903DA0028B8BF174900DA401821468B
:100D900002F030FD206820F07F41E819C01C21607E
:100DA000002E08BF7A3008D0012E08BF453004D08D
:100DB00040F28961702003F0B5F86A46211D02F007
:100DC00019FD9DF9000000286068C4BF401C6060E8
:100DD00020F07F406060BDE8F8830000FF7F841E44
:100DE0000020A10700E05EF80080841E00807BE107
:100DF00070B50546202A27D019481A4C00EB831CF1
:100E00000CEB420004EB8303202922D00CEB4101C0
:100E100040784C784870204601460CEB41009142E6
:100E200005704078F8D193F82220202A1ABF0CEBE5
:100E30004202547083F8214020220CEB410C8CF8C4
:100E4000012083F8221070BD40F28921702003F048
:100E500069F893F82040407883F82000DBE7000031
:100E6000CC0E00204C0F00202DE9F34F87B0044634
:100E7000002002909E48089F9E4E00EB8700039042
:100E800090F820502020E9460DF104088DF800006C
:100E900006F5207A202D18BF0AEB871B32D000BF41
:100EA00005EB850006EB8000011D80682268101AA2
:100EB0000002C21700EB1260001223D46089D0B187
:100EC0004889C0B9084600F0DBFC05AA04A902F075
:100ED00091FC9DF914000028CCBF0120002000F1F6
:100EE000330104982268101A0002C21700EB126046
:100EF0000012884206DB0BEB450089F8005045786C
:100F0000202DCDD199F8000088F80000A146202DB1
:100F10001CBF794800EB871B00F0E58005EB8501DD
:100F200006EB810AD9F80420DAF804104846891A39
:100F30000902CA1701EB12610AF1040709121FD452
:100F40007989002900F0CF804189002940F0CB80C9
:100F500000F096FC05AA04A902F04CFC9DF91400CF
:100F60000028CCBF0120002000F1330104983A682A
:100F7000101A0002C21700EB1260001288427DDADC
:100F800088F800509AF8100099F80C10884205D99A
:100F90000BEB45004578202DC0D1A4E09DF804005E
:100FA000D4E9002100EB800006EB8000891A8068FC
:100FB00020F07F42084420F07F40C4E90020012057
:100FC00002904B4890F82B0018B109B00020BDE802
:100FD000F08F0398DDF820806F4690F82050202095
:100FE0000DF1040A8DF80000202D1CBF424800EBD3
:100FF000881930D005EB850006EB8000011D806864
:101000002268101A0002C21700EB1260001222D4EC
:101010006089D0B14889C0B9084600F031FC05AA02
:1010200004A902F0E7FB9DF914000028CCBF0120C1
:10103000002000F1330104982268101A0002C21740
:1010400000EB12600012884205DB09EB45003D70A1
:101050004578202DCED138788AF800002746202DFB
:101060001CBF254800EB881B3DD005EB850106EB36
:101070008109384609F104087A6800E033E0D9F8BC
:101080000410891A0902CA1701EB126109121DD452
:10109000B8F80A1039B3418929BB00F0F1FB05AA61
:1010A00004A902F0A7FB9DF914000028CCBF012081
:1010B000002000F133010498D8F80020101A000233
:1010C000C21700EB1260001288420CDA8AF8005056
:1010D00099F81010387B81427FF660AF0BEB45002A
:1010E0004578202DC1D1029809B0BDE8F08F0000ED
:1010F0004C0F00204C0C0020CC0E00202DE9F04FAE
:10110000044647480E4600EB8600464F90F82050B4
:10111000202083B098469246107007F52079202D44
:1011200018BF09EB861B31D005EB850007EB80006B
:10113000011D80682268101A0002C21700EB1260BD
:10114000001223D46089D0B14889C0B9084600F0A4
:1011500097FB01AA694602F04DFB9DF904000028A7
:10116000CCBF0120002000F1330100982268101A42
:101170000002C21700EB12600012884206DB0BEB84
:1011800045008AF800504578202DCDD19AF800000E
:1011900088F80000202D18BF09EB861A3CD005EB1B
:1011A000850107EB81096168D9F804202046511AAE
:1011B0000902CA1701EB126109F1040609121BD4D6
:1011C000718949B3418939BB00F05AFB01AA6946CC
:1011D00002F010FB9DF904000028CCBF0120002084
:1011E00000F1330100983268101A0002C21700EBB8
:1011F0001260001288420FDA88F8005099F8100047
:10120000217B884203D803B00020BDE8F08F0AEBB1
:1012100045004578202DC2D103B00120BDE8F08FF4
:101220004C0F00204C0C00202DE9F74F4FF0000828
:1012300098B016460D46C34602F084F80446012DC8
:1012400018BF022D05D040F66D114FF0700002F06E
:1012500069FEFE4901200860FD4989680860002098
:101260000690401E0890FB4906EB860001EB8003C8
:101270001B1D09AF0FCB87E80F0009A800F000FB8A
:101280000790F448BDF82E90B0F81C03ADF8340078
:10129000B9F1000F14BF4FF0010A4FF0000A09988E
:1012A0001290BAF1000F09D0EB4890F82C0028B941
:1012B00002F0D4FD002808BF012700D00027E7482E
:1012C0000022149200781646012818BF032843D143
:1012D000E248B0F80280A8EB09001490C1453BD267
:1012E00003A8059017A81090079908F1030042423F
:1012F000DFF86CC3081A0023BCEB010173EB030198
:1013000004D240F2E451702002F00CFED5498A422A
:1013100004DD40F2E551702002F004FED2498A4219
:1013200004DA40F2E651702002F0FCFDCF49884219
:10133000A8BFCF4903DA0028B8BFCC4900DA40186B
:10134000109A059902F056FA0398099920F07F4007
:101350000390081A20F07F42002F18BF322604D1D4
:101360009DF83400002818BF0226B4F1807F08D011
:101370000998001B0002C11700EB11600012012840
:1013800002DA042018990BE047B1B34890F82D0019
:1013900020B19DF83400061C18BF0226214601200A
:1013A000B9F1000F02D0149B1E2B02DA9DF83430E5
:1013B00013B14FF0010B401E8319A8489DF835600A
:1013C000007815900998801A20F07F4CACEB010052
:1013D00000024FEAE07E00EB1E600012984218DB2C
:1013E000002A18BFCDF824C0099E1097002701F0ED
:1013F000A3FE301A0002C11700EB116000123E2854
:101400003EDA012D1FD0701E109920F07F4011B3DD
:101410002CE07AB1002E04BF159803280AD027B912
:101420009DF83400002818BF9B1E00228DF8342040
:101430009046C7E707BB9DF83400E8B100208DF85F
:1014400034009B1EBEE7B4F1807F20D140F6E60158
:10145000702002F067FDB4F1807F07D0211A0902E5
:10146000CA1701EB12610912042903DD044601F0D9
:1014700069FE0CE000290ADD1BB00020BDE8F08FFA
:10148000701E20F07F44204601F05CFE5746B4F108
:10149000807F28D00998DDF828C0001B8BF001035D
:1014A000744A20F07F40ACEB040C2CF07F4C83425C
:1014B00098BFB0F5800FDFD26245DDD320460BF038
:1014C00016FA674A0799531C0E1AB6EB930F24BFFE
:1014D000A0EB010CBCEB930F10D3B24208D2101A50
:1014E0000844461C0AE040F60521702002F01AFD6F
:1014F00062452CD2511A0844401C46425648807F0F
:1015000050B3284645464FF0000BD846012805D079
:10151000022002F05FF8012002F05CF8A9452CD20D
:10152000A6EB05014FF001034FF003024FF002005C
:1015300001F088FF002808BF4FF00108B9F1000F43
:1015400035D00123A6EB09010322184623E040F61B
:10155000E521702002F0E6FCC14534BF4046484614
:10156000BBF1000F14BF00211E210844B042C8DBAC
:1015700040F61821702002F0D5FC10D90123A6EB0B
:1015800009010322184601F05DFF28B37DB1711BEC
:1015900001230322022001F055FFE8B107E055EADC
:1015A000090004D04FF41561702002F0BBFC012348
:1015B00003223146002001F045FF68B10125B8F152
:1015C000000F03D0129809908DF834B0DFF8A8808E
:1015D000BAF1000F0ED109E0022001F0FBFF01205B
:1015E00001F0F8FF1BB00020BDE8F08F1A4890F81A
:1015F0002D0000B14FB3DFF860A09AF82C0018B1AD
:1016000002F0D6FA8AF82CB0E7B3A4F1320020F049
:101610007F414FF40020C8F800000023032205207A
:1016200001F010FF78B34FF08044052002F08CF8F1
:101630001249C1F81005C1F814451149E0120860BB
:10164000054C94F82D00E0B35DE01DE00805004076
:10165000080000204C0C00204C0F00200A00002045
:10166000FF7F841E0020A10700E05EF80080841E3A
:1016700000807BE1FFFF3F0008F5014098F001404A
:1016800004F5014005E035E0DFF8B8A09AF82C0039
:1016900058B32C4C94F82D0050B14FF40020C8F8EA
:1016A0000000052001F096FF02F0EAFA84F82DB060
:1016B00006AC254894E80E10C0F80013C0F80423C7
:1016C00000E01CE0C0F80833C0F80CC30AAC94E892
:1016D0000E10C0F81013C0F81423C0F81833C0F867
:1016E0001CC31BB00120BDE8F08F02F07DFA8AF820
:1016F0002C5089E740F24931702002F013FC02F0CF
:10170000B1FA84F82D50A6EB0900A0F119010029C7
:1017100004DC40F64221702002F004FC0322012385
:10172000104601F08FFE38B108488068C0F800B05C
:101730000748C0F800B0BBE740F64D21702002F02A
:10174000F1FB00004C0F00204C0C00200800002092
:101750000805004010B5154C94F82F00202818BF3C
:1017600010BD94F82E2004EB820090F82010202960
:1017700017D0DFF83CC00CEB821303EB41035B781E
:1017800080F82030012380F8233084F82B3084F84F
:101790002F10022000F0B2F8002084F82A00A07771
:1017A00010BD40F29631702002F0BCFB4C0F0020BF
:1017B000CC0E00202DE9F05FDFF8B48098F82E50B1
:1017C00008EB850090F82140202C08BFBDE8F09F71
:1017D000DFF8A0A0DFF8A090A9F5207B09EB851722
:1017E000072617F8140001280ED0042808BF022687
:1017F0000AD005280CBF0326062805D040F6B30101
:101800004FF0700002F08EFBBAF1000F18BFAFF37B
:101810000080EFF3108072B607EB44014A7808EBC2
:10182000850181F8212091F82220A24204BF2022C4
:1018300081F82220A8B12A462146012000F05EF856
:1018400004EB840031465BF820202046904798F84E
:101850002E5008EB850090F82140202CBED1BDE829
:10186000F09F0648002818BFAFF3008062B6E2E799
:101870004C0F002000000000CC0E002000000000F3
:1018800010B5044600680BF032F80146608994F9FF
:101890000820DFF854C01044C21C88180023BCEB99
:1018A000010173EB030104D240F2E451702002F015
:1018B00039FB0E498A4204DD40F2E551702002F006
:1018C00031FB0B498A4204DA40F2E651702002F003
:1018D00029FB08498842A8BF074903DA0028B4BF9A
:1018E000044910BD401810BDFF7F841E0020A107D1
:1018F00000E05EF80080841E00807BE1DFF854C0C9
:1019000010B500230CEB821C07281ED2DFE800F084
:10191000050505050404040001230CF81100002B43
:1019200008BF10BD0C4800EB820292F8220020286C
:101930000EBF82F821100CEB4000417020200CEB10
:101940004103587082F8221010BD40F25F217020D0
:1019500002F0E8FACC0E00204C0F00202DE9F34FE6
:1019600083B05C48049900EB8100019090F820401E
:1019700003982546012818BF022805D040F6892182
:101980004FF0700002F0CEFA0027202D4AD05148C7
:1019900000910026807F002808BF022601F0CCFBC2
:1019A000DFF838A104EB84010AEB8101DFF828910C
:1019B0004A688968121A091A22F07F4221F07F4191
:1019C000964298BFB2F5800F01D2894528D2444A89
:1019D000009902EB811B22460BEB42014C78202C34
:1019E00016D004EB84010AEB810CDCF80480DCF8EF
:1019F00008C0A8EB000828F07F48ACEB000121F0FC
:101A00007F41464598BFB8F5800FE4D28945E2D3BF
:101A1000202A05D020210420009BFFF7E9F9044685
:101A2000AC4215D12F48002818BFAFF3008001F059
:101A300083FB284C94F8301020290DD0E168821CDB
:101A4000511A0902CA1701EB12610912002903DDBC
:101A500005B00020BDE8F08F202D0DD02A46039957
:101A6000FFF7E2FB58B3019880F8237084F83050F8
:101A700005B00120BDE8F08F94F82C0018B102F0F9
:101A800097F884F82C7094F82D0050B116494FF453
:101A900000200860052001F09DFD02F0F1F884F8B7
:101AA0002D70042001F096FD01F0F0FD202084F857
:101AB00030000E48806807600D480760D8E72A4666
:101AC00020210420049BFFF793F905B00020BDE816
:101AD000F08F00004C0F0020FFFF3F004C0C002057
:101AE000CC0E00200000000008F501400800002096
:101AF000080500402DE9F04F734E074687B096F871
:101B00002F008A4620285AD096F82F0006F10C04A0
:101B100000EB8000A6F5407909EB800820208DF8C5
:101B2000000096F82E0003AA06EB800001A990F8A9
:101B30002050306902903068384401F05BFE9DF916
:101B40000C00002802DD0198401C0190D8F8080024
:101B500001994318642F37D35C490022C91B72EBEB
:101B6000020031D3D8F80400181A20F07F40B0F5F5
:101B7000800F29D223F07F406060534884F80CA086
:101B800090F82E10EA46202D1CBF514800EB811B17
:101B90004AD005EB850009EB80086068D8F804207E
:101BA0002146101A0002C21700EB126008F1040669
:101BB000001226D4708988B3488948B134E040F6D1
:101BC0005C31702002F0AEF907B00120BDE8F08F63
:101BD0002046FFF755FE05AA04A901F00BFE9DF96A
:101BE00014000028CCBF0120002000F1330104982C
:101BF0003268101A0002C21700EB1260001288420D
:101C000012DA8AF8005098F81010207B814206D82A
:101C10000298606007B00320BDE8F08F04E00BEB92
:101C200045004578202DB4D1274DA868B0F1FF3F7D
:101C300016D001F081FAA968081A0002C11700EB5A
:101C400011600012022805DC0298606007B00220D3
:101C5000BDE8F08F052001F0BDFC4FF0FF30A8601B
:101C600095F82E309DF800202021202A13BF052052
:101C700005EB830090F82000FFF7BAF895F82E20C6
:101C8000134901EB821195F82F2001EB42014870B6
:101C9000286838442860012085F82B00687E0128D8
:101CA00005D12869401E20F07F4001F0E5FA9DF83B
:101CB0000000202803D00748407802F003FA07B05C
:101CC0000020BDE8F08F00004C0F0020FF1FA1078F
:101CD000CC0E0020080000200246DFF854C010B5EA
:101CE0000023BCEB0202084473EB030204D240F26F
:101CF000E451702002F016F90E4A914204DD40F2E0
:101D0000E551702002F00EF90B4A914204DA40F2DC
:101D1000E651702002F006F908498842A8BF084938
:101D200003DA0028B4BF054910BD401810BD0000FB
:101D3000FF7F841E0020A10700E05EF80080841E63
:101D400000807BE1104A0B1A02F1010CB3EB9C0FEF
:101D50003CBF1846704710B5441AB4EB9C0F3CBF0B
:101D6000184610BD9A4203D2101A0844401C10BDF8
:101D7000A24204D2511A0844401C404210BD40F611
:101D8000E521702002F0CEF8FF7F841E0B4910B5CC
:101D900091F82F0020280CD091F82F0091F82F10E7
:101DA000074A01EB810152F82120BDE810400421CF
:101DB000104740F69701702002F0B4F84C0F002055
:101DC0004C0C002070B5604E6049012506F540744A
:101DD00008287CD2DFE800F00457889AB23E9FA41E
:101DE00094F82C0018B901F0FFFE84F82C50E08A1A
:101DF00010B102F033F888B1FFF7ACFC84F8295039
:101E0000A168B1F1FF3F05D001230322052001F0B5
:101E100019FB40B1607E012810D109E040F64F0166
:101E2000702002F07FF840F65401702002F07AF83A
:101E30002069401E20F07F4001F01EFA94F82F0028
:101E400094F82F1001EB810156F82120BDE8704075
:101E500001211047FFF77EFC4FF0FF30A06094F89F
:101E6000290058B194F82F0094F82F1001EB81014C
:101E700056F82120BDE870400621104740F6640165
:101E8000702002F04FF8FFF765FC84F8285001F04D
:101E9000E5FF18B194F82C0028B108E040F6730172
:101EA000702002F03FF801F09FFE84F82C5094F867
:101EB0002D0058B126494FF400200860052001F09C
:101EC00089FB01F0DDFE002084F82D0000E035E004
:101ED00094F82F0094F82F1001EB810156F821207F
:101EE000BDE870400021104701F01AFCE08A10B1F3
:101EF00001F0B4FF28B117480078032808BF6577C0
:101F000070BD40F67D01702002F00CF812480560AB
:101F10008868056070BD0878BDE8704002F0D2B8EE
:101F2000FFF718FC94F82F0094F82F1001EB8101B3
:101F300056F82120BDE870400521104740F68F017A
:101F4000702001F0EFFF00004C0C00200800002082
:101F500008F501400A00002008050040034810B5BC
:101F600040780AF0C4FC80B210BD00000A000020D6
:101F70002DE9F34FFF4893B088460068FE4DC00539
:101F8000C00D0ED0103840B20028B8BF00F00F00CE
:101F900000F1E020ACBF90F8000490F8140D400967
:101FA0000DD098F800004FF0000B002818BF012852
:101FB00018D040F23C714FF0700001F0B3FF95F87B
:101FC0002F004FF0010B202807D098F8000048B1EF
:101FD0004FF4E761702001F0A5FF40F235717020E9
:101FE00001F0A0FFE54C24B1002140F23F70AFF3B7
:101FF00000801398E24900EB800001EB80004FF075
:102000000109019024B1002140F24770AFF3008034
:10201000B9F1000F0AD000BF95F82E604FF0000A0A
:1020200085F82BA0BBF1000F07D02EE0D548002883
:1020300018BFAFF3008062B6EEE73746012020EA12
:102040000706D148402200EB871100EB86100AF00A
:10205000BCFD24B100214FF4B560AFF3008005EB67
:10206000870105EB8600096A016224B1002140F274
:10207000AC50AFF3008024B1002140F25170AFF3B7
:10208000008095F82B000028BCD124B1002140F23B
:102090005B70AFF3008001F04FF8074698F800003E
:1020A0000DF10809002898F80B008DF8150098F834
:1020B0000A108DF81410B8F80810ADF8121000903E
:1020C000D8F8043013D000224846FEF72FFE0797B9
:1020D000BDF812000FAA0EA901F08CFB95F82F0095
:1020E00020280AD02869401D20F07F401EE0484685
:1020F000D8F80C20FEF71AFE4BE007980930009044
:10210000BDF8120028B101F0A9FE10B900983230D4
:1021100000909E4841780E98814298BF009803D95C
:10212000091A00980844009020F07F40DDE9022160
:10213000891A0290084420F07F40039031464846B7
:10214000FEF792FE98F80B000090B946B8F8081018
:102150000EA8D8F80430D8F80C20FEF7E7FD029856
:10216000039AA0EB090020F07F40A2EB09020F992F
:1021700022F07F42B0F5800F01D2914209D2DDE911
:102180000221891A781827F07F4220F07F40CDE99C
:10219000022024B1002140F26270AFF300807A4A3D
:1021A0003946DDF84C9002EB861702A817F8192083
:1021B000012A18BF022A3DD1029ADDF80CC0A2EB19
:1021C0000102734B22F07F42ACEB010121F07F4111
:1021D000022A69D3B2F5800F66D28B4264D34FF0E6
:1021E000010A0EAB0DAA3146FEF788FFF0B39DF849
:1021F00034109DF8382033468A4261D00520FEF71E
:10220000F7FD00BF07EB490148709DF83400202816
:1022100003BF05EB860080F8209080F823A007EB31
:10222000400018BF80F80190324649465FF0030035
:10223000FFF764FB05EB860090F8237024B10021C2
:1022400040F26970AFF300805248002818BFAFF326
:102250000080EFF3108972B624B1002140F26F7054
:10226000AFF3008095F82B00002800E024E07FF415
:10227000C9AE24B1002140F27770AFF300800DF1B8
:10228000040EBAF1000F9EE80F1000F1040080E880
:102290000E1041D024B1002140F28470AFF30080D1
:1022A000BBF1000F2BD115E0324649460420FFF761
:1022B00025FB4FF0010ABDE7324649460420B7E747
:1022C000202919BF07EB4100407805EB860090F804
:1022D000200097E79FB195F82F0020280FD124B157
:1022E000002140F28970AFF3008031460220FFF7F1
:1022F00035FB20B998F80000D0B301285ED024B196
:10230000002140F2A670AFF3008085F82E60012016
:1023100085F82B004FF0010A24B1002140F2AF7084
:10232000AFF30080B9F1000F51D024B1002140F289
:10233000B370AFF30080BAF1000F11D095F82E0002
:1023400005EB800090F82100202809D024B100215D
:1023500040F2BA70AFF300800F48407801F0B2FE4F
:1023600024B1002140F2BF70AFF30080504615E069
:1023700017E0000004ED00E04C0F0020000000001A
:102380004C0C002000000000CC0E00200A000020B1
:10239000FFFF3F00000000000800002015B0BDE86E
:1023A000F08F24B1002140F29170AFF3008095F8D6
:1023B0002E2004201399FFF7A1FAABE7002C3FF47D
:1023C00021AE002140F29C70AFF300801AE6034872
:1023D000002818BFAFF3008062B6A6E70000000037
:1023E0002DE9F04F0546E1488DB00068C005C00DED
:1023F00011D0103840B20028B8BF00F00F0000F133
:10240000E020ACBF90F8000490F8140D400908BF1C
:102410004FF0010B01D04FF0000B287800284FF04F
:1024200000001CBF0DB0BDE8F08FDFF84483D14E33
:102430004FF00009CDF81800B8F1000F04D00021CA
:1024400040F23360AFF3008096F82E7086F82B9040
:102450004FF0000AB8F1000F04D000214FF4C7601C
:10246000AFF30080BBF1000F21D13C46012020EAF0
:102470000407C148402200EB841100EB87100AF0EA
:10248000A4FBB8F1000F04D000214FF4B560AFF306
:10249000008006EB840106EB8700096A0162B8F14F
:1024A000000F04D0002140F2AC50AFF30080B8F12F
:1024B000000F04D000214FF4C860AFF3008000F09B
:1024C0003BFE044602A8019028780028E87A8DF89F
:1024D0001500A97A8DF814102989ADF81210009012
:1024E0006B6813D000220198FEF720FC0094BDF821
:1024F000120008AA07A901F07DF996F82F002028FC
:1025000009D03069401D20F07F401DE0EA68019845
:10251000FEF70CFC46E0009809300090BDF8120070
:1025200028B101F09BFC10B900983230009093481C
:1025300007994078884298BF009803D9411A0098BB
:102540000844009020F07F40DDE90221891A0290C2
:10255000084420F07F40039039460198FEF784FC40
:102560000194E87A0090298908A86B68EA68FEF768
:10257000DDFBDDE90130039AC01AD21A20F07F405A
:10258000099922F07F42B0F5800F01D2914209D221
:10259000DDE90221891A601824F07F4220F07F4093
:1025A000CDE90220B8F1000F04D0002140F24660CE
:1025B000AFF3008096F82F00202814D030690299DC
:1025C000091A0902CA1701EB126109120BD5DDE9DC
:1025D0000221891A20F07F42084420F07F40CDE993
:1025E00002204FF0010AB8F1000F09D000214FF48A
:1025F000CA60AFF30080002140F25660AFF3008064
:102600000299039A091B121B5D4821F07F4122F0B9
:102610007F42B1F5800F05D2904203D3BBF1000F8A
:102620000BD104E04F46BBF1000F39D094E039469E
:1026300002A8FEF719FC4AEA000ABAF1000F23D0FB
:1026400002980AF054F9BDF812109DF91020DFF835
:1026500034C11144CA1C81180024BCEB000074EB87
:10266000090043D3484882425BDC4042824260DB3F
:102670000CF101008142A8BF444803DA0029B8BF29
:10268000434800DA0918E9604FF001000690B8F1FC
:10269000000F61D0002140F26960AFF300805BE081
:1026A000BDF8120001AA694601F0A4F896F82F00BF
:1026B000202820D03069401D20F07F40DDE9022134
:1026C000891A014421F07F41CDE902010AF00FF996
:1026D000BDF812109DF910202A4B1144C91C421854
:1026E0004FF0000C181A7CEB070017D240F2E451AF
:1026F000702001F017FCBDF81200093420B101F080
:10270000ADFB002808BF32341C4841780098814254
:1027100084BF081A044424F07F40CFE71A4881425E
:1027200004DD40F2E551702001F0FCFB19488142C4
:1027300004DA40F2E651702001F0F4FB14488242C2
:10274000A8BF124803DA002AB8BF114800DA1218ED
:102750004FF00100EA60069096F82B0000287FF405
:102760006BAE06980DB0BDE8F08F000004ED00E000
:10277000000000004C0F0020CC0E00200A000020BA
:10278000FFFF3F00FF7F841E0020A10700807BE148
:102790000080841E00E05EF82DE9F14F804D8CB082
:1027A00095F82E000020099001207E4C4FF0000883
:1027B000A5F180078346089024B1002140F2CE7035
:1027C000AFF30080089890B385F82B8024B10021E6
:1027D00040F2D370AFF3008095F82E9040222BEAA0
:1027E000090607EB861007EB891182460AF0EDF91E
:1027F00024B100214FF4B560AFF3008005EB8600F3
:1028000005EB89010090096A016224B1002140F2C0
:10281000AC50AFF3008095F82B0080B1002C1CBFAA
:10282000002140F2D970C7D0AFF30080C4E7FFE7C2
:102830005D48002818BFAFF3008062B6C4E724B13A
:10284000002140F2DD70AFF300800C981AF8100000
:10285000032878D1DDF80090CDF818900C9999F8FC
:102860002000884214BF4FF0000A4FF0010A09F11E
:10287000200C8646202207EB861303E0024603EB7A
:1028800042004078884202D020280AD0F6E720286B
:1028900007D0864507D103EB4E0040788CF8000046
:1028A00007E040460CE003EB400003EB42014078B8
:1028B000487024B1002140F22D50AFF300805846FB
:1028C00010EA0A0F18BF89F823B0E0B324B1002141
:1028D00040F2E270AFF30080324601200C99FFF71E
:1028E0000DF8069890F8239024B1002140F2ED7085
:1028F000AFF300802D48002818BFAFF30080EFF33E
:10290000108072B6089024B1002140F2F270AFF34B
:10291000008095F82B0038B1002C1CBF002140F23C
:10292000F6703FF449AF7FE7B9F1000F08D095F892
:102930002F00202804D131460220FFF70FF8F8B10C
:1029400034B1002100E009E040F60A00AFF3008056
:1029500085F82E6085F82BB00120099024B1002164
:1029600040F61300AFF30080089888B124B100212D
:1029700040F61700AFF3008009980DB0BDE8F08F66
:10298000002CF1D0002140F60500AFF30080E6E70F
:102990000548002818BFAFF3008062B6E6E70000E4
:1029A0004C0F0020000000000000000000000000AC
:1029B00010B5202811D20E4991F82E30A1F18002D5
:1029C00002EB831C1CF810303BB191F82E3002EB67
:1029D000831212F81020012A01D0002010BD91F8B6
:1029E0002E2001460020FEF789FF012010BD0000C7
:1029F0004C0F00202DE9F05F7E4E804696F82E00A9
:102A0000A6F1800707EB801010F81800002865D0A9
:102A100096F82E90784D25B1002140F6AA30AFF3FC
:102A2000008007EB891414F81800012818D0C0B2F0
:102A300004281CBF0528062855D02DB14FF00001F1
:102A400040F6B630AFF3008001F092FB25B10021D3
:102A500040F6BA30AFF3008014F818000128E6D130
:102A6000012425B1002140F6C130AFF30080A4B3AA
:102A7000002086F82B0025B1002140F6C630AFF3C8
:102A8000008096F82EB0012020EA0B0907EB8B118D
:102A900007EB891040220AF098F825B100214FF485
:102AA000B560AFF3008006EB8B0006EB890A006A85
:102AB000CAF8200025B1002140F2AC50AFF30080ED
:102AC00096F82B00E0B1002D1CBF002140F6CC3061
:102AD000C7D000BFAFF30080C3E70AE040F6A131E2
:102AE000702001F01FFA4A4641460120FEF706FF1A
:102AF000ACE74248002818BFAFF3008062B6B7E7E2
:102B000025B100214FF43D60AFF300809AF82130E9
:102B10000AF1210140461C464FF0200B07EB8912B9
:102B20000AF1220A04E0A34602EB4B0C9CF8014098
:102B3000844202D0202C2BD0F5E7202C28D0A342B1
:102B400004D102EB43004078087005E002EB44003A
:102B500002EB4B0140784870BAF1000F11D025B15B
:102B6000002140F22550AFF300809AF80000A04207
:102B700007D125B100214FF4A560AFF300808AF89A
:102B800000B05DB1002140F22D50AFF3008000E0B5
:102B900025B1002140F6D430AFF30080184800285A
:102BA00018BFAFF30080EFF3108472B696F82B00D5
:102BB00038B1002D1CBF002140F6DA303FF451AF90
:102BC00088E786F82E90012086F82B0054B1002D5E
:102BD00008BFBDE8F09F002140F6E730AFF300806A
:102BE000BDE8F09F0548002818BFAFF3008062B62B
:102BF000EDE700004C0F0020000000000000000086
:102C00000000000070B5054601F016F90D4890F877
:102C10002E200024803800EB821000BF10F8141022
:102C200029B1611CCCB2202CF8D3202070BD0649FC
:102C300004EB840041F8205021460120FEF75EFE9F
:102C4000204670BD4C0F00204C0C00202DE9F041B7
:102C500000F072FA054600F019FD484CA068B0F18A
:102C6000FF3F1CBF4FF0FF30A060A07FA8B9D4E9A0
:102C70000301081A0002C11700EB116000124FF4A3
:102C80000C7109F061FE21690844281A0002C1177D
:102C900000EB11600012C00F0CD0607ED0B100F0CC
:102CA00057FB00BF94F82A00D0B140F24B4170208E
:102CB00001F038F994F82F0094F82F10304A01EB06
:102CC000810152F821200821904740F23A417020BA
:102CD00001F028F9E81C20F07F4000F033FAE1E72A
:102CE000012684F82A6094F82F00202825D094F833
:102CF0002F70202084F82F0084F83000002584F8FD
:102D0000285084F829501F4825600078022816BFF3
:102D1000032801200020207794F82E804FF0010036
:102D20004146FEF71BFE0028F8D0174800EB88103C
:102D300010F81700022805D009E040F24E4170203B
:102D400001F0F0F8424639460620FEF7D7FD84F838
:102D50002B6004EB880090F82100202803D00B485A
:102D6000407801F0AFF9207F002808BFBDE8F0816E
:102D700000F0D6FC25776577BDE8F0814C0F002088
:102D80004C0C00200A000020CC0E0020080000207F
:102D900030B5304C83B094F82F10202908D0A168AA
:102DA000B1F1FF3F09D040F6C221702001F0BAF81E
:102DB00040F6C121702001F0B5F86168DFF898C0D5
:102DC0000B180022BCEB010172EB020104D240F2AD
:102DD000E451702001F0A6F82049884204DD40F259
:102DE000E551702001F09EF81D49884204DA40F256
:102DF000E651702001F096F81A488342A8BF1A489D
:102E000003DA002BB8BF174800DA1B18184601AACE
:102E1000694600F0EFFC9DF904000F28CCBF0120AB
:102E200000200099084420F07F41A16094F8290017
:102E3000002804BF03B030BD01230322052000F0A9
:102E400001FB00281CBF03B030BD40F6CA21702032
:102E500001F068F84C0F0020FF7F841E0020A107BE
:102E600000E05EF80080841E00807BE170B51E4C9F
:102E7000202184F8201084F8211084F822100020EA
:102E800084F8230084F82E0084F82F10421EA260DC
:102E90002060A07784F8280084F8290020776077E4
:102EA00084F83010114984F82C0084F82D00087043
:102EB00048704880A4F182011022887001F8040F44
:102EC000521EFAD10A4D012684F82A60FF2028708C
:102ED000084801F0D9F8687001F034F9A86000F0F2
:102EE0004DFC84F8316070BD4C0F00200A000020BA
:102EF00008000020B517000070B5044615460846C6
:102F000009F0F5FC0F4A011B02F1010CB1EB9C0F1B
:102F100024BF231AB3EB9C0F0BD38A4203D2111B9D
:102F20000844411C05E09A4207D2101A2044401C74
:102F3000414201F10F00281A70BD40F6E5217020D2
:102F400000F0F0FFFF7F841E2DE9F041244CD4F8FF
:102F500004034FF0000510F4803F4FF400664FF07B
:102F6000E0271CBFD4F8400100280BD04FF480307C
:102F7000C4F80803C4F84051C7F880624FF0040059
:102F8000FEF720FFD4F8040310F4003F1CBFD4F870
:102F9000440100280BD04FF40030C4F80803C4F8F3
:102FA0004451C7F880624FF00500FEF70BFFD4F8DC
:102FB000040310F4802F1ABFD4F848010028BDE89C
:102FC000F0814FF48020C4F80803C4F84851C7F8D2
:102FD0008062BDE8F0414FF00600FEF7F3BE00004E
:102FE00000B000402DE9F0413A4D287804286CD01B
:102FF000E81C0122017859B1012908BF6A7002D08A
:10300000697800295CD002210170407800F0E2FA72
:10301000314CD4F804034FF0000810F4002F4FF4A3
:1030200080764FF0E0271CBFD4F84C01002808D070
:103030004FF0030000F0CEFAC7F880620320FEF7DD
:10304000C1FED4F8040310F4802F1CBFD4F848014B
:10305000002808D04FF0020000F0BCFAC7F88062E8
:103060000220FEF7AFFED4F8040310F4003F1CBFAB
:10307000D4F84401002808D04FF0010000F0AAFA6B
:10308000C7F880620120FEF79DFED4F8040310F417
:10309000803F1ABFD4F840010028BDE8F0814FF00E
:1030A000000000F097FAC7F8806204202870C5F885
:1030B0000880C4F80082BDE8F0410020FEF782BE1F
:1030C0004FF465716C2000F02DFFBDE8F041072042
:1030D000FEF778BE14000020008000400122130299
:1030E0004FF0E0210020C1F8803101F5C071BFF33D
:1030F0004F8FBFF36F8FC1F800310C494A60431EF8
:10310000C1F808330A4B1860C1F840011B1D186054
:10311000C1F844011B1D1860C1F848011B1D18604F
:10312000C1F84C010A6103494870704700800040B3
:1031300040850040140000200148006870470000EE
:1031400004B500402DE9F05F414E0446F71E96F8A5
:1031500000C0F868BCF1010F04BFA042BDE8F09FB9
:103160004FF040413B4A11603B496FF48023C1F866
:1031700008333A4A4FF00005BCF1000F57D06FF406
:10318000A023C1F848331560C1F84451D1F8482153
:103190004FF0E0294FF00108002A04BF4FF400620D
:1031A000C9F880224FF48033C1F80833C1F848339E
:1031B000C1F840512A4AD2F800A0A4EB0A0A2AF02A
:1031C0007F4BBBF1020F3CD34FF0020ABBF5800FDF
:1031D00037D2C1F84045C1F84433BCF1000F05D0E7
:1031E0001168411A21F07F410229F9D3C7F80880FC
:1031F0003D70FFF773FF1B480560001DC0F800A07D
:103200001949042008601949C1F80C80BA68C1F84E
:1032100000228101C9F88012C9F80011144A41073F
:103220001160FC60707086F80080BDE8F09FC1F806
:103230004833104B1D60C1F840511560C1F844512E
:10324000A4E7C1F8405540F2CB116C2000F06AFEB3
:103250001700002008F5014000B0004044B50040D0
:1032600004B5004004850040108500400080004007
:1032700004F5014040B500402DE9F0412B4CE168D8
:10328000814214BF01220022DFF8A4C09CF8007024
:10329000022F02D0002A38D003E0002A08BFBDE880
:1032A000F081627882B3234B4FF080421A60224B48
:1032B0009513C3F80853C3F848530026C3F8406178
:1032C0001E4AD2F80080A0EB080828F07F48B8F129
:1032D000020F24D3B8F5800F21D2C3F84005C3F8FC
:1032E00044532FB11368CB1A23F07F43022BF9D339
:1032F000134B02214A071A60E06004208CF8010099
:103300008CF80010BDE8F08104E040F2D9116C2087
:1033100000F008FE40F2DD116C2000F003FEC3F85F
:10332000406540F2E9116C2000F0FCFD1400002023
:103330001700002008F5014000B0004004B500402F
:1033400004F501400148C0687047000014000020E7
:103350002DE9F04133486FF48024C0F80843DFF8CA
:10336000C8C0324A00219CF8003063B16FF4A02439
:10337000C0F848431160C0F8441100BFD0F84801BC
:10338000012280B909E0C0F84843294C2160C0F807
:1033900040111160C0F84411F0E74FF0E0244FF401
:1033A0000060C4F88002022B04D040F2F5116C20BA
:1033B00000F0B8FD1F4E30681F4CC01C20F07F404D
:1033C000E3681E4D98420BD03768DF1B27F07F471C
:1033D000042F05D3B7F5800F02D2FFF7B3FE1BE031
:1033E0003068181A20F07F40022813D3B0F5800F00
:1033F00010D2134B4FF080401860A26021706A60B9
:10340000EA604000191F086004208CF801008CF865
:10341000002001E0A2602170A068C5F80002BDE8AC
:10342000F081000000B000401700002044B50040CB
:1034300040B5004004B5004014000020008000406A
:1034400008F501402DE9F047DFF874C101274FF07E
:1034500000089CF800509CF801C007287ED2DFE8E5
:1034600000F0040404046A6A6A00564CE668B6F187
:10347000807F04BF6478002C02D0022D05D03CE090
:103480004FF40A716C2000F04DFD4FEA8C0404F1FA
:103490008046ACF104042406A40D04F1804906F52D
:1034A000004609F530490024012D02D0022D11D02B
:1034B00020E0BCF1040F05D2D6F840A1BAF1000F0C
:1034C00018D104E0D9F840A1BAF1000F12D14FF0A1
:1034D00000440FE0BCF1040F05D2D6F840A1BAF1C8
:1034E000000F07D104E0D9F840A1BAF1000F01D1D3
:1034F00044F0804414F0804FD5D1334C00F1100CCF
:1035000007FA0CFCC4F808C38000204452B10764D9
:10351000D0F840658D1B25F07F45AA4298BFB5F5D0
:10352000800F43D2C0F84015012B08BFC4F804C374
:103530000120BDE8F08735B1844504D140F24B212C
:103540006C2000F0EFFC001FC0B2012B0CBF012467
:103550000024032806D340F2251100E02BE06C2064
:1035600000F0E0FCDFF864C000F1100307FA03F399
:10357000CCF80833CCF8483380006044C0F8408170
:103580004AB1134D2E688D1B25F07F45AA4298BF86
:10359000B5F5800F0AD2C0F84015002C18BFCCF842
:1035A0000433CCF844330120BDE8F087C0F84085EF
:1035B0000020BDE8F0874FF414716C2000F0B2FCDD
:1035C00017000020140000200080004000B00040E0
:1035D00004B50040F8B501270024072843D2DFE8EE
:1035E00000F00404040416161600214A00F110012C
:1035F00007FA01F1C2F8081381001144C1F84045EF
:10360000C1F840411B4951F820000090F8BD1A4D07
:10361000011FCEB2297879B16A7882420CD1174A5B
:103620004FF040401060012908BFFFF757FD2C7094
:1036300013494FF08070C86006F1100007FA00F1DE
:103640001048C0F80813C0F84813B00000F18040DB
:1036500000F53040C0F84045C0F840410A4850F8F5
:1036600026000090F8BD40F2BD216C2000F05AFC0D
:1036700000800040408100401700002008F5014014
:103680001400002000B0004040B100401E496FF41B
:103690008023C1F808331D481D4A90F800C000205F
:1036A000BCF1000F0AD06FF4A023C1F848331060BA
:1036B000C1F84401D1F8481181B909E0C1F8483393
:1036C000144B1860C1F840011060C1F84401F1E7E3
:1036D0004FF0E0224FF40061C2F880120E494FF023
:1036E000FF32C1F808230D4A1060C1F84001121DD5
:1036F0001060C1F84401121D1060C1F84801121D8C
:103700001060C1F84C01704700B000401700002065
:1037100044B5004040B50040008000404085004076
:10372000084890F902000028B8BF704700F01F0158
:10373000012202FA01F14009800000F1E020C0F806
:10374000001270471400002010B507280DD2DFE8E2
:1037500000F00404040406060600064902E0001F07
:103760000549C0B201EB800010BD4FF41D716C2003
:1037700000F0D8FB4081004040B1004070B51948CE
:10378000002404210470C01E01708905C160FFF788
:10379000A5FC01254FF0E02CEB02CCF88031BFF303
:1037A0004F8FBFF36F8FCCF880320F4A5560956012
:1037B0000E4801680029FCD1481EC2F80803C2F86F
:1037C00048030B480460C2F84041001D0460C2F881
:1037D0004441001D0460C2F84841CCF80031156036
:1037E00070BD00001700002000B0004004B500408C
:1037F00040B50040430B48F2376C03FB0CF31B0C45
:103800004FEA432CC1F800C0DFF838C003FB0C03BB
:103810000D484CF2F72C5843400D10FB0CFC0CEB00
:10382000432303F580735B1213700B681844086020
:1038300010781F2818BF7047002010700868401CBF
:1038400008607047F7C2FFFF6F0C01002DE9F041DF
:10385000164C607A002827D04FF480718D052846D9
:1038600009F096F880464FF48271284609F090F8E6
:1038700000260746B8F1000F09D00120C5F808035B
:10388000207920B12671E06908B18047E66137B13F
:10389000C5F804610220C5F8080300F08BFA404621
:1038A000BDE8F04100F05AB8BDE8F08124000020E6
:1038B00010B509F017F930B909F035F918B909F060
:1038C00068F9002802D002490220086010BD0000FB
:1038D000340C004070B500F087F900F0BFFA094CD5
:1038E0004FF0804530B1FFF7E3FF0120286104204D
:1038F000A07204E00320A0720120C5F80403002098
:10390000E07170BD2400002070B5134CA079F0B1B7
:10391000012803D0E179401E814218DA00F09EFAB6
:10392000054600F06FFBA179012902D9E179491C14
:10393000E1710DB1616900E02169411A022902DAE1
:1039400011F1020F07DC0DB1606100E02061BDE8FC
:103950007040FFF7BFBF70BD240000202DE9F04785
:1039600006464FF080454FF48671284609F010F85E
:1039700080464FF48871284609F00AF8274C8246A1
:10398000277804F1080009F077F810B14FF4D571E9
:1039900016E04FF0010946B1A07A032805D10420B2
:1039A000A072FFF785FFC5F810900026B8F1000F50
:1039B00018D0C5F80C61A07A042804D04FF4DE7149
:1039C0006D2000F0AFFA09F08DF828B909F0ABF8D6
:1039D00010B909F0DEF808B1114806600220A072A3
:1039E00000F0E6F8BAF1000F08D0C5F81061A07A2F
:1039F000022801D1FFF788FFC5F814903FB1267067
:103A0000A07A022801D1FFF765FF00F0D1F8BDE8E8
:103A1000F0470248083009F046B8000024000020B2
:103A2000340C00402DE9F0475C4C4FF0000806468E
:103A3000C4F81880437882780078E07263710127B7
:103A4000A271BD0784F80780052824D2DFE800F0C2
:103A50000F03051F2100A76109E000F0C5F801214F
:103A6000284608F09AFF0028F9D00220A06108F04B
:103A7000C0FFB0B100F00CFA217E01F003018842D2
:103A80000FD1B07950B10220C5F804036AE0444870
:103A9000ECE74448EAE74FF44C7149E000F0CCF918
:103AA00060E0EF604FF4827AC5F80481A069C5F840
:103AB000180509F003F840B909F00AF828B909F027
:103AC0001EF810B909F02FF838B14FF08051364880
:103AD000D1F84412C1F34231016008F0EFFF40B960
:103AE00008F0F6FF28B909F00AF810B909F01BF838
:103AF00010B12D4810300760AF600220C5F80403F4
:103B0000B07978BBD5F8040310F0020F0ED0DFF8BF
:103B10009C90D9F80010C94341F30017D9F8001060
:103B200041F01001C9F800107F1C07E040F2F121BC
:103B30006D2000F0F7F900BF00F01AFB514628464F
:103B400008F026FF0028F7D000F076F92FB9D9F851
:103B5000001021F01001C9F800100220C5F8080378
:103B6000C5F80481A07970B1307860B900F076F9B9
:103B7000064600F047FA6FF0004216B1C4E904208F
:103B800001E0C4E904020121284608F006FF08B15B
:103B900000F05EF984F80A80BDE8F0872400002078
:103BA00001000200010003003C05004010ED00E0B0
:103BB00010B5EFF3108472B60A48417829B1417804
:103BC000491E4170417829B108E040F20D116D2085
:103BD00000F0A8F9807808B900F04EF9002C00D167
:103BE00062B610BD2400002010B5EFF3108472B649
:103BF00006484178491C41704078012801D108F0FD
:103C0000E3FE002C00D162B610BD000024000020AD
:103C1000054810B5C17821B100210171C170FFF7CD
:103C2000C7FF002010BD00002400002070B50C4C20
:103C3000E17861B90125E570E061FFF7D5FF00F09B
:103C40000DF930B1E06910B180470020E06100203B
:103C500070BD4FF080402571C0F80453F7E70000B5
:103C600024000020EFF3108072B604498A78521CB9
:103C70008A70002800D162B670470000240000203E
:103C800010B5EFF3108472B60A48817829B18178B3
:103C9000491E8170417829B108E040F225116D205C
:103CA00000F040F9807808B900F0E6F8002C00D167
:103CB00062B610BD240000202DE9F04104006FF031
:103CC00015003CD02178042939D80029617838D0F2
:103CD000002934D1A178002931D1002008F023FE39
:103CE000002008F013FE4FF080484FF0FF31C8F875
:103CF00008130026C8F80061C8F80461C8F80C6110
:103D0000C8F81061144F7E70A088B88108F053FE87
:103D1000012508B1FD707D700121404608F03DFE8F
:103D200008B100F095F82046FFF77CFE7D72002078
:103D300008F0ECFD4FF0E0213046C1F80051BDE83D
:103D4000F0810029FBD02029F9D8A1782129F6D8C3
:103D50000129C2D1F3E70000240000200148808936
:103D6000704700002400002010B50D4808F084FEC4
:103D70000B49083948B1012008704FF0E021C1F823
:103D80000002BDE81040FFF72FBF887A022801D15A
:103D9000FFF7A0FDBDE81040014808F084BE000018
:103DA0002C0000200248807A002800D001207047B3
:103DB00024000020F8B51F4DE87A00280FD1287E96
:103DC00000F0030008F005FE002808D0EFF3108192
:103DD00072B6FFF7E7FF18B1002900D162B6F8BD4F
:103DE0000126AE7201B962B618204FF08044C4F8C3
:103DF0000803A6614FF42070ADF80000BDF8000084
:103E0000411EADF80010F9D20027C4F80C71C4F8B7
:103E100010710848083008F042FE2F70FFF75AFD75
:103E20006661687900F07F00C4F838051820C4F88E
:103E30000403F8BD2400002010B5044C207E00F0DF
:103E4000030008F0C6FD0028F8D010BD24000020B3
:103E50000149012008707047900200204FF0804017
:103E6000D0F8000118B903480078002800D00120DC
:103E700070470000900200204FF080400121416017
:103E80000021C0F800110148017070479002002025
:103E90000248006800F00300704700001C04004066
:103EA00010B531B1012907D04FF4427105A000F0DF
:103EB0000FF8D0F8140401E0D0F8080400F0010075
:103EC00010BD00006E72665F636C6F636B2E6800DE
:103ED000024A526802B11047FEE700004400002089
:103EE000064810B50021016001210160084608F074
:103EF00097FDBDE81040012008F085BDFC1F004083
:103F0000074810B501214160891EC0F808130C2034
:103F100008F086FDBDE810400C2008F074BD0000DC
:103F200000C00040FEB5104A5568E5B100220346C6
:103F30006E460A2403E0B0FBF4F0521CD2B2002813
:103F4000F9D1B0540AE000BFB3FBF4F004FB103029
:103F5000B3FBF4F3521ED2B23030B054002AF3D186
:103F60003046A847FEBDFEE74400002070B5174C60
:103F700006460D46607810B14FF0FF3070BD06B9AF
:103F8000134E62602570FFF7ABFFFFF7B9FF3046B5
:103F9000FFF792FE0600F1D1FEF768FFFFF70AFF78
:103FA00008F08BFC284608F02EFD0120002D09DBCF
:103FB00005F01F0100FA01F16A09920002F1E02206
:103FC000C2F800116070304670BD0000440000204F
:103FD00042CA0000014840787047000044000020B9
:103FE000074890F90000002809DB00F01F020121BA
:103FF00091404009800000F1E020C0F800127047B5
:10400000440000202DE9F04101264FF0E022310369
:104010004FF000084046C2F88011BFF34F8FBFF346
:104020006F8F164CC4F800010C2008F018FD144DD9
:104030002868C04340F30017286840F0100028604B
:10404000C4F8046326607F1C02E000BF00F090F813
:10405000D4F800010028F9D01FB9286820F010001A
:104060002860084805686660C4F80863C4F80081E1
:104070000C2008F0F4FC2846BDE8F08100C00040A8
:1040800010ED00E008C5004010B5024605200C49BF
:1040900004E000BF01EBC0031B7933B1401EC0B286
:1040A000F8D24B216920FFF73DFF41F8302001EBAA
:1040B000C00100224A718A7101220A7110BD0000FC
:1040C000800F002010B5052801D35A2106E00A49C7
:1040D00001EBC0000179012903D05B216920FFF7C2
:1040E00021FF41798279491CC9B28A4200D04171CD
:1040F000BDE81040FFF774BF800F002070B50525A4
:104100000E4E0F4C16E0217806EBC1000279012A11
:1041100008D1427983799A4204D04279827156F863
:10412000310080472078401CC0B22070052801D3A0
:10413000002020706D1EEDB2E5D270BD800F002012
:104140009102002000B508F0B9FC40B908F0C0FCAD
:1041500028B908F0D4FC10B908F0E5FC08B1024811
:1041600000BD024800BD00000C05004000E7014012
:1041700010B508F0D8FC30B3EFF31080C8B10021BF
:1041800072B6124802680368C2F3001243F01003CB
:1041900003604FF0E023D3F80042D3F804321C430D
:1041A00000D040BF20BF00BF00BF00BF00BF12B1A2
:1041B00005E00121E4E7026822F010020260002914
:1041C00000D062B610BD20BF10BD000010ED00E0B1
:1041D000AFCD00009DCD0000A9CD000097CD00001F
:1041E00095CD000093CD0000B5CD0000A3CD00001B
:1041F0008DCD000085CD000089CD00007FCD000071
:1042000001480068C06800474C000020014A12685D
:10421000526810474C000020014800688068004741
:104220004C000020014A1268126810474C00002020
:104230001FB5174C6079032800D203208DF80100C8
:104240002079032800D203208DF80000E078ADF833
:104250000400A078ADF80200684606F0C9FE08B177
:104260009C2110E0A068029002A806F0D7FE08B1D9
:10427000A02108E007480068039003A80BF0A1F80C
:10428000002803D0A421032000F0AAF81FBD0000DD
:1042900058000020B844000010B528B11422044989
:1042A00008F093FC002010BD6FF0150010BD000059
:1042B000EA44000010B56FF02C0418BBC9B14AB134
:1042C000114B012909D002290AD003290BD0042956
:1042D00018D10CE06FF0150010BD1078187208E0CE
:1042E0001078587205E01068C3F80A0001E0106801
:1042F0001861054901220831002008F05DFDB0F584
:10430000803FE9DB204610BD5000002038B50D4647
:10431000D0B1CDB1FFF7B8FE0D4C002204F1080179
:104320002070284608F048FD0BF084FB002120781F
:1043300007F004F960788DF8000068460BF035F856
:104340000120A070002038BD6FF0150038BD0000BE
:104350005000002070B504000BD0FFF73BFE4FF07B
:10436000FF3520B1FFF7FAFCB0F5FA7F04D92846F3
:1043700070BD6FF0150070BD0022144B114600BFD8
:1043800033F82150854203D303EB8100827803E0A8
:10439000491CC9B20C29F3D30D48427044600D4842
:1043A00000F0D2F9EFF3108472B60B486FF00C01F5
:1043B00000F0AAFC094800F059FF18B1B32103200E
:1043C00000F00EF804B962B6002070BDBA440000D7
:1043D000500000203142000000E000400145000094
:1043E0000EB572B6154A5568D5B1002203466E4621
:1043F0000A2403E0B0FBF4F0521CD2B20028F9D139
:10440000B05409E0B3FBF4F004FB1030B3FBF4F359
:10441000521ED2B23030B054002AF3D13046A847F1
:10442000BFF34F8F06480168064A01F4E06111436B
:104430000160BFF34F8F00BFFDE700005000002078
:104440000CED00E00400FA05054810B5807810B1C5
:104450004FF0FF3010BD07F091F8002010BD0000B4
:1044600050000020054810B5807810B14FF0FF30A3
:1044700010BD06F0EBFD002010BD00005000002034
:10448000054810B5807810B14FF0FF3010BD0BF02B
:10449000C7F8002010BD000050000020054810B5EE
:1044A000807810B14FF0FF3010BD07F079F8002090
:1044B00010BD000050000020010001000B000200B0
:1044C0000A00050009000A000800140007001E0089
:1044D0000600320005004B00040064000300960053
:1044E0000200FA000100F4010000D9E243713B2D03
:1044F000C01555E11DC89975017A62858D0A0000C5
:10450000F8B5124C0026256811E00098022802D068
:1045100003280CD106E0206810B10020266005E0D9
:1045200026210CE0206868B101202660A847684673
:1045300000F082FC0028E8D0052805D033210420B3
:10454000FFF74EFF2B21FAE7F8BD000064000020C2
:1045500070B50C006FF0150504D009F063FB00F096
:104560009FFE08B1284670BD01480460002070BD60
:104570006400002070B51C006FF0150502D000F03B
:1045800001FE08B1284670BD01480460002070BDDE
:10459000640000207CB5244D0646287848B1AC78EC
:1045A000691CA41C2246304608F00FFB002028702E
:1045B00024E01D48443806F097FD002832D01A4CFC
:1045C000443C2078112804D10A213E2008F0A3FCA5
:1045D00018B12078082806D00AE01349304644393B
:1045E00008F0A2FE09E005213E2008F094FC60B12D
:1045F0000D493046443908F0ECFC04468CB1B178E2
:104600003078BDE87C4008F086BCA088ADF800009A
:1046100001A9684608F051FF18B195210820FFF75D
:10462000DFFE00207CBD00000C12002070B50A786F
:1046300082703AB3012A25D81323037000230AE0BD
:1046400001EB430400EB4305A678EE706488240A6E
:104650005B1C2C71DBB29342F2D300230BE000BF52
:1046600001EB430500EB43042E796671AD882D0AFA
:104670005B1CA571DBB29342F2D3012101EB8200F6
:10468000C0B270BD002070BD01210C4A40280CD280
:10469000202803D8401E8140106802E02138814064
:1046A0005068014207D100207047FF2803D04038EE
:1046B00081409068F5E70120704700006C00002001
:1046C0000121401E81400448C068014201D0012000
:1046D00070470020704700006C000020014900680E
:1046E000C86070476C00002004490268406842F4CA
:1046F0008C220A60024A1043486070476C00002018
:10470000F807400201490068886070476C0000208B
:1047100005484FF0FF310160C90C41600021816004
:104720001F21C160704700006C00002010B5FFF72A
:10473000EFFF0AF0F6FE04460248006800B1804729
:10474000204610BD7C000020014908607047000031
:104750007C00002002210180418000210171D921CB
:10476000417144F2E231C18001498160002070470B
:10477000713B2DC02DE9F04149B9114C00273B4652
:104780004FF6FF7604EB810514F801C00DE0002020
:10479000BDE8F081DC19D5F808E0A4B25EF824E0A9
:1047A000BEF1000F04D05B1C9BB29C45F2D834468E
:1047B00004802046B442EAD0BDE8F04100F09EB843
:1047C000A80F002010B520B140F253111720FFF7B9
:1047D00007FE0148007810BDA80F0020F8B50500BD
:1047E0000C4600950AD00026E81C20F00300A842E1
:1047F00006D04FF494711720FFF7F2FD0126F3E77E
:10480000124F314668463C7000F0BCF80020034669
:104810000099C91C21F0030100916EB907EB8002D9
:104820009160002106E000BFD2F808C04CF82130AA
:10483000491CC9B2A142F7D30099401C01EB840185
:10484000009110F0FF00E3D0481BF8BDA80F002036
:1048500070B5044609F041FA08B1102070BD257802
:1048600000F046F802460C48618800EB85000EE037
:10487000836853F8213043B14A1C6280A18080686C
:1048800050F82100A060002070BD491C89B29142FF
:10489000EED36180052070BDA80F002070B50646DC
:1048A000A0F57F4043F20205FF381AD009B1072076
:1048B00070BD304600F056F8040012D00A48214678
:1048C000026830469047094D0020A96841F826004B
:1048D00000F08AF802462146686809F021F90020B4
:1048E00070BD284670BD0000044A0000A80F0020DB
:1048F0000148007870470000A80F00202DE9F04122
:1049000090460E46074609F043F940B1134800EBC4
:104910008605A86850F8270018B1F42112E0F321A9
:1049200010E06868002817D0304600F05DF80146B6
:10493000686809F0A7F804000DD0A86840F827407F
:104940001EB1FF211720FFF74BFD054842462146C7
:104950000368384698472046BDE8F081A80F00203C
:10496000004A000070B50C46054609F011F9002810
:1049700005D0034800EB8400806850F8250070BD26
:10498000A80F00202DE9F843164E8846054600245E
:104990002868C01C20F003002860204600F024F89E
:1049A000315D4843B8F1000F01D0002200E02A68D1
:1049B0000146009232B100274FEA0D0009F08FF84E
:1049C0001FB106E001270020F8E706EB8401009AFA
:1049D0004A602968641C0844286014F0FF04D7D09A
:1049E000BDE8F883A80F0020034931F810004FF606
:1049F000FC71C01C08407047FC4900001002000018
:104A000059ED00006FED00002DE9FF4F264C804668
:104A100081B020689A46934658B1027A424503D93C
:104A2000416851F8280040B143F2020005B0BDE8EA
:104A3000F08FA5211820FFF7D3FC1946029809F042
:104A4000C8F886B258460E9909F0BAF885B27019BE
:104A5000001D87B22068A1463946006809F012F8A7
:104A600004001FD0678025802946201D0E9D074623
:104A70005A460123009508F064FF208831463844E7
:104A80000123029ACDF800A008F05BFF2088C1192D
:104A9000384608F087FFD9F800004168002041F847
:104AA0002840C3E70420C1E78000002070B5144C03
:104AB00023688BB1197A814212D95A6852F82010B2
:104AC00071B1002542F820504A88186809F028F88A
:104AD000216800200A7A0CE0C8211820FFF780FC2A
:104AE00043F2020070BD4B6853F8203033B9401CCC
:104AF000C0B28242F7D8086809F007F8002070BDFC
:104B0000800000202DE9F0410D46040090464FF052
:104B1000000609D00027E01C20F00300A04205D0C9
:104B200086211820FFF75CFC0127F4E7CDB1114680
:104B3000002008F0D4FF0C3000EB85068FB90A4F37
:104B400004F10C00AA003C602572606000EB850057
:104B500020600021606808F0B2F84146386808F02B
:104B6000BEFF3046BDE8F0818000002070B5084DE2
:104B7000286800280AD0002404E02046FFF796FFAA
:104B8000641CE4B22868007AA042F6D870BD000028
:104B900080000020094910B502460968002049B18B
:104BA0000B7A934205D9496851F82210002900D0A8
:104BB000081D10BDEE211820FFF712FC8000002018
:104BC0000A4910B502460968002059B10B7A934290
:104BD00007D9496851F82210002902D031F8040B96
:104BE000084410BDFC211820FFF7FAFB80000020CC
:104BF000094910B507480860084B112003EBC004B1
:104C00000022C4F81025C4F81425401CC0B2142892
:104C1000F4D310BD0000FEFF08F5014000F0014094
:104C200070B520240021012320FA01F2D20720D000
:104C30004AB2002A10DB00BF4FEA52164FEA86063E
:104C400002F01F0506F1E02603FA05F5C6F88051CB
:104C5000BFF34F8FBFF36F8F0BDB02F01F054FEADF
:104C600052124FEA820202F1E02203FA05F5C2F87D
:104C7000805201F10101A142D6D370BD70B541004F
:104C80004FF0000301D51A490B6084044FF0010175
:104C90004FF0FF3207D5174C6160C4F80032C4F8FA
:104CA0000823154C2360C0F38034C0F3C035AC42F8
:104CB00003D072211B20FFF793FB10F4404F12D05A
:104CC0000E484160C0F808230D488160C0F80032EA
:104CD000C0F808230B4C2360251D29608160C0F8B3
:104CE000082323602960BDE87040FFF781BF000002
:104CF00004E5014000D0004004D5004000E0004041
:104D000000F0004000F5004070B50B4C0D462060EF
:104D1000FFF7B4FF2068FFF783FF00F079F800F099
:104D20008FFBFFF765FF08F0A1FF284600F0AAF807
:104D3000BDE8704000F0AEBA840000202DE9FC5FB1
:104D40002F4E83463068019001272E4807F094FECD
:104D5000DFF8B08020B9002708F1010007F0A3FEBA
:104D6000294C00254FF0030901206060C4F8005170
:104D7000C4F80451C6F800B02060DFF890A017E036
:104D8000DAF80000C00613D50E2008F02BFFEFF371
:104D90001080009072B6C4F80493D4F8000120B9D2
:104DA000D4F8040108B9FFF7E3F9009800B962B636
:104DB000D4F8000118B9D4F804010028E0D0D4F8E0
:104DC00004010028D0D137B10198306008F101000A
:104DD00007F052FE11E008F1010007F04DFE002837
:104DE000BAD1C4F80893C4F80451C4F800510E2095
:104DF00008F0F8FE034807F056FE0020BDE8FC9FCF
:104E000004E500409202002000E0004010ED00E0C8
:104E100010B5084807F043FE08B1242106E0054814
:104E2000401C07F03CFE002803D028211D20FFF77E
:104E3000D7FA10BD9202002070B511490A68EAB194
:104E400000231D4601244A68521C4A60092A00D3E7
:104E50004D600E7904FA06F20E6816420BD0EFF39D
:104E6000108372B60C6894430C6003B962B649684B
:104E70000160002070BD5B1C092BE4D3052070BDD0
:104E80008800002002480021016041607047000056
:104E9000880000200121814002480068084000D0BD
:104EA0000120704788000020EFF3108172B60122C4
:104EB0008240044803681A430260002900D162B6A8
:104EC000704700008800002070B5044607F0F6FD2A
:104ED000054607F0FDFD054307F011FE054307F009
:104EE00058FE284305D04FF08042D2F8080108B19F
:104EF000082070BD0C480D4B016834B11A7902F0DE
:104F0000010211430160002070BD01F001015960F0
:104F1000036823F001030360D2F80821002AF2D0CD
:104F200002680A430260E3E7100500409000002099
:104F300010B5FFF7B9FF03480078BDE81040FFF750
:104F4000C1B800009000002010B5044607F0C8FC6E
:104F50000F4A90605078012802D040F2731113E09C
:104F60000C49012008700020C872088104204C60A0
:104F700088720948C86002205070907808F041FE9D
:104F8000002804D140F27B111F20FFF729FA10BD41
:104F900090000020B40F0020105C0C002DE9F041BF
:104FA000054617460C460020FFF78EFF06001AD173
:104FB0000E4A012010600E4801680029FCD0002133
:104FC00007E023682B600368002BFCD0491C241DDC
:104FD0002D1DB942F5D30021116001680029FCD0D4
:104FE0000120FFF771FF3046BDE8F08104E5014084
:104FF00000E4014070B5324CA278904202D04FF4E8
:105000008D714CE02E482F4D0829407855D2DFE8AD
:1050100001F0540423325454543E022802D04FF479
:105020008F713CE0032060702548E1780625052655
:10503000C068012901D019B10AE008F0E4FD03E0DD
:10504000D4E90412FFF7AAFF08B1657000E06670AA
:10505000BDE87040FDF7FABD07F042FC0146A068CC
:10506000FCF770FEA84202D2A16902290BD30320EB
:10507000FFF75EFF1DE007F033FC0146A068FCF778
:1050800061FEA842F3D2BDE8704000F01DB80228CE
:105090000AD0052806D0062806D04FF4B1711F208B
:1050A000FFF79EF9022000E00320FFF741FF0420F4
:1050B0006070BDE8704000F035B84FF4B671EEE7AF
:1050C00090000020105C0C0070B5144A124953780F
:1050D000022B02D04FF486711AE0884202D340F2CC
:1050E0000D1115E094690E4B012C03D847F2305591
:1050F000A84201DD03259D72641C081A9461D860E2
:105100000749907808F07DFD002804D140F2151180
:105110001F20FFF765F970BD105C0C0090000020A7
:10512000B40F002010B5064CA078FDF741FC10B17B
:105130000020607010BDA1211F20FFF751F9000071
:105140009000002010B50D4C607838B90220FFF7B0
:10515000A1FE18B90320FFF79DFE08B1112010BD74
:105160000748FDF74FFDA070202804D00120607093
:105170000020A06110BD032010BD000090000020A1
:10518000F54F00002DE9F047DFF8D09005461446B2
:1051900099F800000E46FF280AD034B14FF080582D
:1051A000D8F810008008A04207D20920BDE8F08797
:1051B00040F2BD111F20FFF713F905EB84072846C5
:1051C0003F1F08F08FFDE8B9AF421BD3D8F8140099
:1051D000D8F810104843854205D2874203D245EAE9
:1051E0000600800701D01020E0E706EB8400001FD6
:1051F000B04201D2012700E00027304608F072FDDE
:1052000000B90FB10F20D1E7154816490068884250
:1052100006D0224631462846BDE8F047FFF7BEBE1D
:10522000FFF790FF0028C1D1C9F80C50C9E9046408
:10523000002189F8031007F076FC08B10A4801E064
:105240004AF6EC1060434FF47A7100F2E730B0FB9D
:10525000F1F01830FFF778FE0020A7E7900000205B
:1052600068000020BEBAFECA442A050010B5084CEA
:10527000617809B10F2010BDFEF706FF2070FF28EE
:1052800001D0002010BD76211F20FFF7A9F80000F3
:1052900090000020014900204870704790000020D5
:1052A00070B50546124813490068884204D0284664
:1052B000BDE8704008F0A7BC0F4C2078FF280BD049
:1052C000FFF740FF002811D10120E560E07007F0F2
:1052D0002AFC30B1094805E040F201211F20FFF708
:1052E0007FF807481830FFF72FFE002070BD000040
:1052F00068000020BEBAFECA90000020645E010073
:10530000A85B0100094A0221116009490B68002BC2
:10531000FCD0064B1B1D186008680028FCD000203C
:10532000106008680028FCD07047000004E50140C8
:1053300000E401400649D1F80001012807D10548E1
:1053400000680022C0B2C1F8002100F0DFB8704749
:1053500000D0004008D50040014901200860704796
:1053600004D5004010B50648D0F800110029FBD044
:10537000FFF7E0FFBDE810400D2008F059BC000029
:1053800000D0004070B50D2008F05FFC084C0020F4
:10539000C4F800010125C4F804530D2008F048FCAE
:1053A00025604FF0E0216014C1F8000170BD0000DD
:1053B00000D0004010B50D2008F047FC0548012141
:1053C00041600021C0F80011BDE810400D2008F038
:1053D0002FBC000000D0004010B5054807F04CFB82
:1053E000002803D1BDE81040FFF7CCBF10BD00007E
:1053F000AC00002070B515460E46044608F050FC7F
:10540000A84218D3002041210FE000BF94F8423099
:10541000E35C335494F84220521CB2FBF1F301FBDD
:105420001322401C84F84220C0B2A842EED3FFF7FA
:10543000D3FF284670BDFFF7CFFF002070BD0000EE
:105440000E4910B5002081F8420081F84100433137
:1054500081F8420081F84100433181F8420081F82F
:105460004100074807F01BFB0548401C07F017FBED
:10547000FFF772FFBDE81040FFF7AEBF74130020C6
:10548000AC0000200A4601460148FFF7B3BF000008
:10549000B7130020014808F003BC0000741300207B
:1054A0000A4610B501460348FFF7A4FF002800D0C4
:1054B000012010BD7413002070B50C46064641292A
:1054C00003D9FB212320FEF78BFF0E48006810381C
:1054D00040B208F0D6FBC5B20D2008F0D2FBC0B236
:1054E000854201D8012504E0002502E00DB1FFF757
:1054F00039FF224631460448FFF77CFF0028F5D0EB
:1055000070BD000004ED00E0741300202DE9F041AF
:105510001F4F0646002500BF57F82540204608F0DB
:10552000CBFB00B36D1CEDB2032DF5D3194808F089
:10553000C3FB00282AD01748433808F0BDFB0028D9
:1055400024D01448433008F0B7FB00281ED0FFF7E2
:1055500031FF0F48001F07F08FFA233010D0B3211E
:105560002320FEF73DFF94F841004121265414F812
:10557000410F401CB0FBF1F201FB12002070D5E797
:10558000BDE8F0410248001F07F08DBABDE8F08188
:10559000B0000020B71300200648074A818C5288CB
:1055A000914204D190F8220008B1002070470120F8
:1055B000704700000E13002080020020014948803F
:1055C00070470000800200200848094A818C5288F8
:1055D000914209D14FF6FF71818410F8221F19B151
:1055E0000021017001207047002070470E13002039
:1055F00080020020074810F8221F012907D001214E
:105600000170054803490088888401207047002004
:10561000704700000E130020800200200649074B4F
:105620008A8C5B889A4205D191F8222012B10160E0
:1056300001207047002070470E13002080020020D8
:1056400009498A8CA2F57F43FF3B02D0002101600B
:1056500007E091F822200449012A02D001600120CC
:1056600070470020704700000E1300200149088099
:1056700070470000800200200549002081F82200C8
:105680004FF6FF7088840349088048807047000007
:105690000E1300208002002005498A8C824205D129
:1056A000002081F822004FF6FF70888470470000C8
:1056B0000E1300200A4B11B1012905D00EE05878D5
:1056C00060B153F8030F04E09978814206D153F892
:1056D0000F0F10609888908001207047002070475D
:1056E00094020020074A11B1012903D007E0507845
:1056F00018B904E09178814201D10120704700205F
:1057000070470000940200200A4A10B1012805D019
:105710000DE0507858B152F8030F03E0107830B123
:1057200052F8090F08609088888001207047002097
:1057300070470000940200200149FF2088707047E4
:10574000940200200A4A012348B1012806D11370AF
:105750000868C2F809008888A2F80D0070475370E5
:105760000868C2F803008888A2F8070070470000A4
:1057700094020020064910B1012802D005E04878C3
:1057800000E0087808B10120704700207047000051
:105790009402002001494874704700003A0C002030
:1057A0000148C07870470000BC0000200148007923
:1057B00070470000BC00002030B50C494A7C9AB10B
:1057C0000A7C8AB100221A23A1F152040A744270A1
:1057D0000370D4F85A504560D4F85E5085600D7C53
:1057E000002DF3D1012030BD002030BD3A0C002047
:1057F00070B50C46054600F029F918B1AA212720FA
:10580000FEF7EEFD0348012108F040FE0248C57195
:10581000C46270BD180C0020BC00002001490120AA
:1058200088717047BC0000202DE9F0414C4D86B0D6
:105830002E780C9C002E74D1002A72D0002B70D0D0
:10584000002C6ED005F11407C5E90E0187E81C0095
:10585000AE716E71EE70AE702E71AE81EE8100F0A1
:105860002DF9074600F024F9044606F0BDFA05F0CC
:10587000FDFF94F96A0006F033FB04F1160006F010
:1058800053FC04F1120006F043FCF87E06F066FCBF
:1058900005F13800406890F86C0108B106F0F4F9A1
:1058A00094F86710012006F021F9002850D0B04686
:1058B000012006F029FA14222A49684607F085F9E2
:1058C000684606F08DF92088FFF77AF9286320886A
:1058D000FFF760F9686307F15800234E0FC806F11F
:1058E000080C8CE80F00B86EC6F82100F86EC6F8F8
:1058F0002500FF206872628F218F94F86730B87C92
:1059000008F053FAB97C01B104210844C0B22872EE
:10591000B4F85010091D814205D240F269111CE013
:10592000FFE7D32119E04546012000F03DFB0F4879
:10593000006803280FD00B280DD046F8525F0A48A4
:10594000756052303988418021880180F97E01716B
:1059500006B0BDE8F08140F279112720FEF740FD46
:10596000BC00002000620000E80B00205015004041
:105970002DE9F047064600F0A1F8334D0446686A69
:1059800047780EB1012E03D1696B07F0ABFA68704E
:1059900068784FF000084FF0010950B101281AD083
:1059A000022834D0032849D040F2B5312720FEF731
:1059B00017FD012E32D000F0BFF839460122686B86
:1059C00007F054FE28E000BF84F8078031E000BFF4
:1059D00084F807902DE0012E08D000F0ADF839468C
:1059E0000022686B07F042FE022E0BD0D4E91401AE
:1059F000401C41F10001C4E91401E079012803D001
:105A000084F80790BDE8F08784F80780FAE7012E54
:105A100004D0686B08F030F8022EF3D0D4E91401FA
:105A2000401C41F10001C4E91401E0790128CFD103
:105A3000CAE7E879BDE8F047FEF744BB012EE1D0A4
:105A4000686B08F019F8F4E7BC00002004480078FF
:105A500008B10C20704703490020487470470000CB
:105A6000BC0000203A0C00200C4810B5017849B168
:105A700000F138010078022808D040F29511272063
:105A8000FEF7AEFCBDE8104000F09CB94868D0F8C5
:105A90000001BDE8104006F0ABB80000BC000020DB
:105AA000024A93890343938152691047BC00002046
:105AB0000148406870470000F40000200148406839
:105AC00070307047F4000020014A002152691047ED
:105AD000BC00002070B5174C054639B9012D05D121
